{
  "_format": "hh-sol-artifact-1",
  "contractName": "EFCToken",
  "sourceName": "contracts/EFCToken.sol",
  "abi": [
    {
      "inputs": [
        {
          "internalType": "uint256",
          "name": "initialSupply",
          "type": "uint256"
        }
      ],
      "stateMutability": "nonpayable",
      "type": "constructor"
    },
    {
      "anonymous": false,
      "inputs": [
        {
          "indexed": true,
          "internalType": "address",
          "name": "owner",
          "type": "address"
        },
        {
          "indexed": true,
          "internalType": "address",
          "name": "spender",
          "type": "address"
        },
        {
          "indexed": false,
          "internalType": "uint256",
          "name": "value",
          "type": "uint256"
        }
      ],
      "name": "Approval",
      "type": "event"
    },
    {
      "anonymous": false,
      "inputs": [
        {
          "indexed": true,
          "internalType": "address",
          "name": "previousAddress",
          "type": "address"
        },
        {
          "indexed": true,
          "internalType": "address",
          "name": "newAddress",
          "type": "address"
        }
      ],
      "name": "BoosterContractChanged",
      "type": "event"
    },
    {
      "anonymous": false,
      "inputs": [
        {
          "indexed": true,
          "internalType": "address",
          "name": "previousOwner",
          "type": "address"
        },
        {
          "indexed": true,
          "internalType": "address",
          "name": "newOwner",
          "type": "address"
        }
      ],
      "name": "OwnershipTransferred",
      "type": "event"
    },
    {
      "anonymous": false,
      "inputs": [
        {
          "indexed": true,
          "internalType": "address",
          "name": "from",
          "type": "address"
        },
        {
          "indexed": true,
          "internalType": "address",
          "name": "to",
          "type": "address"
        },
        {
          "indexed": false,
          "internalType": "uint256",
          "name": "value",
          "type": "uint256"
        }
      ],
      "name": "Transfer",
      "type": "event"
    },
    {
      "inputs": [
        {
          "internalType": "address",
          "name": "owner",
          "type": "address"
        },
        {
          "internalType": "address",
          "name": "spender",
          "type": "address"
        }
      ],
      "name": "allowance",
      "outputs": [
        {
          "internalType": "uint256",
          "name": "",
          "type": "uint256"
        }
      ],
      "stateMutability": "view",
      "type": "function"
    },
    {
      "inputs": [
        {
          "internalType": "address",
          "name": "spender",
          "type": "address"
        },
        {
          "internalType": "uint256",
          "name": "amount",
          "type": "uint256"
        }
      ],
      "name": "approve",
      "outputs": [
        {
          "internalType": "bool",
          "name": "",
          "type": "bool"
        }
      ],
      "stateMutability": "nonpayable",
      "type": "function"
    },
    {
      "inputs": [
        {
          "internalType": "address",
          "name": "account",
          "type": "address"
        }
      ],
      "name": "balanceOf",
      "outputs": [
        {
          "internalType": "uint256",
          "name": "",
          "type": "uint256"
        }
      ],
      "stateMutability": "view",
      "type": "function"
    },
    {
      "inputs": [],
      "name": "boosterContract",
      "outputs": [
        {
          "internalType": "address",
          "name": "",
          "type": "address"
        }
      ],
      "stateMutability": "view",
      "type": "function"
    },
    {
      "inputs": [
        {
          "internalType": "address",
          "name": "account",
          "type": "address"
        },
        {
          "internalType": "uint256",
          "name": "amount",
          "type": "uint256"
        }
      ],
      "name": "burnFromBooster",
      "outputs": [],
      "stateMutability": "nonpayable",
      "type": "function"
    },
    {
      "inputs": [],
      "name": "decimals",
      "outputs": [
        {
          "internalType": "uint8",
          "name": "",
          "type": "uint8"
        }
      ],
      "stateMutability": "view",
      "type": "function"
    },
    {
      "inputs": [
        {
          "internalType": "address",
          "name": "spender",
          "type": "address"
        },
        {
          "internalType": "uint256",
          "name": "subtractedValue",
          "type": "uint256"
        }
      ],
      "name": "decreaseAllowance",
      "outputs": [
        {
          "internalType": "bool",
          "name": "",
          "type": "bool"
        }
      ],
      "stateMutability": "nonpayable",
      "type": "function"
    },
    {
      "inputs": [
        {
          "internalType": "address",
          "name": "spender",
          "type": "address"
        },
        {
          "internalType": "uint256",
          "name": "addedValue",
          "type": "uint256"
        }
      ],
      "name": "increaseAllowance",
      "outputs": [
        {
          "internalType": "bool",
          "name": "",
          "type": "bool"
        }
      ],
      "stateMutability": "nonpayable",
      "type": "function"
    },
    {
      "inputs": [
        {
          "internalType": "address",
          "name": "to",
          "type": "address"
        },
        {
          "internalType": "uint256",
          "name": "amount",
          "type": "uint256"
        }
      ],
      "name": "mint",
      "outputs": [],
      "stateMutability": "nonpayable",
      "type": "function"
    },
    {
      "inputs": [],
      "name": "name",
      "outputs": [
        {
          "internalType": "string",
          "name": "",
          "type": "string"
        }
      ],
      "stateMutability": "view",
      "type": "function"
    },
    {
      "inputs": [],
      "name": "owner",
      "outputs": [
        {
          "internalType": "address",
          "name": "",
          "type": "address"
        }
      ],
      "stateMutability": "view",
      "type": "function"
    },
    {
      "inputs": [],
      "name": "renounceOwnership",
      "outputs": [],
      "stateMutability": "nonpayable",
      "type": "function"
    },
    {
      "inputs": [
        {
          "internalType": "address",
          "name": "_boosterContract",
          "type": "address"
        }
      ],
      "name": "setBoosterContract",
      "outputs": [],
      "stateMutability": "nonpayable",
      "type": "function"
    },
    {
      "inputs": [],
      "name": "symbol",
      "outputs": [
        {
          "internalType": "string",
          "name": "",
          "type": "string"
        }
      ],
      "stateMutability": "view",
      "type": "function"
    },
    {
      "inputs": [],
      "name": "totalSupply",
      "outputs": [
        {
          "internalType": "uint256",
          "name": "",
          "type": "uint256"
        }
      ],
      "stateMutability": "view",
      "type": "function"
    },
    {
      "inputs": [
        {
          "internalType": "address",
          "name": "to",
          "type": "address"
        },
        {
          "internalType": "uint256",
          "name": "amount",
          "type": "uint256"
        }
      ],
      "name": "transfer",
      "outputs": [
        {
          "internalType": "bool",
          "name": "",
          "type": "bool"
        }
      ],
      "stateMutability": "nonpayable",
      "type": "function"
    },
    {
      "inputs": [
        {
          "internalType": "address",
          "name": "from",
          "type": "address"
        },
        {
          "internalType": "address",
          "name": "to",
          "type": "address"
        },
        {
          "internalType": "uint256",
          "name": "amount",
          "type": "uint256"
        }
      ],
      "name": "transferFrom",
      "outputs": [
        {
          "internalType": "bool",
          "name": "",
          "type": "bool"
        }
      ],
      "stateMutability": "nonpayable",
      "type": "function"
    },
    {
      "inputs": [
        {
          "internalType": "address",
          "name": "newOwner",
          "type": "address"
        }
      ],
      "name": "transferOwnership",
      "outputs": [],
      "stateMutability": "nonpayable",
      "type": "function"
    }
  ],
  "bytecode": "0x60806040523480156200001157600080fd5b50604051620012793803806200127983398101604081905262000034916200021b565b6040518060400160405280601c81526020017f457069632046616374696f6e20436f6d6d756e69747920546f6b656e000000008152506040518060400160405280600381526020016245464360e81b8152508160039081620000979190620002d9565b506004620000a68282620002d9565b505050620000c3620000bd620000fa60201b60201c565b620000fe565b620000e833620000d66012600a620004ba565b620000e29084620004d2565b62000150565b620000f333620000fe565b5062000502565b3390565b600580546001600160a01b038381166001600160a01b0319831681179093556040519116919082907f8be0079c531659141344cd1fd0a4f28419497f9722a3daafe3b4186f6b6457e090600090a35050565b6001600160a01b038216620001ab5760405162461bcd60e51b815260206004820152601f60248201527f45524332303a206d696e7420746f20746865207a65726f206164647265737300604482015260640160405180910390fd5b8060026000828254620001bf9190620004ec565b90915550506001600160a01b038216600081815260208181526040808320805486019055518481527fddf252ad1be2c89b69c2b068fc378daa952ba7f163c4a11628f55a4df523b3ef910160405180910390a35050565b505050565b6000602082840312156200022e57600080fd5b5051919050565b634e487b7160e01b600052604160045260246000fd5b600181811c908216806200026057607f821691505b6020821081036200028157634e487b7160e01b600052602260045260246000fd5b50919050565b601f8211156200021657600081815260208120601f850160051c81016020861015620002b05750805b601f850160051c820191505b81811015620002d157828155600101620002bc565b505050505050565b81516001600160401b03811115620002f557620002f562000235565b6200030d816200030684546200024b565b8462000287565b602080601f8311600181146200034557600084156200032c5750858301515b600019600386901b1c1916600185901b178555620002d1565b600085815260208120601f198616915b82811015620003765788860151825594840194600190910190840162000355565b5085821015620003955787850151600019600388901b60f8161c191681555b5050505050600190811b01905550565b634e487b7160e01b600052601160045260246000fd5b600181815b80851115620003fc578160001904821115620003e057620003e0620003a5565b80851615620003ee57918102915b93841c9390800290620003c0565b509250929050565b6000826200041557506001620004b4565b816200042457506000620004b4565b81600181146200043d5760028114620004485762000468565b6001915050620004b4565b60ff8411156200045c576200045c620003a5565b50506001821b620004b4565b5060208310610133831016604e8410600b84101617156200048d575081810a620004b4565b620004998383620003bb565b8060001904821115620004b057620004b0620003a5565b0290505b92915050565b6000620004cb60ff84168362000404565b9392505050565b8082028115828204841417620004b457620004b4620003a5565b80820180821115620004b457620004b4620003a5565b610d6780620005126000396000f3fe608060405234801561001057600080fd5b50600436106101165760003560e01c8063715018a6116100a2578063a457c2d711610071578063a457c2d714610240578063a9059cbb14610253578063dd62ed3e14610266578063ecf7a44714610279578063f2fde38b1461028c57600080fd5b8063715018a61461020c5780638da5cb5b1461021457806395d89b411461022557806397ce0a271461022d57600080fd5b806327f7be99116100e957806327f7be9914610181578063313ce567146101ac57806339509351146101bb57806340c10f19146101ce57806370a08231146101e357600080fd5b806306fdde031461011b578063095ea7b31461013957806318160ddd1461015c57806323b872dd1461016e575b600080fd5b61012361029f565b6040516101309190610bb1565b60405180910390f35b61014c610147366004610c1b565b610331565b6040519015158152602001610130565b6002545b604051908152602001610130565b61014c61017c366004610c45565b61034b565b600654610194906001600160a01b031681565b6040516001600160a01b039091168152602001610130565b60405160128152602001610130565b61014c6101c9366004610c1b565b61036f565b6101e16101dc366004610c1b565b610391565b005b6101606101f1366004610c81565b6001600160a01b031660009081526020819052604090205490565b6101e16103a7565b6005546001600160a01b0316610194565b6101236103bb565b6101e161023b366004610c81565b6103ca565b61014c61024e366004610c1b565b61042e565b61014c610261366004610c1b565b6104ae565b610160610274366004610ca3565b6104bc565b6101e1610287366004610c1b565b6104e7565b6101e161029a366004610c81565b610560565b6060600380546102ae90610cd6565b80601f01602080910402602001604051908101604052809291908181526020018280546102da90610cd6565b80156103275780601f106102fc57610100808354040283529160200191610327565b820191906000526020600020905b81548152906001019060200180831161030a57829003601f168201915b5050505050905090565b60003361033f8185856105d9565b60019150505b92915050565b6000336103598582856106fe565b610364858585610778565b506001949350505050565b60003361033f81858561038283836104bc565b61038c9190610d10565b6105d9565b61039961091c565b6103a38282610976565b5050565b6103af61091c565b6103b96000610a35565b565b6060600480546102ae90610cd6565b6103d261091c565b6006546040516001600160a01b038084169216907f06858e8a4a6abed3c79929710bd1bcd31a15eb27361caaa227fe3bc27103647490600090a3600680546001600160a01b0319166001600160a01b0392909216919091179055565b6000338161043c82866104bc565b9050838110156104a15760405162461bcd60e51b815260206004820152602560248201527f45524332303a2064656372656173656420616c6c6f77616e63652062656c6f77604482015264207a65726f60d81b60648201526084015b60405180910390fd5b61036482868684036105d9565b60003361033f818585610778565b6001600160a01b03918216600090815260016020908152604080832093909416825291909152205490565b6006546001600160a01b031633146105565760405162461bcd60e51b815260206004820152602c60248201527f454643546f6b656e3a2063616c6c6572206973206e6f742074686520626f6f7360448201526b1d195c8818dbdb9d1c9858dd60a21b6064820152608401610498565b6103a38282610a87565b61056861091c565b6001600160a01b0381166105cd5760405162461bcd60e51b815260206004820152602660248201527f4f776e61626c653a206e6577206f776e657220697320746865207a65726f206160448201526564647265737360d01b6064820152608401610498565b6105d681610a35565b50565b6001600160a01b03831661063b5760405162461bcd60e51b8152602060048201526024808201527f45524332303a20617070726f76652066726f6d20746865207a65726f206164646044820152637265737360e01b6064820152608401610498565b6001600160a01b03821661069c5760405162461bcd60e51b815260206004820152602260248201527f45524332303a20617070726f766520746f20746865207a65726f206164647265604482015261737360f01b6064820152608401610498565b6001600160a01b0383811660008181526001602090815260408083209487168084529482529182902085905590518481527f8c5be1e5ebec7d5bd14f71427d1e84f3dd0314c0f7b2291e5b200ac8c7c3b92591015b60405180910390a3505050565b600061070a84846104bc565b9050600019811461077257818110156107655760405162461bcd60e51b815260206004820152601d60248201527f45524332303a20696e73756666696369656e7420616c6c6f77616e63650000006044820152606401610498565b61077284848484036105d9565b50505050565b6001600160a01b0383166107dc5760405162461bcd60e51b815260206004820152602560248201527f45524332303a207472616e736665722066726f6d20746865207a65726f206164604482015264647265737360d81b6064820152608401610498565b6001600160a01b03821661083e5760405162461bcd60e51b815260206004820152602360248201527f45524332303a207472616e7366657220746f20746865207a65726f206164647260448201526265737360e81b6064820152608401610498565b6001600160a01b038316600090815260208190526040902054818110156108b65760405162461bcd60e51b815260206004820152602660248201527f45524332303a207472616e7366657220616d6f756e7420657863656564732062604482015265616c616e636560d01b6064820152608401610498565b6001600160a01b03848116600081815260208181526040808320878703905593871680835291849020805487019055925185815290927fddf252ad1be2c89b69c2b068fc378daa952ba7f163c4a11628f55a4df523b3ef910160405180910390a3610772565b6005546001600160a01b031633146103b95760405162461bcd60e51b815260206004820181905260248201527f4f776e61626c653a2063616c6c6572206973206e6f7420746865206f776e65726044820152606401610498565b6001600160a01b0382166109cc5760405162461bcd60e51b815260206004820152601f60248201527f45524332303a206d696e7420746f20746865207a65726f2061646472657373006044820152606401610498565b80600260008282546109de9190610d10565b90915550506001600160a01b038216600081815260208181526040808320805486019055518481527fddf252ad1be2c89b69c2b068fc378daa952ba7f163c4a11628f55a4df523b3ef910160405180910390a35050565b600580546001600160a01b038381166001600160a01b0319831681179093556040519116919082907f8be0079c531659141344cd1fd0a4f28419497f9722a3daafe3b4186f6b6457e090600090a35050565b6001600160a01b038216610ae75760405162461bcd60e51b815260206004820152602160248201527f45524332303a206275726e2066726f6d20746865207a65726f206164647265736044820152607360f81b6064820152608401610498565b6001600160a01b03821660009081526020819052604090205481811015610b5b5760405162461bcd60e51b815260206004820152602260248201527f45524332303a206275726e20616d6f756e7420657863656564732062616c616e604482015261636560f01b6064820152608401610498565b6001600160a01b0383166000818152602081815260408083208686039055600280548790039055518581529192917fddf252ad1be2c89b69c2b068fc378daa952ba7f163c4a11628f55a4df523b3ef91016106f1565b600060208083528351808285015260005b81811015610bde57858101830151858201604001528201610bc2565b506000604082860101526040601f19601f8301168501019250505092915050565b80356001600160a01b0381168114610c1657600080fd5b919050565b60008060408385031215610c2e57600080fd5b610c3783610bff565b946020939093013593505050565b600080600060608486031215610c5a57600080fd5b610c6384610bff565b9250610c7160208501610bff565b9150604084013590509250925092565b600060208284031215610c9357600080fd5b610c9c82610bff565b9392505050565b60008060408385031215610cb657600080fd5b610cbf83610bff565b9150610ccd60208401610bff565b90509250929050565b600181811c90821680610cea57607f821691505b602082108103610d0a57634e487b7160e01b600052602260045260246000fd5b50919050565b8082018082111561034557634e487b7160e01b600052601160045260246000fdfea2646970667358221220d1d8316b4d6afc3e729f5d44506b264a4c6af06f644b9e8c00210772c874988864736f6c63430008130033",
  "linkReferences": {},
  "deployedLinkReferences": {}
}