{"contracts/EFCBooster.sol":{"EFCBooster":{"abi":[{"inputs":[{"internalType":"address","name":"_tokenContract","type":"address"},{"internalType":"address","name":"_cardContract","type":"address"},{"internalType":"string","name":"_baseURI","type":"string"}],"stateMutability":"nonpayable","type":"constructor"},{"anonymous":false,"inputs":[{"indexed":false,"internalType":"string","name":"newBaseURI","type":"string"}],"name":"BaseURIUpdated","type":"event"},{"anonymous":false,"inputs":[{"indexed":true,"internalType":"address","name":"buyer","type":"address"},{"indexed":false,"internalType":"string","name":"boosterType","type":"string"},{"indexed":false,"internalType":"uint256","name":"price","type":"uint256"}],"name":"BoosterPurchased","type":"event"},{"anonymous":false,"inputs":[{"indexed":false,"internalType":"string","name":"boosterType","type":"string"},{"indexed":false,"internalType":"uint256","name":"price","type":"uint256"},{"indexed":false,"internalType":"uint256","name":"cardCount","type":"uint256"}],"name":"BoosterUpdated","type":"event"},{"anonymous":false,"inputs":[{"indexed":true,"internalType":"uint256","name":"tokenId","type":"uint256"},{"indexed":true,"internalType":"address","name":"owner","type":"address"},{"indexed":false,"internalType":"string","name":"rarity","type":"string"}],"name":"CardGenerated","type":"event"},{"anonymous":false,"inputs":[{"indexed":true,"internalType":"address","name":"previousOwner","type":"address"},{"indexed":true,"internalType":"address","name":"newOwner","type":"address"}],"name":"OwnershipTransferred","type":"event"},{"anonymous":false,"inputs":[{"indexed":false,"internalType":"string","name":"boosterType","type":"string"}],"name":"RarityProbabilitiesUpdated","type":"event"},{"inputs":[{"internalType":"uint256","name":"","type":"uint256"}],"name":"availableRarities","outputs":[{"internalType":"string","name":"","type":"string"}],"stateMutability":"view","type":"function"},{"inputs":[],"name":"baseURI","outputs":[{"internalType":"string","name":"","type":"string"}],"stateMutability":"view","type":"function"},{"inputs":[{"internalType":"string","name":"","type":"string"}],"name":"boosters","outputs":[{"internalType":"string","name":"name","type":"string"},{"internalType":"uint256","name":"price","type":"uint256"},{"internalType":"uint256","name":"cardCount","type":"uint256"},{"internalType":"bool","name":"isActive","type":"bool"}],"stateMutability":"view","type":"function"},{"inputs":[],"name":"cardContract","outputs":[{"internalType":"contract EFCCard","name":"","type":"address"}],"stateMutability":"view","type":"function"},{"inputs":[{"internalType":"string","name":"boosterType","type":"string"}],"name":"getBoosterCardCount","outputs":[{"internalType":"uint256","name":"","type":"uint256"}],"stateMutability":"view","type":"function"},{"inputs":[{"internalType":"string","name":"boosterType","type":"string"}],"name":"getBoosterPrice","outputs":[{"internalType":"uint256","name":"","type":"uint256"}],"stateMutability":"view","type":"function"},{"inputs":[],"name":"getLastPurchasedCards","outputs":[{"internalType":"uint256[]","name":"","type":"uint256[]"}],"stateMutability":"view","type":"function"},{"inputs":[],"name":"owner","outputs":[{"internalType":"address","name":"","type":"address"}],"stateMutability":"view","type":"function"},{"inputs":[{"internalType":"string","name":"boosterType","type":"string"}],"name":"purchaseBooster","outputs":[{"internalType":"uint256[]","name":"","type":"uint256[]"}],"stateMutability":"nonpayable","type":"function"},{"inputs":[{"internalType":"string","name":"","type":"string"},{"internalType":"string","name":"","type":"string"}],"name":"rarityProbabilities","outputs":[{"internalType":"uint256","name":"","type":"uint256"}],"stateMutability":"view","type":"function"},{"inputs":[],"name":"renounceOwnership","outputs":[],"stateMutability":"nonpayable","type":"function"},{"inputs":[{"internalType":"string","name":"_baseURI","type":"string"}],"name":"setBaseURI","outputs":[],"stateMutability":"nonpayable","type":"function"},{"inputs":[{"internalType":"address","name":"_cardContract","type":"address"}],"name":"setCardContract","outputs":[],"stateMutability":"nonpayable","type":"function"},{"inputs":[{"internalType":"address","name":"_tokenContract","type":"address"}],"name":"setTokenContract","outputs":[],"stateMutability":"nonpayable","type":"function"},{"inputs":[],"name":"tokenContract","outputs":[{"internalType":"contract EFCToken","name":"","type":"address"}],"stateMutability":"view","type":"function"},{"inputs":[{"internalType":"address","name":"newOwner","type":"address"}],"name":"transferOwnership","outputs":[],"stateMutability":"nonpayable","type":"function"},{"inputs":[{"internalType":"string","name":"boosterType","type":"string"},{"internalType":"string","name":"name","type":"string"},{"internalType":"uint256","name":"price","type":"uint256"},{"internalType":"uint256","name":"cardCount","type":"uint256"},{"internalType":"bool","name":"isActive","type":"bool"}],"name":"updateBooster","outputs":[],"stateMutability":"nonpayable","type":"function"},{"inputs":[{"internalType":"string","name":"boosterType","type":"string"},{"internalType":"uint256[]","name":"probabilities","type":"uint256[]"}],"name":"updateRarityProbabilities","outputs":[],"stateMutability":"nonpayable","type":"function"}],"evm":{"bytecode":{"linkReferences":{},"object":"60066101009081526531b7b6b6b7b760d11b6101205260809081526004610140818152637261726560e01b6101605260a052610180818152636570696360e01b6101a05260c05261020060405260096101c0908152686c6567656e6461727960b81b6101e05260e0526200007691600791620007d9565b503480156200008457600080fd5b506040516200282938038062002829833981016040819052620000a791620008e3565b620000b2336200010f565b600180546001600160a01b038086166001600160a01b03199283161790925560028054928516929091169190911790556006620000f0828262000a6c565b50620000fc336200010f565b620001066200015f565b50505062000b38565b600080546001600160a01b038381166001600160a01b0319831681178455604051919092169283917f8be0079c531659141344cd1fd0a4f28419497f9722a3daafe3b4186f6b6457e09190a35050565b6040805160c0810182526010608082019081526f109bdbdcdd195c8814dd185b99185c9960821b60a0830152815268056bc75e2d6310000060208201526005818301526001606082015290516531b7b6b6b7b760d11b815260039060060190815260405190819003602001902081518190620001dc908262000a6c565b506020820151600182015560408083015160028301556060909201516003909101805460ff1916911515919091179055516531b7b6b6b7b760d11b81526046906004906006019081526040519081900360200181206531b7b6b6b7b760d11b825290600601908152604051908190036020018120919091556531b7b6b6b7b760d11b8152601490600490600601908152604051908190036020018120637261726560e01b825290600401908152604051908190036020018120919091556531b7b6b6b7b760d11b8152600890600490600601908152604051908190036020018120636570696360e01b825290600401908152604051908190036020018120919091556531b7b6b6b7b760d11b8152600290600490600601908152604051908190036020018120686c6567656e6461727960b81b82529060090190815260408051602092819003830181209390935560c083018152600f608084019081526e426f6f73746572205072656d69756d60881b60a08501528352680d8d726b7177a80000918301919091526005828201526001606083015251637261726560e01b815260039060040190815260405190819003602001902081518190620003a1908262000a6c565b506020820151600182015560408083015160028301556060909201516003909101805460ff191691151591909117905551637261726560e01b815260379060049081019081526040519081900360200181206531b7b6b6b7b760d11b82529060060190815260405190819003602001812091909155637261726560e01b81526019906004908101908152604051908190036020018120637261726560e01b82529060040190815260405190819003602001812091909155637261726560e01b8152600f906004908101908152604051908190036020018120636570696360e01b82529060040190815260405190819003602001812091909155637261726560e01b81526005906004908101908152604051908190036020018120686c6567656e6461727960b81b82529060090190815260408051602092819003830181209390935560c0830181526010608084019081526f426f6f7374657220556c74696d61746560801b60a08501528352681b1ae4d6e2ef500000918301919091526005828201526001606083015251636570696360e01b8152600390600401908152604051908190036020019020815181906200055b908262000a6c565b5060208281015160018381019190915560408085015160028501556060948501516003948501805460ff19169115159190911790558051636570696360e01b8082526004808301819052835192839003602490810184206531b7b6b6b7b760d11b8552600685015284519384900360260184206028905582845283820182905284519384900381018420637261726560e01b855284830152845193849003810184206019908190558385528483018390528551948590038201852084865285840152855194859003820185205591835282810152825191829003018120686c6567656e6461727960b81b80835260098084019290925283519283900360299081018420600a905560c08401855260126080850190815271426f6f73746572204c6567656e646169726560701b60a08601528452683635c9adc5dea0000096840196909652600583850152968201939093528151958652918501939093529151928390030190912081518190620006d2908262000a6c565b506020820151600182015560408083015160028301556060909201516003909101805460ff19169115159190911790558051686c6567656e6461727960b81b80825260046009808401829052845193849003602990810185206531b7b6b6b7b760d11b8652600686015285519485900360260185206014905583855284820183905285519485900381018520637261726560e01b86528584015285519485900360249081018620601e905584865285830184905286519586900382018620636570696360e01b8752868501528651958690030185206023905583855284820192909252845193849003820184209284528301919091529151908190039091019020600f9055565b82805482825590600052602060002090810192821562000824579160200282015b8281111562000824578251829062000813908262000a6c565b5091602001919060010190620007fa565b506200083292915062000836565b5090565b80821115620008325760006200084d828262000857565b5060010162000836565b5080546200086590620009dd565b6000825580601f1062000876575050565b601f01602090049060005260206000209081019062000896919062000899565b50565b5b808211156200083257600081556001016200089a565b80516001600160a01b0381168114620008c857600080fd5b919050565b634e487b7160e01b600052604160045260246000fd5b600080600060608486031215620008f957600080fd5b6200090484620008b0565b9250602062000915818601620008b0565b60408601519093506001600160401b03808211156200093357600080fd5b818701915087601f8301126200094857600080fd5b8151818111156200095d576200095d620008cd565b604051601f8201601f19908116603f01168101908382118183101715620009885762000988620008cd565b816040528281528a86848701011115620009a157600080fd5b600093505b82841015620009c55784840186015181850187015292850192620009a6565b60008684830101528096505050505050509250925092565b600181811c90821680620009f257607f821691505b60208210810362000a1357634e487b7160e01b600052602260045260246000fd5b50919050565b601f82111562000a6757600081815260208120601f850160051c8101602086101562000a425750805b601f850160051c820191505b8181101562000a635782815560010162000a4e565b5050505b505050565b81516001600160401b0381111562000a885762000a88620008cd565b62000aa08162000a998454620009dd565b8462000a19565b602080601f83116001811462000ad8576000841562000abf5750858301515b600019600386901b1c1916600185901b17855562000a63565b600085815260208120601f198616915b8281101562000b095788860151825594840194600190910190840162000ae8565b508582101562000b285787850151600019600388901b60f8161c191681555b5050505050600190811b01905550565b611ce18062000b486000396000f3fe608060405234801561001057600080fd5b50600436106101155760003560e01c80636e0bbe66116100a2578063bbcd5bbe11610071578063bbcd5bbe14610285578063bec251a214610298578063c030d8b8146102ab578063d8ced56a146102be578063f2fde38b146102c657600080fd5b80636e0bbe6614610246578063715018a6146102595780638da5cb5b14610261578063ac82151e1461027257600080fd5b806355f804b3116100e957806355f804b3146101d35780635780e31e146101e857806359116fb31461020b578063693bd2d01461022b5780636c0360eb1461023e57600080fd5b8062e7df991461011a5780633a6d9ba614610175578063471ce26c1461019557806355a373d6146101a8575b600080fd5b61016261012836600461159c565b8151602081840181018051600482529282019482019490942091909352815180830184018051928152908401929093019190912091525481565b6040519081526020015b60405180910390f35b610188610183366004611600565b6102d9565b60405161016c919061163d565b6101626101a3366004611600565b61051e565b6001546101bb906001600160a01b031681565b6040516001600160a01b03909116815260200161016c565b6101e66101e1366004611600565b61058b565b005b6101fb6101f6366004611600565b6105da565b60405161016c94939291906116d1565b61021e610219366004611702565b61069a565b60405161016c919061171b565b6002546101bb906001600160a01b031681565b61021e610746565b6101e6610254366004611735565b610753565b6101e661081c565b6000546001600160a01b03166101bb565b6101e66102803660046117c6565b610830565b6101e6610293366004611890565b6109f2565b6101626102a6366004611600565b610a1c565b6101e66102b9366004611890565b610a89565b610188610ab3565b6101e66102d4366004611890565b610b14565b60606003826040516102eb91906118b9565b9081526040519081900360200190206003015460ff166103265760405162461bcd60e51b815260040161031d906118d5565b60405180910390fd5b600060038360405161033891906118b9565b9081526020016040518091039020600101549050600060038460405161035e91906118b9565b908152604051908190036020018120600201546001546370a0823160e01b835233600484015290925083916001600160a01b03909116906370a0823190602401602060405180830381865afa1580156103bb573d6000803e3d6000fd5b505050506040513d601f19601f820116820180604052508101906103df9190611921565b101561043c5760405162461bcd60e51b815260206004820152602660248201527f454643426f6f737465723a20696e73756666696369656e7420746f6b656e2062604482015265616c616e636560d01b606482015260840161031d565b60015460405163ecf7a44760e01b8152336004820152602481018490526001600160a01b039091169063ecf7a44790604401600060405180830381600087803b15801561048857600080fd5b505af115801561049c573d6000803e3d6000fd5b5050505060006104ad338684610b8d565b33600090815260056020908152604090912082519293506104d2929091840190611485565b50336001600160a01b03167fa11c5622469c7f89aaf630b359fe355fbb52d5f03d0362634b2823e6bb08534f868560405161050e92919061193a565b60405180910390a2949350505050565b600060038260405161053091906118b9565b9081526040519081900360200190206003015460ff166105625760405162461bcd60e51b815260040161031d906118d5565b60038260405161057291906118b9565b9081526020016040518091039020600101549050919050565b610593610d31565b600661059f82826119e5565b507f6741b2fc379fad678116fe3d4d4b9a1a184ab53ba36b86ad0fa66340b1ab41ad816040516105cf919061171b565b60405180910390a150565b80516020818301810180516003825292820191909301209152805481906106009061195c565b80601f016020809104026020016040519081016040528092919081815260200182805461062c9061195c565b80156106795780601f1061064e57610100808354040283529160200191610679565b820191906000526020600020905b81548152906001019060200180831161065c57829003601f168201915b50505050600183015460028401546003909401549293909290915060ff1684565b600781815481106106aa57600080fd5b9060005260206000200160009150905080546106c59061195c565b80601f01602080910402602001604051908101604052809291908181526020018280546106f19061195c565b801561073e5780601f106107135761010080835404028352916020019161073e565b820191906000526020600020905b81548152906001019060200180831161072157829003601f168201915b505050505081565b600680546106c59061195c565b61075b610d31565b604051806080016040528085815260200184815260200183815260200182151581525060038660405161078e91906118b9565b908152604051908190036020019020815181906107ab90826119e5565b506020820151600182015560408083015160028301556060909201516003909101805460ff1916911515919091179055517f5bd3e277c56e42f42264f4ac4bf6d38bbc2f7f65184813f39778254b85d01e909061080d90879086908690611aa5565b60405180910390a15050505050565b610824610d31565b61082e6000610d8b565b565b610838610d31565b60075481511461089b5760405162461bcd60e51b815260206004820152602860248201527f454643426f6f737465723a20696e76616c69642070726f626162696c697469656044820152670e640d8cadccee8d60c31b606482015260840161031d565b6000805b8251811015610953578281815181106108ba576108ba611aca565b6020026020010151826108cd9190611af6565b91508281815181106108e1576108e1611aca565b60200260200101516004856040516108f991906118b9565b90815260200160405180910390206007838154811061091a5761091a611aca565b906000526020600020016040516109319190611b7c565b908152604051908190036020019020558061094b81611b88565b91505061089f565b50806064146109b65760405162461bcd60e51b815260206004820152602960248201527f454643426f6f737465723a2070726f626162696c6974696573206d75737420736044820152680756d20746f203130360bc1b606482015260840161031d565b7fb72721a3687fa6e61c8aec9a151c178aa69ef5c315a77cbee2e153bb6c930632836040516109e5919061171b565b60405180910390a1505050565b6109fa610d31565b600180546001600160a01b0319166001600160a01b0392909216919091179055565b6000600382604051610a2e91906118b9565b9081526040519081900360200190206003015460ff16610a605760405162461bcd60e51b815260040161031d906118d5565b600382604051610a7091906118b9565b9081526020016040518091039020600201549050919050565b610a91610d31565b600280546001600160a01b0319166001600160a01b0392909216919091179055565b33600090815260056020908152604091829020805483518184028101840190945280845260609392830182828015610b0a57602002820191906000526020600020905b815481526020019060010190808311610af6575b5050505050905090565b610b1c610d31565b6001600160a01b038116610b815760405162461bcd60e51b815260206004820152602660248201527f4f776e61626c653a206e6577206f776e657220697320746865207a65726f206160448201526564647265737360d01b606482015260840161031d565b610b8a81610d8b565b50565b606060008267ffffffffffffffff811115610baa57610baa6114e5565b604051908082528060200260200182016040528015610bd3578160200160208202803683370190505b50905060005b83811015610d28576000610bec86610ddb565b90506000610bf982610f83565b90506000610c0683611277565b90506000600260009054906101000a90046001600160a01b03166001600160a01b031663de7bd8f78b8486600001518760200151886040015189606001518a608001516040518863ffffffff1660e01b8152600401610c6b9796959493929190611ba1565b6020604051808303816000875af1158015610c8a573d6000803e3d6000fd5b505050506040513d601f19601f82011682018060405250810190610cae9190611921565b905080868681518110610cc357610cc3611aca565b602002602001018181525050896001600160a01b0316817f69ce09a1b4f78ba0df8eb79eac9c07cbba3eaa23fb89b100848766b51efbc4e586604051610d09919061171b565b60405180910390a3505050508080610d2090611b88565b915050610bd9565b50949350505050565b6000546001600160a01b0316331461082e5760405162461bcd60e51b815260206004820181905260248201527f4f776e61626c653a2063616c6c6572206973206e6f7420746865206f776e6572604482015260640161031d565b600080546001600160a01b038381166001600160a01b0319831681178455604051919092169283917f8be0079c531659141344cd1fd0a4f28419497f9722a3daafe3b4186f6b6457e09190a35050565b606060006064424433604051602001610e1493929190928352602083019190915260601b6001600160601b031916604082015260540190565b6040516020818303038152906040528051906020012060001c610e379190611c14565b90506000805b600754811015610f5d57600060078281548110610e5c57610e5c611aca565b906000526020600020018054610e719061195c565b80601f0160208091040260200160405190810160405280929190818152602001828054610e9d9061195c565b8015610eea5780601f10610ebf57610100808354040283529160200191610eea565b820191906000526020600020905b815481529060010190602001808311610ecd57829003601f168201915b50505050509050600486604051610f0191906118b9565b908152602001604051809103902081604051610f1d91906118b9565b90815260200160405180910390205483610f379190611af6565b925082841015610f4a5795945050505050565b5080610f5581611b88565b915050610e3d565b505060408051808201909152600681526531b7b6b6b7b760d11b60208201529392505050565b610fb56040518060a0016040528060608152602001600081526020016000815260200160008152602001600081525090565b6000610fe283604051806040016040528060098152602001686c6567656e6461727960b81b8152506112fe565b15610fef57506003611059565b61101583604051806040016040528060048152602001636570696360e01b8152506112fe565b1561102257506002611059565b61104883604051806040016040528060048152602001637261726560e01b8152506112fe565b156110555750600f611059565b50600a5b6040516561747461636b60d01b60208201524260268201526001600160601b03193360601b166046820152600090601e90605a016040516020818303038152906040528051906020012060001c6110b09190611c14565b6110bb90600a611af6565b60405166646566656e736560c81b60208201524260278201526001600160601b03193360601b166047820152909150600090601e90605b016040516020818303038152906040528051906020012060001c6111169190611c14565b61112190600a611af6565b604051646d6167696360d81b60208201524260258201526001600160601b03193360601b166045820152909150600090601e906059016040516020818303038152906040528051906020012060001c61117a9190611c14565b61118590600a611af6565b604051641cdc19595960da1b60208201524260258201526001600160601b03193360601b166045820152909150600090601e906059016040516020818303038152906040528051906020012060001c6111de9190611c14565b6111e990600a611af6565b9050600a6111f78686611c28565b6112019190611c3f565b9350600a61120f8685611c28565b6112199190611c3f565b9250600a6112278684611c28565b6112319190611c3f565b9150600a61123f8683611c28565b6112499190611c3f565b6040805160a08101825298895260208901959095529387019290925260608601525060808401525090919050565b606060004244336040516020016112ae93929190928352602083019190915260601b6001600160601b031916604082015260540190565b6040516020818303038152906040528051906020012060001c90506006836112d58361131a565b6040516020016112e793929190611c53565b604051602081830303815290604052915050919050565b6000818051906020012083805190602001201490505b92915050565b60606000611327836113ad565b600101905060008167ffffffffffffffff811115611347576113476114e5565b6040519080825280601f01601f191660200182016040528015611371576020820181803683370190505b5090508181016020015b600019016f181899199a1a9b1b9c1cb0b131b232b360811b600a86061a8153600a850494508461137b57509392505050565b60008072184f03e93ff9f4daa797ed6e38ed64bf6a1f0160401b83106113ec5772184f03e93ff9f4daa797ed6e38ed64bf6a1f0160401b830492506040015b6d04ee2d6d415b85acef81000000008310611418576d04ee2d6d415b85acef8100000000830492506020015b662386f26fc10000831061143657662386f26fc10000830492506010015b6305f5e100831061144e576305f5e100830492506008015b612710831061146257612710830492506004015b60648310611474576064830492506002015b600a83106113145760010192915050565b8280548282559060005260206000209081019282156114c0579160200282015b828111156114c05782518255916020019190600101906114a5565b506114cc9291506114d0565b5090565b5b808211156114cc57600081556001016114d1565b634e487b7160e01b600052604160045260246000fd5b604051601f8201601f1916810167ffffffffffffffff81118282101715611524576115246114e5565b604052919050565b600082601f83011261153d57600080fd5b813567ffffffffffffffff811115611557576115576114e5565b61156a601f8201601f19166020016114fb565b81815284602083860101111561157f57600080fd5b816020850160208301376000918101602001919091529392505050565b600080604083850312156115af57600080fd5b823567ffffffffffffffff808211156115c757600080fd5b6115d38683870161152c565b935060208501359150808211156115e957600080fd5b506115f68582860161152c565b9150509250929050565b60006020828403121561161257600080fd5b813567ffffffffffffffff81111561162957600080fd5b6116358482850161152c565b949350505050565b6020808252825182820181905260009190848201906040850190845b8181101561167557835183529284019291840191600101611659565b50909695505050505050565b60005b8381101561169c578181015183820152602001611684565b50506000910152565b600081518084526116bd816020860160208601611681565b601f01601f19169290920160200192915050565b6080815260006116e460808301876116a5565b60208301959095525060408101929092521515606090910152919050565b60006020828403121561171457600080fd5b5035919050565b60208152600061172e60208301846116a5565b9392505050565b600080600080600060a0868803121561174d57600080fd5b853567ffffffffffffffff8082111561176557600080fd5b61177189838a0161152c565b9650602088013591508082111561178757600080fd5b506117948882890161152c565b9450506040860135925060608601359150608086013580151581146117b857600080fd5b809150509295509295909350565b600080604083850312156117d957600080fd5b823567ffffffffffffffff808211156117f157600080fd5b6117fd8683870161152c565b935060209150818501358181111561181457600080fd5b8501601f8101871361182557600080fd5b803582811115611837576118376114e5565b8060051b92506118488484016114fb565b818152928201840192848101908985111561186257600080fd5b928501925b8484101561188057833582529285019290850190611867565b8096505050505050509250929050565b6000602082840312156118a257600080fd5b81356001600160a01b038116811461172e57600080fd5b600082516118cb818460208701611681565b9190910192915050565b6020808252602c908201527f454643426f6f737465723a20696e76616c6964206f7220696e6163746976652060408201526b626f6f73746572207479706560a01b606082015260800190565b60006020828403121561193357600080fd5b5051919050565b60408152600061194d60408301856116a5565b90508260208301529392505050565b600181811c9082168061197057607f821691505b60208210810361199057634e487b7160e01b600052602260045260246000fd5b50919050565b601f8211156119e057600081815260208120601f850160051c810160208610156119bd5750805b601f850160051c820191505b818110156119dc578281556001016119c9565b5050505b505050565b815167ffffffffffffffff8111156119ff576119ff6114e5565b611a1381611a0d845461195c565b84611996565b602080601f831160018114611a485760008415611a305750858301515b600019600386901b1c1916600185901b1785556119dc565b600085815260208120601f198616915b82811015611a7757888601518255948401946001909101908401611a58565b5085821015611a955787850151600019600388901b60f8161c191681555b5050505050600190811b01905550565b606081526000611ab860608301866116a5565b60208301949094525060400152919050565b634e487b7160e01b600052603260045260246000fd5b634e487b7160e01b600052601160045260246000fd5b8082018082111561131457611314611ae0565b60008154611b168161195c565b60018281168015611b2e5760018114611b4357611b72565b60ff1984168752821515830287019450611b72565b8560005260208060002060005b85811015611b695781548a820152908401908201611b50565b50505082870194505b5050505092915050565b600061172e8284611b09565b600060018201611b9a57611b9a611ae0565b5060010190565b6001600160a01b038816815260e060208201819052600090611bc5908301896116a5565b8281036040840152611bd781896116a5565b9150508560608301528460808301528360a08301528260c083015298975050505050505050565b634e487b7160e01b600052601260045260246000fd5b600082611c2357611c23611bfe565b500690565b808202811582820484141761131457611314611ae0565b600082611c4e57611c4e611bfe565b500490565b6000611c5f8286611b09565b8451611c6f818360208901611681565b602f60f81b91019081528351611c8c816001840160208801611681565b64173539b7b760d91b600192909101918201526006019594505050505056fea264697066735822122043f6506135492cba697bffd2f9dc794d86a37d672c46f250822b44d7908be46b64736f6c63430008130033","opcodes":"PUSH1 0x6 PUSH2 0x100 SWAP1 DUP2 MSTORE PUSH6 0x31B7B6B6B7B7 PUSH1 0xD1 SHL PUSH2 0x120 MSTORE PUSH1 0x80 SWAP1 DUP2 MSTORE PUSH1 0x4 PUSH2 0x140 DUP2 DUP2 MSTORE PUSH4 0x72617265 PUSH1 0xE0 SHL PUSH2 0x160 MSTORE PUSH1 0xA0 MSTORE PUSH2 0x180 DUP2 DUP2 MSTORE PUSH4 0x65706963 PUSH1 0xE0 SHL PUSH2 0x1A0 MSTORE PUSH1 0xC0 MSTORE PUSH2 0x200 PUSH1 0x40 MSTORE PUSH1 0x9 PUSH2 0x1C0 SWAP1 DUP2 MSTORE PUSH9 0x6C6567656E64617279 PUSH1 0xB8 SHL PUSH2 0x1E0 MSTORE PUSH1 0xE0 MSTORE PUSH3 0x76 SWAP2 PUSH1 0x7 SWAP2 PUSH3 0x7D9 JUMP JUMPDEST POP CALLVALUE DUP1 ISZERO PUSH3 0x84 JUMPI PUSH1 0x0 DUP1 REVERT JUMPDEST POP PUSH1 0x40 MLOAD PUSH3 0x2829 CODESIZE SUB DUP1 PUSH3 0x2829 DUP4 CODECOPY DUP2 ADD PUSH1 0x40 DUP2 SWAP1 MSTORE PUSH3 0xA7 SWAP2 PUSH3 0x8E3 JUMP JUMPDEST PUSH3 0xB2 CALLER PUSH3 0x10F JUMP JUMPDEST PUSH1 0x1 DUP1 SLOAD PUSH1 0x1 PUSH1 0x1 PUSH1 0xA0 SHL SUB DUP1 DUP7 AND PUSH1 0x1 PUSH1 0x1 PUSH1 0xA0 SHL SUB NOT SWAP3 DUP4 AND OR SWAP1 SWAP3 SSTORE PUSH1 0x2 DUP1 SLOAD SWAP3 DUP6 AND SWAP3 SWAP1 SWAP2 AND SWAP2 SWAP1 SWAP2 OR SWAP1 SSTORE PUSH1 0x6 PUSH3 0xF0 DUP3 DUP3 PUSH3 0xA6C JUMP JUMPDEST POP PUSH3 0xFC CALLER PUSH3 0x10F JUMP JUMPDEST PUSH3 0x106 PUSH3 0x15F JUMP JUMPDEST POP POP POP PUSH3 0xB38 JUMP JUMPDEST PUSH1 0x0 DUP1 SLOAD PUSH1 0x1 PUSH1 0x1 PUSH1 0xA0 SHL SUB DUP4 DUP2 AND PUSH1 0x1 PUSH1 0x1 PUSH1 0xA0 SHL SUB NOT DUP4 AND DUP2 OR DUP5 SSTORE PUSH1 0x40 MLOAD SWAP2 SWAP1 SWAP3 AND SWAP3 DUP4 SWAP2 PUSH32 0x8BE0079C531659141344CD1FD0A4F28419497F9722A3DAAFE3B4186F6B6457E0 SWAP2 SWAP1 LOG3 POP POP JUMP JUMPDEST PUSH1 0x40 DUP1 MLOAD PUSH1 0xC0 DUP2 ADD DUP3 MSTORE PUSH1 0x10 PUSH1 0x80 DUP3 ADD SWAP1 DUP2 MSTORE PUSH16 0x109BDBDCDD195C8814DD185B99185C99 PUSH1 0x82 SHL PUSH1 0xA0 DUP4 ADD MSTORE DUP2 MSTORE PUSH9 0x56BC75E2D63100000 PUSH1 0x20 DUP3 ADD MSTORE PUSH1 0x5 DUP2 DUP4 ADD MSTORE PUSH1 0x1 PUSH1 0x60 DUP3 ADD MSTORE SWAP1 MLOAD PUSH6 0x31B7B6B6B7B7 PUSH1 0xD1 SHL DUP2 MSTORE PUSH1 0x3 SWAP1 PUSH1 0x6 ADD SWAP1 DUP2 MSTORE PUSH1 0x40 MLOAD SWAP1 DUP2 SWAP1 SUB PUSH1 0x20 ADD SWAP1 KECCAK256 DUP2 MLOAD DUP2 SWAP1 PUSH3 0x1DC SWAP1 DUP3 PUSH3 0xA6C JUMP JUMPDEST POP PUSH1 0x20 DUP3 ADD MLOAD PUSH1 0x1 DUP3 ADD SSTORE PUSH1 0x40 DUP1 DUP4 ADD MLOAD PUSH1 0x2 DUP4 ADD SSTORE PUSH1 0x60 SWAP1 SWAP3 ADD MLOAD PUSH1 0x3 SWAP1 SWAP2 ADD DUP1 SLOAD PUSH1 0xFF NOT AND SWAP2 ISZERO ISZERO SWAP2 SWAP1 SWAP2 OR SWAP1 SSTORE MLOAD PUSH6 0x31B7B6B6B7B7 PUSH1 0xD1 SHL DUP2 MSTORE PUSH1 0x46 SWAP1 PUSH1 0x4 SWAP1 PUSH1 0x6 ADD SWAP1 DUP2 MSTORE PUSH1 0x40 MLOAD SWAP1 DUP2 SWAP1 SUB PUSH1 0x20 ADD DUP2 KECCAK256 PUSH6 0x31B7B6B6B7B7 PUSH1 0xD1 SHL DUP3 MSTORE SWAP1 PUSH1 0x6 ADD SWAP1 DUP2 MSTORE PUSH1 0x40 MLOAD SWAP1 DUP2 SWAP1 SUB PUSH1 0x20 ADD DUP2 KECCAK256 SWAP2 SWAP1 SWAP2 SSTORE PUSH6 0x31B7B6B6B7B7 PUSH1 0xD1 SHL DUP2 MSTORE PUSH1 0x14 SWAP1 PUSH1 0x4 SWAP1 PUSH1 0x6 ADD SWAP1 DUP2 MSTORE PUSH1 0x40 MLOAD SWAP1 DUP2 SWAP1 SUB PUSH1 0x20 ADD DUP2 KECCAK256 PUSH4 0x72617265 PUSH1 0xE0 SHL DUP3 MSTORE SWAP1 PUSH1 0x4 ADD SWAP1 DUP2 MSTORE PUSH1 0x40 MLOAD SWAP1 DUP2 SWAP1 SUB PUSH1 0x20 ADD DUP2 KECCAK256 SWAP2 SWAP1 SWAP2 SSTORE PUSH6 0x31B7B6B6B7B7 PUSH1 0xD1 SHL DUP2 MSTORE PUSH1 0x8 SWAP1 PUSH1 0x4 SWAP1 PUSH1 0x6 ADD SWAP1 DUP2 MSTORE PUSH1 0x40 MLOAD SWAP1 DUP2 SWAP1 SUB PUSH1 0x20 ADD DUP2 KECCAK256 PUSH4 0x65706963 PUSH1 0xE0 SHL DUP3 MSTORE SWAP1 PUSH1 0x4 ADD SWAP1 DUP2 MSTORE PUSH1 0x40 MLOAD SWAP1 DUP2 SWAP1 SUB PUSH1 0x20 ADD DUP2 KECCAK256 SWAP2 SWAP1 SWAP2 SSTORE PUSH6 0x31B7B6B6B7B7 PUSH1 0xD1 SHL DUP2 MSTORE PUSH1 0x2 SWAP1 PUSH1 0x4 SWAP1 PUSH1 0x6 ADD SWAP1 DUP2 MSTORE PUSH1 0x40 MLOAD SWAP1 DUP2 SWAP1 SUB PUSH1 0x20 ADD DUP2 KECCAK256 PUSH9 0x6C6567656E64617279 PUSH1 0xB8 SHL DUP3 MSTORE SWAP1 PUSH1 0x9 ADD SWAP1 DUP2 MSTORE PUSH1 0x40 DUP1 MLOAD PUSH1 0x20 SWAP3 DUP2 SWAP1 SUB DUP4 ADD DUP2 KECCAK256 SWAP4 SWAP1 SWAP4 SSTORE PUSH1 0xC0 DUP4 ADD DUP2 MSTORE PUSH1 0xF PUSH1 0x80 DUP5 ADD SWAP1 DUP2 MSTORE PUSH15 0x426F6F73746572205072656D69756D PUSH1 0x88 SHL PUSH1 0xA0 DUP6 ADD MSTORE DUP4 MSTORE PUSH9 0xD8D726B7177A80000 SWAP2 DUP4 ADD SWAP2 SWAP1 SWAP2 MSTORE PUSH1 0x5 DUP3 DUP3 ADD MSTORE PUSH1 0x1 PUSH1 0x60 DUP4 ADD MSTORE MLOAD PUSH4 0x72617265 PUSH1 0xE0 SHL DUP2 MSTORE PUSH1 0x3 SWAP1 PUSH1 0x4 ADD SWAP1 DUP2 MSTORE PUSH1 0x40 MLOAD SWAP1 DUP2 SWAP1 SUB PUSH1 0x20 ADD SWAP1 KECCAK256 DUP2 MLOAD DUP2 SWAP1 PUSH3 0x3A1 SWAP1 DUP3 PUSH3 0xA6C JUMP JUMPDEST POP PUSH1 0x20 DUP3 ADD MLOAD PUSH1 0x1 DUP3 ADD SSTORE PUSH1 0x40 DUP1 DUP4 ADD MLOAD PUSH1 0x2 DUP4 ADD SSTORE PUSH1 0x60 SWAP1 SWAP3 ADD MLOAD PUSH1 0x3 SWAP1 SWAP2 ADD DUP1 SLOAD PUSH1 0xFF NOT AND SWAP2 ISZERO ISZERO SWAP2 SWAP1 SWAP2 OR SWAP1 SSTORE MLOAD PUSH4 0x72617265 PUSH1 0xE0 SHL DUP2 MSTORE PUSH1 0x37 SWAP1 PUSH1 0x4 SWAP1 DUP2 ADD SWAP1 DUP2 MSTORE PUSH1 0x40 MLOAD SWAP1 DUP2 SWAP1 SUB PUSH1 0x20 ADD DUP2 KECCAK256 PUSH6 0x31B7B6B6B7B7 PUSH1 0xD1 SHL DUP3 MSTORE SWAP1 PUSH1 0x6 ADD SWAP1 DUP2 MSTORE PUSH1 0x40 MLOAD SWAP1 DUP2 SWAP1 SUB PUSH1 0x20 ADD DUP2 KECCAK256 SWAP2 SWAP1 SWAP2 SSTORE PUSH4 0x72617265 PUSH1 0xE0 SHL DUP2 MSTORE PUSH1 0x19 SWAP1 PUSH1 0x4 SWAP1 DUP2 ADD SWAP1 DUP2 MSTORE PUSH1 0x40 MLOAD SWAP1 DUP2 SWAP1 SUB PUSH1 0x20 ADD DUP2 KECCAK256 PUSH4 0x72617265 PUSH1 0xE0 SHL DUP3 MSTORE SWAP1 PUSH1 0x4 ADD SWAP1 DUP2 MSTORE PUSH1 0x40 MLOAD SWAP1 DUP2 SWAP1 SUB PUSH1 0x20 ADD DUP2 KECCAK256 SWAP2 SWAP1 SWAP2 SSTORE PUSH4 0x72617265 PUSH1 0xE0 SHL DUP2 MSTORE PUSH1 0xF SWAP1 PUSH1 0x4 SWAP1 DUP2 ADD SWAP1 DUP2 MSTORE PUSH1 0x40 MLOAD SWAP1 DUP2 SWAP1 SUB PUSH1 0x20 ADD DUP2 KECCAK256 PUSH4 0x65706963 PUSH1 0xE0 SHL DUP3 MSTORE SWAP1 PUSH1 0x4 ADD SWAP1 DUP2 MSTORE PUSH1 0x40 MLOAD SWAP1 DUP2 SWAP1 SUB PUSH1 0x20 ADD DUP2 KECCAK256 SWAP2 SWAP1 SWAP2 SSTORE PUSH4 0x72617265 PUSH1 0xE0 SHL DUP2 MSTORE PUSH1 0x5 SWAP1 PUSH1 0x4 SWAP1 DUP2 ADD SWAP1 DUP2 MSTORE PUSH1 0x40 MLOAD SWAP1 DUP2 SWAP1 SUB PUSH1 0x20 ADD DUP2 KECCAK256 PUSH9 0x6C6567656E64617279 PUSH1 0xB8 SHL DUP3 MSTORE SWAP1 PUSH1 0x9 ADD SWAP1 DUP2 MSTORE PUSH1 0x40 DUP1 MLOAD PUSH1 0x20 SWAP3 DUP2 SWAP1 SUB DUP4 ADD DUP2 KECCAK256 SWAP4 SWAP1 SWAP4 SSTORE PUSH1 0xC0 DUP4 ADD DUP2 MSTORE PUSH1 0x10 PUSH1 0x80 DUP5 ADD SWAP1 DUP2 MSTORE PUSH16 0x426F6F7374657220556C74696D617465 PUSH1 0x80 SHL PUSH1 0xA0 DUP6 ADD MSTORE DUP4 MSTORE PUSH9 0x1B1AE4D6E2EF500000 SWAP2 DUP4 ADD SWAP2 SWAP1 SWAP2 MSTORE PUSH1 0x5 DUP3 DUP3 ADD MSTORE PUSH1 0x1 PUSH1 0x60 DUP4 ADD MSTORE MLOAD PUSH4 0x65706963 PUSH1 0xE0 SHL DUP2 MSTORE PUSH1 0x3 SWAP1 PUSH1 0x4 ADD SWAP1 DUP2 MSTORE PUSH1 0x40 MLOAD SWAP1 DUP2 SWAP1 SUB PUSH1 0x20 ADD SWAP1 KECCAK256 DUP2 MLOAD DUP2 SWAP1 PUSH3 0x55B SWAP1 DUP3 PUSH3 0xA6C JUMP JUMPDEST POP PUSH1 0x20 DUP3 DUP2 ADD MLOAD PUSH1 0x1 DUP4 DUP2 ADD SWAP2 SWAP1 SWAP2 SSTORE PUSH1 0x40 DUP1 DUP6 ADD MLOAD PUSH1 0x2 DUP6 ADD SSTORE PUSH1 0x60 SWAP5 DUP6 ADD MLOAD PUSH1 0x3 SWAP5 DUP6 ADD DUP1 SLOAD PUSH1 0xFF NOT AND SWAP2 ISZERO ISZERO SWAP2 SWAP1 SWAP2 OR SWAP1 SSTORE DUP1 MLOAD PUSH4 0x65706963 PUSH1 0xE0 SHL DUP1 DUP3 MSTORE PUSH1 0x4 DUP1 DUP4 ADD DUP2 SWAP1 MSTORE DUP4 MLOAD SWAP3 DUP4 SWAP1 SUB PUSH1 0x24 SWAP1 DUP2 ADD DUP5 KECCAK256 PUSH6 0x31B7B6B6B7B7 PUSH1 0xD1 SHL DUP6 MSTORE PUSH1 0x6 DUP6 ADD MSTORE DUP5 MLOAD SWAP4 DUP5 SWAP1 SUB PUSH1 0x26 ADD DUP5 KECCAK256 PUSH1 0x28 SWAP1 SSTORE DUP3 DUP5 MSTORE DUP4 DUP3 ADD DUP3 SWAP1 MSTORE DUP5 MLOAD SWAP4 DUP5 SWAP1 SUB DUP2 ADD DUP5 KECCAK256 PUSH4 0x72617265 PUSH1 0xE0 SHL DUP6 MSTORE DUP5 DUP4 ADD MSTORE DUP5 MLOAD SWAP4 DUP5 SWAP1 SUB DUP2 ADD DUP5 KECCAK256 PUSH1 0x19 SWAP1 DUP2 SWAP1 SSTORE DUP4 DUP6 MSTORE DUP5 DUP4 ADD DUP4 SWAP1 MSTORE DUP6 MLOAD SWAP5 DUP6 SWAP1 SUB DUP3 ADD DUP6 KECCAK256 DUP5 DUP7 MSTORE DUP6 DUP5 ADD MSTORE DUP6 MLOAD SWAP5 DUP6 SWAP1 SUB DUP3 ADD DUP6 KECCAK256 SSTORE SWAP2 DUP4 MSTORE DUP3 DUP2 ADD MSTORE DUP3 MLOAD SWAP2 DUP3 SWAP1 SUB ADD DUP2 KECCAK256 PUSH9 0x6C6567656E64617279 PUSH1 0xB8 SHL DUP1 DUP4 MSTORE PUSH1 0x9 DUP1 DUP5 ADD SWAP3 SWAP1 SWAP3 MSTORE DUP4 MLOAD SWAP3 DUP4 SWAP1 SUB PUSH1 0x29 SWAP1 DUP2 ADD DUP5 KECCAK256 PUSH1 0xA SWAP1 SSTORE PUSH1 0xC0 DUP5 ADD DUP6 MSTORE PUSH1 0x12 PUSH1 0x80 DUP6 ADD SWAP1 DUP2 MSTORE PUSH18 0x426F6F73746572204C6567656E6461697265 PUSH1 0x70 SHL PUSH1 0xA0 DUP7 ADD MSTORE DUP5 MSTORE PUSH9 0x3635C9ADC5DEA00000 SWAP7 DUP5 ADD SWAP7 SWAP1 SWAP7 MSTORE PUSH1 0x5 DUP4 DUP6 ADD MSTORE SWAP7 DUP3 ADD SWAP4 SWAP1 SWAP4 MSTORE DUP2 MLOAD SWAP6 DUP7 MSTORE SWAP2 DUP6 ADD SWAP4 SWAP1 SWAP4 MSTORE SWAP2 MLOAD SWAP3 DUP4 SWAP1 SUB ADD SWAP1 SWAP2 KECCAK256 DUP2 MLOAD DUP2 SWAP1 PUSH3 0x6D2 SWAP1 DUP3 PUSH3 0xA6C JUMP JUMPDEST POP PUSH1 0x20 DUP3 ADD MLOAD PUSH1 0x1 DUP3 ADD SSTORE PUSH1 0x40 DUP1 DUP4 ADD MLOAD PUSH1 0x2 DUP4 ADD SSTORE PUSH1 0x60 SWAP1 SWAP3 ADD MLOAD PUSH1 0x3 SWAP1 SWAP2 ADD DUP1 SLOAD PUSH1 0xFF NOT AND SWAP2 ISZERO ISZERO SWAP2 SWAP1 SWAP2 OR SWAP1 SSTORE DUP1 MLOAD PUSH9 0x6C6567656E64617279 PUSH1 0xB8 SHL DUP1 DUP3 MSTORE PUSH1 0x4 PUSH1 0x9 DUP1 DUP5 ADD DUP3 SWAP1 MSTORE DUP5 MLOAD SWAP4 DUP5 SWAP1 SUB PUSH1 0x29 SWAP1 DUP2 ADD DUP6 KECCAK256 PUSH6 0x31B7B6B6B7B7 PUSH1 0xD1 SHL DUP7 MSTORE PUSH1 0x6 DUP7 ADD MSTORE DUP6 MLOAD SWAP5 DUP6 SWAP1 SUB PUSH1 0x26 ADD DUP6 KECCAK256 PUSH1 0x14 SWAP1 SSTORE DUP4 DUP6 MSTORE DUP5 DUP3 ADD DUP4 SWAP1 MSTORE DUP6 MLOAD SWAP5 DUP6 SWAP1 SUB DUP2 ADD DUP6 KECCAK256 PUSH4 0x72617265 PUSH1 0xE0 SHL DUP7 MSTORE DUP6 DUP5 ADD MSTORE DUP6 MLOAD SWAP5 DUP6 SWAP1 SUB PUSH1 0x24 SWAP1 DUP2 ADD DUP7 KECCAK256 PUSH1 0x1E SWAP1 SSTORE DUP5 DUP7 MSTORE DUP6 DUP4 ADD DUP5 SWAP1 MSTORE DUP7 MLOAD SWAP6 DUP7 SWAP1 SUB DUP3 ADD DUP7 KECCAK256 PUSH4 0x65706963 PUSH1 0xE0 SHL DUP8 MSTORE DUP7 DUP6 ADD MSTORE DUP7 MLOAD SWAP6 DUP7 SWAP1 SUB ADD DUP6 KECCAK256 PUSH1 0x23 SWAP1 SSTORE DUP4 DUP6 MSTORE DUP5 DUP3 ADD SWAP3 SWAP1 SWAP3 MSTORE DUP5 MLOAD SWAP4 DUP5 SWAP1 SUB DUP3 ADD DUP5 KECCAK256 SWAP3 DUP5 MSTORE DUP4 ADD SWAP2 SWAP1 SWAP2 MSTORE SWAP2 MLOAD SWAP1 DUP2 SWAP1 SUB SWAP1 SWAP2 ADD SWAP1 KECCAK256 PUSH1 0xF SWAP1 SSTORE JUMP JUMPDEST DUP3 DUP1 SLOAD DUP3 DUP3 SSTORE SWAP1 PUSH1 0x0 MSTORE PUSH1 0x20 PUSH1 0x0 KECCAK256 SWAP1 DUP2 ADD SWAP3 DUP3 ISZERO PUSH3 0x824 JUMPI SWAP2 PUSH1 0x20 MUL DUP3 ADD JUMPDEST DUP3 DUP2 GT ISZERO PUSH3 0x824 JUMPI DUP3 MLOAD DUP3 SWAP1 PUSH3 0x813 SWAP1 DUP3 PUSH3 0xA6C JUMP JUMPDEST POP SWAP2 PUSH1 0x20 ADD SWAP2 SWAP1 PUSH1 0x1 ADD SWAP1 PUSH3 0x7FA JUMP JUMPDEST POP PUSH3 0x832 SWAP3 SWAP2 POP PUSH3 0x836 JUMP JUMPDEST POP SWAP1 JUMP JUMPDEST DUP1 DUP3 GT ISZERO PUSH3 0x832 JUMPI PUSH1 0x0 PUSH3 0x84D DUP3 DUP3 PUSH3 0x857 JUMP JUMPDEST POP PUSH1 0x1 ADD PUSH3 0x836 JUMP JUMPDEST POP DUP1 SLOAD PUSH3 0x865 SWAP1 PUSH3 0x9DD JUMP JUMPDEST PUSH1 0x0 DUP3 SSTORE DUP1 PUSH1 0x1F LT PUSH3 0x876 JUMPI POP POP JUMP JUMPDEST PUSH1 0x1F ADD PUSH1 0x20 SWAP1 DIV SWAP1 PUSH1 0x0 MSTORE PUSH1 0x20 PUSH1 0x0 KECCAK256 SWAP1 DUP2 ADD SWAP1 PUSH3 0x896 SWAP2 SWAP1 PUSH3 0x899 JUMP JUMPDEST POP JUMP JUMPDEST JUMPDEST DUP1 DUP3 GT ISZERO PUSH3 0x832 JUMPI PUSH1 0x0 DUP2 SSTORE PUSH1 0x1 ADD PUSH3 0x89A JUMP JUMPDEST DUP1 MLOAD PUSH1 0x1 PUSH1 0x1 PUSH1 0xA0 SHL SUB DUP2 AND DUP2 EQ PUSH3 0x8C8 JUMPI PUSH1 0x0 DUP1 REVERT JUMPDEST SWAP2 SWAP1 POP JUMP JUMPDEST PUSH4 0x4E487B71 PUSH1 0xE0 SHL PUSH1 0x0 MSTORE PUSH1 0x41 PUSH1 0x4 MSTORE PUSH1 0x24 PUSH1 0x0 REVERT JUMPDEST PUSH1 0x0 DUP1 PUSH1 0x0 PUSH1 0x60 DUP5 DUP7 SUB SLT ISZERO PUSH3 0x8F9 JUMPI PUSH1 0x0 DUP1 REVERT JUMPDEST PUSH3 0x904 DUP5 PUSH3 0x8B0 JUMP JUMPDEST SWAP3 POP PUSH1 0x20 PUSH3 0x915 DUP2 DUP7 ADD PUSH3 0x8B0 JUMP JUMPDEST PUSH1 0x40 DUP7 ADD MLOAD SWAP1 SWAP4 POP PUSH1 0x1 PUSH1 0x1 PUSH1 0x40 SHL SUB DUP1 DUP3 GT ISZERO PUSH3 0x933 JUMPI PUSH1 0x0 DUP1 REVERT JUMPDEST DUP2 DUP8 ADD SWAP2 POP DUP8 PUSH1 0x1F DUP4 ADD SLT PUSH3 0x948 JUMPI PUSH1 0x0 DUP1 REVERT JUMPDEST DUP2 MLOAD DUP2 DUP2 GT ISZERO PUSH3 0x95D JUMPI PUSH3 0x95D PUSH3 0x8CD JUMP JUMPDEST PUSH1 0x40 MLOAD PUSH1 0x1F DUP3 ADD PUSH1 0x1F NOT SWAP1 DUP2 AND PUSH1 0x3F ADD AND DUP2 ADD SWAP1 DUP4 DUP3 GT DUP2 DUP4 LT OR ISZERO PUSH3 0x988 JUMPI PUSH3 0x988 PUSH3 0x8CD JUMP JUMPDEST DUP2 PUSH1 0x40 MSTORE DUP3 DUP2 MSTORE DUP11 DUP7 DUP5 DUP8 ADD ADD GT ISZERO PUSH3 0x9A1 JUMPI PUSH1 0x0 DUP1 REVERT JUMPDEST PUSH1 0x0 SWAP4 POP JUMPDEST DUP3 DUP5 LT ISZERO PUSH3 0x9C5 JUMPI DUP5 DUP5 ADD DUP7 ADD MLOAD DUP2 DUP6 ADD DUP8 ADD MSTORE SWAP3 DUP6 ADD SWAP3 PUSH3 0x9A6 JUMP JUMPDEST PUSH1 0x0 DUP7 DUP5 DUP4 ADD ADD MSTORE DUP1 SWAP7 POP POP POP POP POP POP POP SWAP3 POP SWAP3 POP SWAP3 JUMP JUMPDEST PUSH1 0x1 DUP2 DUP2 SHR SWAP1 DUP3 AND DUP1 PUSH3 0x9F2 JUMPI PUSH1 0x7F DUP3 AND SWAP2 POP JUMPDEST PUSH1 0x20 DUP3 LT DUP2 SUB PUSH3 0xA13 JUMPI PUSH4 0x4E487B71 PUSH1 0xE0 SHL PUSH1 0x0 MSTORE PUSH1 0x22 PUSH1 0x4 MSTORE PUSH1 0x24 PUSH1 0x0 REVERT JUMPDEST POP SWAP2 SWAP1 POP JUMP JUMPDEST PUSH1 0x1F DUP3 GT ISZERO PUSH3 0xA67 JUMPI PUSH1 0x0 DUP2 DUP2 MSTORE PUSH1 0x20 DUP2 KECCAK256 PUSH1 0x1F DUP6 ADD PUSH1 0x5 SHR DUP2 ADD PUSH1 0x20 DUP7 LT ISZERO PUSH3 0xA42 JUMPI POP DUP1 JUMPDEST PUSH1 0x1F DUP6 ADD PUSH1 0x5 SHR DUP3 ADD SWAP2 POP JUMPDEST DUP2 DUP2 LT ISZERO PUSH3 0xA63 JUMPI DUP3 DUP2 SSTORE PUSH1 0x1 ADD PUSH3 0xA4E JUMP JUMPDEST POP POP POP JUMPDEST POP POP POP JUMP JUMPDEST DUP2 MLOAD PUSH1 0x1 PUSH1 0x1 PUSH1 0x40 SHL SUB DUP2 GT ISZERO PUSH3 0xA88 JUMPI PUSH3 0xA88 PUSH3 0x8CD JUMP JUMPDEST PUSH3 0xAA0 DUP2 PUSH3 0xA99 DUP5 SLOAD PUSH3 0x9DD JUMP JUMPDEST DUP5 PUSH3 0xA19 JUMP JUMPDEST PUSH1 0x20 DUP1 PUSH1 0x1F DUP4 GT PUSH1 0x1 DUP2 EQ PUSH3 0xAD8 JUMPI PUSH1 0x0 DUP5 ISZERO PUSH3 0xABF JUMPI POP DUP6 DUP4 ADD MLOAD JUMPDEST PUSH1 0x0 NOT PUSH1 0x3 DUP7 SWAP1 SHL SHR NOT AND PUSH1 0x1 DUP6 SWAP1 SHL OR DUP6 SSTORE PUSH3 0xA63 JUMP JUMPDEST PUSH1 0x0 DUP6 DUP2 MSTORE PUSH1 0x20 DUP2 KECCAK256 PUSH1 0x1F NOT DUP7 AND SWAP2 JUMPDEST DUP3 DUP2 LT ISZERO PUSH3 0xB09 JUMPI DUP9 DUP7 ADD MLOAD DUP3 SSTORE SWAP5 DUP5 ADD SWAP5 PUSH1 0x1 SWAP1 SWAP2 ADD SWAP1 DUP5 ADD PUSH3 0xAE8 JUMP JUMPDEST POP DUP6 DUP3 LT ISZERO PUSH3 0xB28 JUMPI DUP8 DUP6 ADD MLOAD PUSH1 0x0 NOT PUSH1 0x3 DUP9 SWAP1 SHL PUSH1 0xF8 AND SHR NOT AND DUP2 SSTORE JUMPDEST POP POP POP POP POP PUSH1 0x1 SWAP1 DUP2 SHL ADD SWAP1 SSTORE POP JUMP JUMPDEST PUSH2 0x1CE1 DUP1 PUSH3 0xB48 PUSH1 0x0 CODECOPY PUSH1 0x0 RETURN INVALID PUSH1 0x80 PUSH1 0x40 MSTORE CALLVALUE DUP1 ISZERO PUSH2 0x10 JUMPI PUSH1 0x0 DUP1 REVERT JUMPDEST POP PUSH1 0x4 CALLDATASIZE LT PUSH2 0x115 JUMPI PUSH1 0x0 CALLDATALOAD PUSH1 0xE0 SHR DUP1 PUSH4 0x6E0BBE66 GT PUSH2 0xA2 JUMPI DUP1 PUSH4 0xBBCD5BBE GT PUSH2 0x71 JUMPI DUP1 PUSH4 0xBBCD5BBE EQ PUSH2 0x285 JUMPI DUP1 PUSH4 0xBEC251A2 EQ PUSH2 0x298 JUMPI DUP1 PUSH4 0xC030D8B8 EQ PUSH2 0x2AB JUMPI DUP1 PUSH4 0xD8CED56A EQ PUSH2 0x2BE JUMPI DUP1 PUSH4 0xF2FDE38B EQ PUSH2 0x2C6 JUMPI PUSH1 0x0 DUP1 REVERT JUMPDEST DUP1 PUSH4 0x6E0BBE66 EQ PUSH2 0x246 JUMPI DUP1 PUSH4 0x715018A6 EQ PUSH2 0x259 JUMPI DUP1 PUSH4 0x8DA5CB5B EQ PUSH2 0x261 JUMPI DUP1 PUSH4 0xAC82151E EQ PUSH2 0x272 JUMPI PUSH1 0x0 DUP1 REVERT JUMPDEST DUP1 PUSH4 0x55F804B3 GT PUSH2 0xE9 JUMPI DUP1 PUSH4 0x55F804B3 EQ PUSH2 0x1D3 JUMPI DUP1 PUSH4 0x5780E31E EQ PUSH2 0x1E8 JUMPI DUP1 PUSH4 0x59116FB3 EQ PUSH2 0x20B JUMPI DUP1 PUSH4 0x693BD2D0 EQ PUSH2 0x22B JUMPI DUP1 PUSH4 0x6C0360EB EQ PUSH2 0x23E JUMPI PUSH1 0x0 DUP1 REVERT JUMPDEST DUP1 PUSH3 0xE7DF99 EQ PUSH2 0x11A JUMPI DUP1 PUSH4 0x3A6D9BA6 EQ PUSH2 0x175 JUMPI DUP1 PUSH4 0x471CE26C EQ PUSH2 0x195 JUMPI DUP1 PUSH4 0x55A373D6 EQ PUSH2 0x1A8 JUMPI JUMPDEST PUSH1 0x0 DUP1 REVERT JUMPDEST PUSH2 0x162 PUSH2 0x128 CALLDATASIZE PUSH1 0x4 PUSH2 0x159C JUMP JUMPDEST DUP2 MLOAD PUSH1 0x20 DUP2 DUP5 ADD DUP2 ADD DUP1 MLOAD PUSH1 0x4 DUP3 MSTORE SWAP3 DUP3 ADD SWAP5 DUP3 ADD SWAP5 SWAP1 SWAP5 KECCAK256 SWAP2 SWAP1 SWAP4 MSTORE DUP2 MLOAD DUP1 DUP4 ADD DUP5 ADD DUP1 MLOAD SWAP3 DUP2 MSTORE SWAP1 DUP5 ADD SWAP3 SWAP1 SWAP4 ADD SWAP2 SWAP1 SWAP2 KECCAK256 SWAP2 MSTORE SLOAD DUP2 JUMP JUMPDEST PUSH1 0x40 MLOAD SWAP1 DUP2 MSTORE PUSH1 0x20 ADD JUMPDEST PUSH1 0x40 MLOAD DUP1 SWAP2 SUB SWAP1 RETURN JUMPDEST PUSH2 0x188 PUSH2 0x183 CALLDATASIZE PUSH1 0x4 PUSH2 0x1600 JUMP JUMPDEST PUSH2 0x2D9 JUMP JUMPDEST PUSH1 0x40 MLOAD PUSH2 0x16C SWAP2 SWAP1 PUSH2 0x163D JUMP JUMPDEST PUSH2 0x162 PUSH2 0x1A3 CALLDATASIZE PUSH1 0x4 PUSH2 0x1600 JUMP JUMPDEST PUSH2 0x51E JUMP JUMPDEST PUSH1 0x1 SLOAD PUSH2 0x1BB SWAP1 PUSH1 0x1 PUSH1 0x1 PUSH1 0xA0 SHL SUB AND DUP2 JUMP JUMPDEST PUSH1 0x40 MLOAD PUSH1 0x1 PUSH1 0x1 PUSH1 0xA0 SHL SUB SWAP1 SWAP2 AND DUP2 MSTORE PUSH1 0x20 ADD PUSH2 0x16C JUMP JUMPDEST PUSH2 0x1E6 PUSH2 0x1E1 CALLDATASIZE PUSH1 0x4 PUSH2 0x1600 JUMP JUMPDEST PUSH2 0x58B JUMP JUMPDEST STOP JUMPDEST PUSH2 0x1FB PUSH2 0x1F6 CALLDATASIZE PUSH1 0x4 PUSH2 0x1600 JUMP JUMPDEST PUSH2 0x5DA JUMP JUMPDEST PUSH1 0x40 MLOAD PUSH2 0x16C SWAP5 SWAP4 SWAP3 SWAP2 SWAP1 PUSH2 0x16D1 JUMP JUMPDEST PUSH2 0x21E PUSH2 0x219 CALLDATASIZE PUSH1 0x4 PUSH2 0x1702 JUMP JUMPDEST PUSH2 0x69A JUMP JUMPDEST PUSH1 0x40 MLOAD PUSH2 0x16C SWAP2 SWAP1 PUSH2 0x171B JUMP JUMPDEST PUSH1 0x2 SLOAD PUSH2 0x1BB SWAP1 PUSH1 0x1 PUSH1 0x1 PUSH1 0xA0 SHL SUB AND DUP2 JUMP JUMPDEST PUSH2 0x21E PUSH2 0x746 JUMP JUMPDEST PUSH2 0x1E6 PUSH2 0x254 CALLDATASIZE PUSH1 0x4 PUSH2 0x1735 JUMP JUMPDEST PUSH2 0x753 JUMP JUMPDEST PUSH2 0x1E6 PUSH2 0x81C JUMP JUMPDEST PUSH1 0x0 SLOAD PUSH1 0x1 PUSH1 0x1 PUSH1 0xA0 SHL SUB AND PUSH2 0x1BB JUMP JUMPDEST PUSH2 0x1E6 PUSH2 0x280 CALLDATASIZE PUSH1 0x4 PUSH2 0x17C6 JUMP JUMPDEST PUSH2 0x830 JUMP JUMPDEST PUSH2 0x1E6 PUSH2 0x293 CALLDATASIZE PUSH1 0x4 PUSH2 0x1890 JUMP JUMPDEST PUSH2 0x9F2 JUMP JUMPDEST PUSH2 0x162 PUSH2 0x2A6 CALLDATASIZE PUSH1 0x4 PUSH2 0x1600 JUMP JUMPDEST PUSH2 0xA1C JUMP JUMPDEST PUSH2 0x1E6 PUSH2 0x2B9 CALLDATASIZE PUSH1 0x4 PUSH2 0x1890 JUMP JUMPDEST PUSH2 0xA89 JUMP JUMPDEST PUSH2 0x188 PUSH2 0xAB3 JUMP JUMPDEST PUSH2 0x1E6 PUSH2 0x2D4 CALLDATASIZE PUSH1 0x4 PUSH2 0x1890 JUMP JUMPDEST PUSH2 0xB14 JUMP JUMPDEST PUSH1 0x60 PUSH1 0x3 DUP3 PUSH1 0x40 MLOAD PUSH2 0x2EB SWAP2 SWAP1 PUSH2 0x18B9 JUMP JUMPDEST SWAP1 DUP2 MSTORE PUSH1 0x40 MLOAD SWAP1 DUP2 SWAP1 SUB PUSH1 0x20 ADD SWAP1 KECCAK256 PUSH1 0x3 ADD SLOAD PUSH1 0xFF AND PUSH2 0x326 JUMPI PUSH1 0x40 MLOAD PUSH3 0x461BCD PUSH1 0xE5 SHL DUP2 MSTORE PUSH1 0x4 ADD PUSH2 0x31D SWAP1 PUSH2 0x18D5 JUMP JUMPDEST PUSH1 0x40 MLOAD DUP1 SWAP2 SUB SWAP1 REVERT JUMPDEST PUSH1 0x0 PUSH1 0x3 DUP4 PUSH1 0x40 MLOAD PUSH2 0x338 SWAP2 SWAP1 PUSH2 0x18B9 JUMP JUMPDEST SWAP1 DUP2 MSTORE PUSH1 0x20 ADD PUSH1 0x40 MLOAD DUP1 SWAP2 SUB SWAP1 KECCAK256 PUSH1 0x1 ADD SLOAD SWAP1 POP PUSH1 0x0 PUSH1 0x3 DUP5 PUSH1 0x40 MLOAD PUSH2 0x35E SWAP2 SWAP1 PUSH2 0x18B9 JUMP JUMPDEST SWAP1 DUP2 MSTORE PUSH1 0x40 MLOAD SWAP1 DUP2 SWAP1 SUB PUSH1 0x20 ADD DUP2 KECCAK256 PUSH1 0x2 ADD SLOAD PUSH1 0x1 SLOAD PUSH4 0x70A08231 PUSH1 0xE0 SHL DUP4 MSTORE CALLER PUSH1 0x4 DUP5 ADD MSTORE SWAP1 SWAP3 POP DUP4 SWAP2 PUSH1 0x1 PUSH1 0x1 PUSH1 0xA0 SHL SUB SWAP1 SWAP2 AND SWAP1 PUSH4 0x70A08231 SWAP1 PUSH1 0x24 ADD PUSH1 0x20 PUSH1 0x40 MLOAD DUP1 DUP4 SUB DUP2 DUP7 GAS STATICCALL ISZERO DUP1 ISZERO PUSH2 0x3BB JUMPI RETURNDATASIZE PUSH1 0x0 DUP1 RETURNDATACOPY RETURNDATASIZE PUSH1 0x0 REVERT JUMPDEST POP POP POP POP PUSH1 0x40 MLOAD RETURNDATASIZE PUSH1 0x1F NOT PUSH1 0x1F DUP3 ADD AND DUP3 ADD DUP1 PUSH1 0x40 MSTORE POP DUP2 ADD SWAP1 PUSH2 0x3DF SWAP2 SWAP1 PUSH2 0x1921 JUMP JUMPDEST LT ISZERO PUSH2 0x43C JUMPI PUSH1 0x40 MLOAD PUSH3 0x461BCD PUSH1 0xE5 SHL DUP2 MSTORE PUSH1 0x20 PUSH1 0x4 DUP3 ADD MSTORE PUSH1 0x26 PUSH1 0x24 DUP3 ADD MSTORE PUSH32 0x454643426F6F737465723A20696E73756666696369656E7420746F6B656E2062 PUSH1 0x44 DUP3 ADD MSTORE PUSH6 0x616C616E6365 PUSH1 0xD0 SHL PUSH1 0x64 DUP3 ADD MSTORE PUSH1 0x84 ADD PUSH2 0x31D JUMP JUMPDEST PUSH1 0x1 SLOAD PUSH1 0x40 MLOAD PUSH4 0xECF7A447 PUSH1 0xE0 SHL DUP2 MSTORE CALLER PUSH1 0x4 DUP3 ADD MSTORE PUSH1 0x24 DUP2 ADD DUP5 SWAP1 MSTORE PUSH1 0x1 PUSH1 0x1 PUSH1 0xA0 SHL SUB SWAP1 SWAP2 AND SWAP1 PUSH4 0xECF7A447 SWAP1 PUSH1 0x44 ADD PUSH1 0x0 PUSH1 0x40 MLOAD DUP1 DUP4 SUB DUP2 PUSH1 0x0 DUP8 DUP1 EXTCODESIZE ISZERO DUP1 ISZERO PUSH2 0x488 JUMPI PUSH1 0x0 DUP1 REVERT JUMPDEST POP GAS CALL ISZERO DUP1 ISZERO PUSH2 0x49C JUMPI RETURNDATASIZE PUSH1 0x0 DUP1 RETURNDATACOPY RETURNDATASIZE PUSH1 0x0 REVERT JUMPDEST POP POP POP POP PUSH1 0x0 PUSH2 0x4AD CALLER DUP7 DUP5 PUSH2 0xB8D JUMP JUMPDEST CALLER PUSH1 0x0 SWAP1 DUP2 MSTORE PUSH1 0x5 PUSH1 0x20 SWAP1 DUP2 MSTORE PUSH1 0x40 SWAP1 SWAP2 KECCAK256 DUP3 MLOAD SWAP3 SWAP4 POP PUSH2 0x4D2 SWAP3 SWAP1 SWAP2 DUP5 ADD SWAP1 PUSH2 0x1485 JUMP JUMPDEST POP CALLER PUSH1 0x1 PUSH1 0x1 PUSH1 0xA0 SHL SUB AND PUSH32 0xA11C5622469C7F89AAF630B359FE355FBB52D5F03D0362634B2823E6BB08534F DUP7 DUP6 PUSH1 0x40 MLOAD PUSH2 0x50E SWAP3 SWAP2 SWAP1 PUSH2 0x193A JUMP JUMPDEST PUSH1 0x40 MLOAD DUP1 SWAP2 SUB SWAP1 LOG2 SWAP5 SWAP4 POP POP POP POP JUMP JUMPDEST PUSH1 0x0 PUSH1 0x3 DUP3 PUSH1 0x40 MLOAD PUSH2 0x530 SWAP2 SWAP1 PUSH2 0x18B9 JUMP JUMPDEST SWAP1 DUP2 MSTORE PUSH1 0x40 MLOAD SWAP1 DUP2 SWAP1 SUB PUSH1 0x20 ADD SWAP1 KECCAK256 PUSH1 0x3 ADD SLOAD PUSH1 0xFF AND PUSH2 0x562 JUMPI PUSH1 0x40 MLOAD PUSH3 0x461BCD PUSH1 0xE5 SHL DUP2 MSTORE PUSH1 0x4 ADD PUSH2 0x31D SWAP1 PUSH2 0x18D5 JUMP JUMPDEST PUSH1 0x3 DUP3 PUSH1 0x40 MLOAD PUSH2 0x572 SWAP2 SWAP1 PUSH2 0x18B9 JUMP JUMPDEST SWAP1 DUP2 MSTORE PUSH1 0x20 ADD PUSH1 0x40 MLOAD DUP1 SWAP2 SUB SWAP1 KECCAK256 PUSH1 0x1 ADD SLOAD SWAP1 POP SWAP2 SWAP1 POP JUMP JUMPDEST PUSH2 0x593 PUSH2 0xD31 JUMP JUMPDEST PUSH1 0x6 PUSH2 0x59F DUP3 DUP3 PUSH2 0x19E5 JUMP JUMPDEST POP PUSH32 0x6741B2FC379FAD678116FE3D4D4B9A1A184AB53BA36B86AD0FA66340B1AB41AD DUP2 PUSH1 0x40 MLOAD PUSH2 0x5CF SWAP2 SWAP1 PUSH2 0x171B JUMP JUMPDEST PUSH1 0x40 MLOAD DUP1 SWAP2 SUB SWAP1 LOG1 POP JUMP JUMPDEST DUP1 MLOAD PUSH1 0x20 DUP2 DUP4 ADD DUP2 ADD DUP1 MLOAD PUSH1 0x3 DUP3 MSTORE SWAP3 DUP3 ADD SWAP2 SWAP1 SWAP4 ADD KECCAK256 SWAP2 MSTORE DUP1 SLOAD DUP2 SWAP1 PUSH2 0x600 SWAP1 PUSH2 0x195C JUMP JUMPDEST DUP1 PUSH1 0x1F ADD PUSH1 0x20 DUP1 SWAP2 DIV MUL PUSH1 0x20 ADD PUSH1 0x40 MLOAD SWAP1 DUP2 ADD PUSH1 0x40 MSTORE DUP1 SWAP3 SWAP2 SWAP1 DUP2 DUP2 MSTORE PUSH1 0x20 ADD DUP3 DUP1 SLOAD PUSH2 0x62C SWAP1 PUSH2 0x195C JUMP JUMPDEST DUP1 ISZERO PUSH2 0x679 JUMPI DUP1 PUSH1 0x1F LT PUSH2 0x64E JUMPI PUSH2 0x100 DUP1 DUP4 SLOAD DIV MUL DUP4 MSTORE SWAP2 PUSH1 0x20 ADD SWAP2 PUSH2 0x679 JUMP JUMPDEST DUP3 ADD SWAP2 SWAP1 PUSH1 0x0 MSTORE PUSH1 0x20 PUSH1 0x0 KECCAK256 SWAP1 JUMPDEST DUP2 SLOAD DUP2 MSTORE SWAP1 PUSH1 0x1 ADD SWAP1 PUSH1 0x20 ADD DUP1 DUP4 GT PUSH2 0x65C JUMPI DUP3 SWAP1 SUB PUSH1 0x1F AND DUP3 ADD SWAP2 JUMPDEST POP POP POP POP PUSH1 0x1 DUP4 ADD SLOAD PUSH1 0x2 DUP5 ADD SLOAD PUSH1 0x3 SWAP1 SWAP5 ADD SLOAD SWAP3 SWAP4 SWAP1 SWAP3 SWAP1 SWAP2 POP PUSH1 0xFF AND DUP5 JUMP JUMPDEST PUSH1 0x7 DUP2 DUP2 SLOAD DUP2 LT PUSH2 0x6AA JUMPI PUSH1 0x0 DUP1 REVERT JUMPDEST SWAP1 PUSH1 0x0 MSTORE PUSH1 0x20 PUSH1 0x0 KECCAK256 ADD PUSH1 0x0 SWAP2 POP SWAP1 POP DUP1 SLOAD PUSH2 0x6C5 SWAP1 PUSH2 0x195C JUMP JUMPDEST DUP1 PUSH1 0x1F ADD PUSH1 0x20 DUP1 SWAP2 DIV MUL PUSH1 0x20 ADD PUSH1 0x40 MLOAD SWAP1 DUP2 ADD PUSH1 0x40 MSTORE DUP1 SWAP3 SWAP2 SWAP1 DUP2 DUP2 MSTORE PUSH1 0x20 ADD DUP3 DUP1 SLOAD PUSH2 0x6F1 SWAP1 PUSH2 0x195C JUMP JUMPDEST DUP1 ISZERO PUSH2 0x73E JUMPI DUP1 PUSH1 0x1F LT PUSH2 0x713 JUMPI PUSH2 0x100 DUP1 DUP4 SLOAD DIV MUL DUP4 MSTORE SWAP2 PUSH1 0x20 ADD SWAP2 PUSH2 0x73E JUMP JUMPDEST DUP3 ADD SWAP2 SWAP1 PUSH1 0x0 MSTORE PUSH1 0x20 PUSH1 0x0 KECCAK256 SWAP1 JUMPDEST DUP2 SLOAD DUP2 MSTORE SWAP1 PUSH1 0x1 ADD SWAP1 PUSH1 0x20 ADD DUP1 DUP4 GT PUSH2 0x721 JUMPI DUP3 SWAP1 SUB PUSH1 0x1F AND DUP3 ADD SWAP2 JUMPDEST POP POP POP POP POP DUP2 JUMP JUMPDEST PUSH1 0x6 DUP1 SLOAD PUSH2 0x6C5 SWAP1 PUSH2 0x195C JUMP JUMPDEST PUSH2 0x75B PUSH2 0xD31 JUMP JUMPDEST PUSH1 0x40 MLOAD DUP1 PUSH1 0x80 ADD PUSH1 0x40 MSTORE DUP1 DUP6 DUP2 MSTORE PUSH1 0x20 ADD DUP5 DUP2 MSTORE PUSH1 0x20 ADD DUP4 DUP2 MSTORE PUSH1 0x20 ADD DUP3 ISZERO ISZERO DUP2 MSTORE POP PUSH1 0x3 DUP7 PUSH1 0x40 MLOAD PUSH2 0x78E SWAP2 SWAP1 PUSH2 0x18B9 JUMP JUMPDEST SWAP1 DUP2 MSTORE PUSH1 0x40 MLOAD SWAP1 DUP2 SWAP1 SUB PUSH1 0x20 ADD SWAP1 KECCAK256 DUP2 MLOAD DUP2 SWAP1 PUSH2 0x7AB SWAP1 DUP3 PUSH2 0x19E5 JUMP JUMPDEST POP PUSH1 0x20 DUP3 ADD MLOAD PUSH1 0x1 DUP3 ADD SSTORE PUSH1 0x40 DUP1 DUP4 ADD MLOAD PUSH1 0x2 DUP4 ADD SSTORE PUSH1 0x60 SWAP1 SWAP3 ADD MLOAD PUSH1 0x3 SWAP1 SWAP2 ADD DUP1 SLOAD PUSH1 0xFF NOT AND SWAP2 ISZERO ISZERO SWAP2 SWAP1 SWAP2 OR SWAP1 SSTORE MLOAD PUSH32 0x5BD3E277C56E42F42264F4AC4BF6D38BBC2F7F65184813F39778254B85D01E90 SWAP1 PUSH2 0x80D SWAP1 DUP8 SWAP1 DUP7 SWAP1 DUP7 SWAP1 PUSH2 0x1AA5 JUMP JUMPDEST PUSH1 0x40 MLOAD DUP1 SWAP2 SUB SWAP1 LOG1 POP POP POP POP POP JUMP JUMPDEST PUSH2 0x824 PUSH2 0xD31 JUMP JUMPDEST PUSH2 0x82E PUSH1 0x0 PUSH2 0xD8B JUMP JUMPDEST JUMP JUMPDEST PUSH2 0x838 PUSH2 0xD31 JUMP JUMPDEST PUSH1 0x7 SLOAD DUP2 MLOAD EQ PUSH2 0x89B JUMPI PUSH1 0x40 MLOAD PUSH3 0x461BCD PUSH1 0xE5 SHL DUP2 MSTORE PUSH1 0x20 PUSH1 0x4 DUP3 ADD MSTORE PUSH1 0x28 PUSH1 0x24 DUP3 ADD MSTORE PUSH32 0x454643426F6F737465723A20696E76616C69642070726F626162696C69746965 PUSH1 0x44 DUP3 ADD MSTORE PUSH8 0xE640D8CADCCEE8D PUSH1 0xC3 SHL PUSH1 0x64 DUP3 ADD MSTORE PUSH1 0x84 ADD PUSH2 0x31D JUMP JUMPDEST PUSH1 0x0 DUP1 JUMPDEST DUP3 MLOAD DUP2 LT ISZERO PUSH2 0x953 JUMPI DUP3 DUP2 DUP2 MLOAD DUP2 LT PUSH2 0x8BA JUMPI PUSH2 0x8BA PUSH2 0x1ACA JUMP JUMPDEST PUSH1 0x20 MUL PUSH1 0x20 ADD ADD MLOAD DUP3 PUSH2 0x8CD SWAP2 SWAP1 PUSH2 0x1AF6 JUMP JUMPDEST SWAP2 POP DUP3 DUP2 DUP2 MLOAD DUP2 LT PUSH2 0x8E1 JUMPI PUSH2 0x8E1 PUSH2 0x1ACA JUMP JUMPDEST PUSH1 0x20 MUL PUSH1 0x20 ADD ADD MLOAD PUSH1 0x4 DUP6 PUSH1 0x40 MLOAD PUSH2 0x8F9 SWAP2 SWAP1 PUSH2 0x18B9 JUMP JUMPDEST SWAP1 DUP2 MSTORE PUSH1 0x20 ADD PUSH1 0x40 MLOAD DUP1 SWAP2 SUB SWAP1 KECCAK256 PUSH1 0x7 DUP4 DUP2 SLOAD DUP2 LT PUSH2 0x91A JUMPI PUSH2 0x91A PUSH2 0x1ACA JUMP JUMPDEST SWAP1 PUSH1 0x0 MSTORE PUSH1 0x20 PUSH1 0x0 KECCAK256 ADD PUSH1 0x40 MLOAD PUSH2 0x931 SWAP2 SWAP1 PUSH2 0x1B7C JUMP JUMPDEST SWAP1 DUP2 MSTORE PUSH1 0x40 MLOAD SWAP1 DUP2 SWAP1 SUB PUSH1 0x20 ADD SWAP1 KECCAK256 SSTORE DUP1 PUSH2 0x94B DUP2 PUSH2 0x1B88 JUMP JUMPDEST SWAP2 POP POP PUSH2 0x89F JUMP JUMPDEST POP DUP1 PUSH1 0x64 EQ PUSH2 0x9B6 JUMPI PUSH1 0x40 MLOAD PUSH3 0x461BCD PUSH1 0xE5 SHL DUP2 MSTORE PUSH1 0x20 PUSH1 0x4 DUP3 ADD MSTORE PUSH1 0x29 PUSH1 0x24 DUP3 ADD MSTORE PUSH32 0x454643426F6F737465723A2070726F626162696C6974696573206D7573742073 PUSH1 0x44 DUP3 ADD MSTORE PUSH9 0x756D20746F2031303 PUSH1 0xBC SHL PUSH1 0x64 DUP3 ADD MSTORE PUSH1 0x84 ADD PUSH2 0x31D JUMP JUMPDEST PUSH32 0xB72721A3687FA6E61C8AEC9A151C178AA69EF5C315A77CBEE2E153BB6C930632 DUP4 PUSH1 0x40 MLOAD PUSH2 0x9E5 SWAP2 SWAP1 PUSH2 0x171B JUMP JUMPDEST PUSH1 0x40 MLOAD DUP1 SWAP2 SUB SWAP1 LOG1 POP POP POP JUMP JUMPDEST PUSH2 0x9FA PUSH2 0xD31 JUMP JUMPDEST PUSH1 0x1 DUP1 SLOAD PUSH1 0x1 PUSH1 0x1 PUSH1 0xA0 SHL SUB NOT AND PUSH1 0x1 PUSH1 0x1 PUSH1 0xA0 SHL SUB SWAP3 SWAP1 SWAP3 AND SWAP2 SWAP1 SWAP2 OR SWAP1 SSTORE JUMP JUMPDEST PUSH1 0x0 PUSH1 0x3 DUP3 PUSH1 0x40 MLOAD PUSH2 0xA2E SWAP2 SWAP1 PUSH2 0x18B9 JUMP JUMPDEST SWAP1 DUP2 MSTORE PUSH1 0x40 MLOAD SWAP1 DUP2 SWAP1 SUB PUSH1 0x20 ADD SWAP1 KECCAK256 PUSH1 0x3 ADD SLOAD PUSH1 0xFF AND PUSH2 0xA60 JUMPI PUSH1 0x40 MLOAD PUSH3 0x461BCD PUSH1 0xE5 SHL DUP2 MSTORE PUSH1 0x4 ADD PUSH2 0x31D SWAP1 PUSH2 0x18D5 JUMP JUMPDEST PUSH1 0x3 DUP3 PUSH1 0x40 MLOAD PUSH2 0xA70 SWAP2 SWAP1 PUSH2 0x18B9 JUMP JUMPDEST SWAP1 DUP2 MSTORE PUSH1 0x20 ADD PUSH1 0x40 MLOAD DUP1 SWAP2 SUB SWAP1 KECCAK256 PUSH1 0x2 ADD SLOAD SWAP1 POP SWAP2 SWAP1 POP JUMP JUMPDEST PUSH2 0xA91 PUSH2 0xD31 JUMP JUMPDEST PUSH1 0x2 DUP1 SLOAD PUSH1 0x1 PUSH1 0x1 PUSH1 0xA0 SHL SUB NOT AND PUSH1 0x1 PUSH1 0x1 PUSH1 0xA0 SHL SUB SWAP3 SWAP1 SWAP3 AND SWAP2 SWAP1 SWAP2 OR SWAP1 SSTORE JUMP JUMPDEST CALLER PUSH1 0x0 SWAP1 DUP2 MSTORE PUSH1 0x5 PUSH1 0x20 SWAP1 DUP2 MSTORE PUSH1 0x40 SWAP2 DUP3 SWAP1 KECCAK256 DUP1 SLOAD DUP4 MLOAD DUP2 DUP5 MUL DUP2 ADD DUP5 ADD SWAP1 SWAP5 MSTORE DUP1 DUP5 MSTORE PUSH1 0x60 SWAP4 SWAP3 DUP4 ADD DUP3 DUP3 DUP1 ISZERO PUSH2 0xB0A JUMPI PUSH1 0x20 MUL DUP3 ADD SWAP2 SWAP1 PUSH1 0x0 MSTORE PUSH1 0x20 PUSH1 0x0 KECCAK256 SWAP1 JUMPDEST DUP2 SLOAD DUP2 MSTORE PUSH1 0x20 ADD SWAP1 PUSH1 0x1 ADD SWAP1 DUP1 DUP4 GT PUSH2 0xAF6 JUMPI JUMPDEST POP POP POP POP POP SWAP1 POP SWAP1 JUMP JUMPDEST PUSH2 0xB1C PUSH2 0xD31 JUMP JUMPDEST PUSH1 0x1 PUSH1 0x1 PUSH1 0xA0 SHL SUB DUP2 AND PUSH2 0xB81 JUMPI PUSH1 0x40 MLOAD PUSH3 0x461BCD PUSH1 0xE5 SHL DUP2 MSTORE PUSH1 0x20 PUSH1 0x4 DUP3 ADD MSTORE PUSH1 0x26 PUSH1 0x24 DUP3 ADD MSTORE PUSH32 0x4F776E61626C653A206E6577206F776E657220697320746865207A65726F2061 PUSH1 0x44 DUP3 ADD MSTORE PUSH6 0x646472657373 PUSH1 0xD0 SHL PUSH1 0x64 DUP3 ADD MSTORE PUSH1 0x84 ADD PUSH2 0x31D JUMP JUMPDEST PUSH2 0xB8A DUP2 PUSH2 0xD8B JUMP JUMPDEST POP JUMP JUMPDEST PUSH1 0x60 PUSH1 0x0 DUP3 PUSH8 0xFFFFFFFFFFFFFFFF DUP2 GT ISZERO PUSH2 0xBAA JUMPI PUSH2 0xBAA PUSH2 0x14E5 JUMP JUMPDEST PUSH1 0x40 MLOAD SWAP1 DUP1 DUP3 MSTORE DUP1 PUSH1 0x20 MUL PUSH1 0x20 ADD DUP3 ADD PUSH1 0x40 MSTORE DUP1 ISZERO PUSH2 0xBD3 JUMPI DUP2 PUSH1 0x20 ADD PUSH1 0x20 DUP3 MUL DUP1 CALLDATASIZE DUP4 CALLDATACOPY ADD SWAP1 POP JUMPDEST POP SWAP1 POP PUSH1 0x0 JUMPDEST DUP4 DUP2 LT ISZERO PUSH2 0xD28 JUMPI PUSH1 0x0 PUSH2 0xBEC DUP7 PUSH2 0xDDB JUMP JUMPDEST SWAP1 POP PUSH1 0x0 PUSH2 0xBF9 DUP3 PUSH2 0xF83 JUMP JUMPDEST SWAP1 POP PUSH1 0x0 PUSH2 0xC06 DUP4 PUSH2 0x1277 JUMP JUMPDEST SWAP1 POP PUSH1 0x0 PUSH1 0x2 PUSH1 0x0 SWAP1 SLOAD SWAP1 PUSH2 0x100 EXP SWAP1 DIV PUSH1 0x1 PUSH1 0x1 PUSH1 0xA0 SHL SUB AND PUSH1 0x1 PUSH1 0x1 PUSH1 0xA0 SHL SUB AND PUSH4 0xDE7BD8F7 DUP12 DUP5 DUP7 PUSH1 0x0 ADD MLOAD DUP8 PUSH1 0x20 ADD MLOAD DUP9 PUSH1 0x40 ADD MLOAD DUP10 PUSH1 0x60 ADD MLOAD DUP11 PUSH1 0x80 ADD MLOAD PUSH1 0x40 MLOAD DUP9 PUSH4 0xFFFFFFFF AND PUSH1 0xE0 SHL DUP2 MSTORE PUSH1 0x4 ADD PUSH2 0xC6B SWAP8 SWAP7 SWAP6 SWAP5 SWAP4 SWAP3 SWAP2 SWAP1 PUSH2 0x1BA1 JUMP JUMPDEST PUSH1 0x20 PUSH1 0x40 MLOAD DUP1 DUP4 SUB DUP2 PUSH1 0x0 DUP8 GAS CALL ISZERO DUP1 ISZERO PUSH2 0xC8A JUMPI RETURNDATASIZE PUSH1 0x0 DUP1 RETURNDATACOPY RETURNDATASIZE PUSH1 0x0 REVERT JUMPDEST POP POP POP POP PUSH1 0x40 MLOAD RETURNDATASIZE PUSH1 0x1F NOT PUSH1 0x1F DUP3 ADD AND DUP3 ADD DUP1 PUSH1 0x40 MSTORE POP DUP2 ADD SWAP1 PUSH2 0xCAE SWAP2 SWAP1 PUSH2 0x1921 JUMP JUMPDEST SWAP1 POP DUP1 DUP7 DUP7 DUP2 MLOAD DUP2 LT PUSH2 0xCC3 JUMPI PUSH2 0xCC3 PUSH2 0x1ACA JUMP JUMPDEST PUSH1 0x20 MUL PUSH1 0x20 ADD ADD DUP2 DUP2 MSTORE POP POP DUP10 PUSH1 0x1 PUSH1 0x1 PUSH1 0xA0 SHL SUB AND DUP2 PUSH32 0x69CE09A1B4F78BA0DF8EB79EAC9C07CBBA3EAA23FB89B100848766B51EFBC4E5 DUP7 PUSH1 0x40 MLOAD PUSH2 0xD09 SWAP2 SWAP1 PUSH2 0x171B JUMP JUMPDEST PUSH1 0x40 MLOAD DUP1 SWAP2 SUB SWAP1 LOG3 POP POP POP POP DUP1 DUP1 PUSH2 0xD20 SWAP1 PUSH2 0x1B88 JUMP JUMPDEST SWAP2 POP POP PUSH2 0xBD9 JUMP JUMPDEST POP SWAP5 SWAP4 POP POP POP POP JUMP JUMPDEST PUSH1 0x0 SLOAD PUSH1 0x1 PUSH1 0x1 PUSH1 0xA0 SHL SUB AND CALLER EQ PUSH2 0x82E JUMPI PUSH1 0x40 MLOAD PUSH3 0x461BCD PUSH1 0xE5 SHL DUP2 MSTORE PUSH1 0x20 PUSH1 0x4 DUP3 ADD DUP2 SWAP1 MSTORE PUSH1 0x24 DUP3 ADD MSTORE PUSH32 0x4F776E61626C653A2063616C6C6572206973206E6F7420746865206F776E6572 PUSH1 0x44 DUP3 ADD MSTORE PUSH1 0x64 ADD PUSH2 0x31D JUMP JUMPDEST PUSH1 0x0 DUP1 SLOAD PUSH1 0x1 PUSH1 0x1 PUSH1 0xA0 SHL SUB DUP4 DUP2 AND PUSH1 0x1 PUSH1 0x1 PUSH1 0xA0 SHL SUB NOT DUP4 AND DUP2 OR DUP5 SSTORE PUSH1 0x40 MLOAD SWAP2 SWAP1 SWAP3 AND SWAP3 DUP4 SWAP2 PUSH32 0x8BE0079C531659141344CD1FD0A4F28419497F9722A3DAAFE3B4186F6B6457E0 SWAP2 SWAP1 LOG3 POP POP JUMP JUMPDEST PUSH1 0x60 PUSH1 0x0 PUSH1 0x64 TIMESTAMP PREVRANDAO CALLER PUSH1 0x40 MLOAD PUSH1 0x20 ADD PUSH2 0xE14 SWAP4 SWAP3 SWAP2 SWAP1 SWAP3 DUP4 MSTORE PUSH1 0x20 DUP4 ADD SWAP2 SWAP1 SWAP2 MSTORE PUSH1 0x60 SHL PUSH1 0x1 PUSH1 0x1 PUSH1 0x60 SHL SUB NOT AND PUSH1 0x40 DUP3 ADD MSTORE PUSH1 0x54 ADD SWAP1 JUMP JUMPDEST PUSH1 0x40 MLOAD PUSH1 0x20 DUP2 DUP4 SUB SUB DUP2 MSTORE SWAP1 PUSH1 0x40 MSTORE DUP1 MLOAD SWAP1 PUSH1 0x20 ADD KECCAK256 PUSH1 0x0 SHR PUSH2 0xE37 SWAP2 SWAP1 PUSH2 0x1C14 JUMP JUMPDEST SWAP1 POP PUSH1 0x0 DUP1 JUMPDEST PUSH1 0x7 SLOAD DUP2 LT ISZERO PUSH2 0xF5D JUMPI PUSH1 0x0 PUSH1 0x7 DUP3 DUP2 SLOAD DUP2 LT PUSH2 0xE5C JUMPI PUSH2 0xE5C PUSH2 0x1ACA JUMP JUMPDEST SWAP1 PUSH1 0x0 MSTORE PUSH1 0x20 PUSH1 0x0 KECCAK256 ADD DUP1 SLOAD PUSH2 0xE71 SWAP1 PUSH2 0x195C JUMP JUMPDEST DUP1 PUSH1 0x1F ADD PUSH1 0x20 DUP1 SWAP2 DIV MUL PUSH1 0x20 ADD PUSH1 0x40 MLOAD SWAP1 DUP2 ADD PUSH1 0x40 MSTORE DUP1 SWAP3 SWAP2 SWAP1 DUP2 DUP2 MSTORE PUSH1 0x20 ADD DUP3 DUP1 SLOAD PUSH2 0xE9D SWAP1 PUSH2 0x195C JUMP JUMPDEST DUP1 ISZERO PUSH2 0xEEA JUMPI DUP1 PUSH1 0x1F LT PUSH2 0xEBF JUMPI PUSH2 0x100 DUP1 DUP4 SLOAD DIV MUL DUP4 MSTORE SWAP2 PUSH1 0x20 ADD SWAP2 PUSH2 0xEEA JUMP JUMPDEST DUP3 ADD SWAP2 SWAP1 PUSH1 0x0 MSTORE PUSH1 0x20 PUSH1 0x0 KECCAK256 SWAP1 JUMPDEST DUP2 SLOAD DUP2 MSTORE SWAP1 PUSH1 0x1 ADD SWAP1 PUSH1 0x20 ADD DUP1 DUP4 GT PUSH2 0xECD JUMPI DUP3 SWAP1 SUB PUSH1 0x1F AND DUP3 ADD SWAP2 JUMPDEST POP POP POP POP POP SWAP1 POP PUSH1 0x4 DUP7 PUSH1 0x40 MLOAD PUSH2 0xF01 SWAP2 SWAP1 PUSH2 0x18B9 JUMP JUMPDEST SWAP1 DUP2 MSTORE PUSH1 0x20 ADD PUSH1 0x40 MLOAD DUP1 SWAP2 SUB SWAP1 KECCAK256 DUP2 PUSH1 0x40 MLOAD PUSH2 0xF1D SWAP2 SWAP1 PUSH2 0x18B9 JUMP JUMPDEST SWAP1 DUP2 MSTORE PUSH1 0x20 ADD PUSH1 0x40 MLOAD DUP1 SWAP2 SUB SWAP1 KECCAK256 SLOAD DUP4 PUSH2 0xF37 SWAP2 SWAP1 PUSH2 0x1AF6 JUMP JUMPDEST SWAP3 POP DUP3 DUP5 LT ISZERO PUSH2 0xF4A JUMPI SWAP6 SWAP5 POP POP POP POP POP JUMP JUMPDEST POP DUP1 PUSH2 0xF55 DUP2 PUSH2 0x1B88 JUMP JUMPDEST SWAP2 POP POP PUSH2 0xE3D JUMP JUMPDEST POP POP PUSH1 0x40 DUP1 MLOAD DUP1 DUP3 ADD SWAP1 SWAP2 MSTORE PUSH1 0x6 DUP2 MSTORE PUSH6 0x31B7B6B6B7B7 PUSH1 0xD1 SHL PUSH1 0x20 DUP3 ADD MSTORE SWAP4 SWAP3 POP POP POP JUMP JUMPDEST PUSH2 0xFB5 PUSH1 0x40 MLOAD DUP1 PUSH1 0xA0 ADD PUSH1 0x40 MSTORE DUP1 PUSH1 0x60 DUP2 MSTORE PUSH1 0x20 ADD PUSH1 0x0 DUP2 MSTORE PUSH1 0x20 ADD PUSH1 0x0 DUP2 MSTORE PUSH1 0x20 ADD PUSH1 0x0 DUP2 MSTORE PUSH1 0x20 ADD PUSH1 0x0 DUP2 MSTORE POP SWAP1 JUMP JUMPDEST PUSH1 0x0 PUSH2 0xFE2 DUP4 PUSH1 0x40 MLOAD DUP1 PUSH1 0x40 ADD PUSH1 0x40 MSTORE DUP1 PUSH1 0x9 DUP2 MSTORE PUSH1 0x20 ADD PUSH9 0x6C6567656E64617279 PUSH1 0xB8 SHL DUP2 MSTORE POP PUSH2 0x12FE JUMP JUMPDEST ISZERO PUSH2 0xFEF JUMPI POP PUSH1 0x3 PUSH2 0x1059 JUMP JUMPDEST PUSH2 0x1015 DUP4 PUSH1 0x40 MLOAD DUP1 PUSH1 0x40 ADD PUSH1 0x40 MSTORE DUP1 PUSH1 0x4 DUP2 MSTORE PUSH1 0x20 ADD PUSH4 0x65706963 PUSH1 0xE0 SHL DUP2 MSTORE POP PUSH2 0x12FE JUMP JUMPDEST ISZERO PUSH2 0x1022 JUMPI POP PUSH1 0x2 PUSH2 0x1059 JUMP JUMPDEST PUSH2 0x1048 DUP4 PUSH1 0x40 MLOAD DUP1 PUSH1 0x40 ADD PUSH1 0x40 MSTORE DUP1 PUSH1 0x4 DUP2 MSTORE PUSH1 0x20 ADD PUSH4 0x72617265 PUSH1 0xE0 SHL DUP2 MSTORE POP PUSH2 0x12FE JUMP JUMPDEST ISZERO PUSH2 0x1055 JUMPI POP PUSH1 0xF PUSH2 0x1059 JUMP JUMPDEST POP PUSH1 0xA JUMPDEST PUSH1 0x40 MLOAD PUSH6 0x61747461636B PUSH1 0xD0 SHL PUSH1 0x20 DUP3 ADD MSTORE TIMESTAMP PUSH1 0x26 DUP3 ADD MSTORE PUSH1 0x1 PUSH1 0x1 PUSH1 0x60 SHL SUB NOT CALLER PUSH1 0x60 SHL AND PUSH1 0x46 DUP3 ADD MSTORE PUSH1 0x0 SWAP1 PUSH1 0x1E SWAP1 PUSH1 0x5A ADD PUSH1 0x40 MLOAD PUSH1 0x20 DUP2 DUP4 SUB SUB DUP2 MSTORE SWAP1 PUSH1 0x40 MSTORE DUP1 MLOAD SWAP1 PUSH1 0x20 ADD KECCAK256 PUSH1 0x0 SHR PUSH2 0x10B0 SWAP2 SWAP1 PUSH2 0x1C14 JUMP JUMPDEST PUSH2 0x10BB SWAP1 PUSH1 0xA PUSH2 0x1AF6 JUMP JUMPDEST PUSH1 0x40 MLOAD PUSH7 0x646566656E7365 PUSH1 0xC8 SHL PUSH1 0x20 DUP3 ADD MSTORE TIMESTAMP PUSH1 0x27 DUP3 ADD MSTORE PUSH1 0x1 PUSH1 0x1 PUSH1 0x60 SHL SUB NOT CALLER PUSH1 0x60 SHL AND PUSH1 0x47 DUP3 ADD MSTORE SWAP1 SWAP2 POP PUSH1 0x0 SWAP1 PUSH1 0x1E SWAP1 PUSH1 0x5B ADD PUSH1 0x40 MLOAD PUSH1 0x20 DUP2 DUP4 SUB SUB DUP2 MSTORE SWAP1 PUSH1 0x40 MSTORE DUP1 MLOAD SWAP1 PUSH1 0x20 ADD KECCAK256 PUSH1 0x0 SHR PUSH2 0x1116 SWAP2 SWAP1 PUSH2 0x1C14 JUMP JUMPDEST PUSH2 0x1121 SWAP1 PUSH1 0xA PUSH2 0x1AF6 JUMP JUMPDEST PUSH1 0x40 MLOAD PUSH5 0x6D61676963 PUSH1 0xD8 SHL PUSH1 0x20 DUP3 ADD MSTORE TIMESTAMP PUSH1 0x25 DUP3 ADD MSTORE PUSH1 0x1 PUSH1 0x1 PUSH1 0x60 SHL SUB NOT CALLER PUSH1 0x60 SHL AND PUSH1 0x45 DUP3 ADD MSTORE SWAP1 SWAP2 POP PUSH1 0x0 SWAP1 PUSH1 0x1E SWAP1 PUSH1 0x59 ADD PUSH1 0x40 MLOAD PUSH1 0x20 DUP2 DUP4 SUB SUB DUP2 MSTORE SWAP1 PUSH1 0x40 MSTORE DUP1 MLOAD SWAP1 PUSH1 0x20 ADD KECCAK256 PUSH1 0x0 SHR PUSH2 0x117A SWAP2 SWAP1 PUSH2 0x1C14 JUMP JUMPDEST PUSH2 0x1185 SWAP1 PUSH1 0xA PUSH2 0x1AF6 JUMP JUMPDEST PUSH1 0x40 MLOAD PUSH5 0x1CDC195959 PUSH1 0xDA SHL PUSH1 0x20 DUP3 ADD MSTORE TIMESTAMP PUSH1 0x25 DUP3 ADD MSTORE PUSH1 0x1 PUSH1 0x1 PUSH1 0x60 SHL SUB NOT CALLER PUSH1 0x60 SHL AND PUSH1 0x45 DUP3 ADD MSTORE SWAP1 SWAP2 POP PUSH1 0x0 SWAP1 PUSH1 0x1E SWAP1 PUSH1 0x59 ADD PUSH1 0x40 MLOAD PUSH1 0x20 DUP2 DUP4 SUB SUB DUP2 MSTORE SWAP1 PUSH1 0x40 MSTORE DUP1 MLOAD SWAP1 PUSH1 0x20 ADD KECCAK256 PUSH1 0x0 SHR PUSH2 0x11DE SWAP2 SWAP1 PUSH2 0x1C14 JUMP JUMPDEST PUSH2 0x11E9 SWAP1 PUSH1 0xA PUSH2 0x1AF6 JUMP JUMPDEST SWAP1 POP PUSH1 0xA PUSH2 0x11F7 DUP7 DUP7 PUSH2 0x1C28 JUMP JUMPDEST PUSH2 0x1201 SWAP2 SWAP1 PUSH2 0x1C3F JUMP JUMPDEST SWAP4 POP PUSH1 0xA PUSH2 0x120F DUP7 DUP6 PUSH2 0x1C28 JUMP JUMPDEST PUSH2 0x1219 SWAP2 SWAP1 PUSH2 0x1C3F JUMP JUMPDEST SWAP3 POP PUSH1 0xA PUSH2 0x1227 DUP7 DUP5 PUSH2 0x1C28 JUMP JUMPDEST PUSH2 0x1231 SWAP2 SWAP1 PUSH2 0x1C3F JUMP JUMPDEST SWAP2 POP PUSH1 0xA PUSH2 0x123F DUP7 DUP4 PUSH2 0x1C28 JUMP JUMPDEST PUSH2 0x1249 SWAP2 SWAP1 PUSH2 0x1C3F JUMP JUMPDEST PUSH1 0x40 DUP1 MLOAD PUSH1 0xA0 DUP2 ADD DUP3 MSTORE SWAP9 DUP10 MSTORE PUSH1 0x20 DUP10 ADD SWAP6 SWAP1 SWAP6 MSTORE SWAP4 DUP8 ADD SWAP3 SWAP1 SWAP3 MSTORE PUSH1 0x60 DUP7 ADD MSTORE POP PUSH1 0x80 DUP5 ADD MSTORE POP SWAP1 SWAP2 SWAP1 POP JUMP JUMPDEST PUSH1 0x60 PUSH1 0x0 TIMESTAMP PREVRANDAO CALLER PUSH1 0x40 MLOAD PUSH1 0x20 ADD PUSH2 0x12AE SWAP4 SWAP3 SWAP2 SWAP1 SWAP3 DUP4 MSTORE PUSH1 0x20 DUP4 ADD SWAP2 SWAP1 SWAP2 MSTORE PUSH1 0x60 SHL PUSH1 0x1 PUSH1 0x1 PUSH1 0x60 SHL SUB NOT AND PUSH1 0x40 DUP3 ADD MSTORE PUSH1 0x54 ADD SWAP1 JUMP JUMPDEST PUSH1 0x40 MLOAD PUSH1 0x20 DUP2 DUP4 SUB SUB DUP2 MSTORE SWAP1 PUSH1 0x40 MSTORE DUP1 MLOAD SWAP1 PUSH1 0x20 ADD KECCAK256 PUSH1 0x0 SHR SWAP1 POP PUSH1 0x6 DUP4 PUSH2 0x12D5 DUP4 PUSH2 0x131A JUMP JUMPDEST PUSH1 0x40 MLOAD PUSH1 0x20 ADD PUSH2 0x12E7 SWAP4 SWAP3 SWAP2 SWAP1 PUSH2 0x1C53 JUMP JUMPDEST PUSH1 0x40 MLOAD PUSH1 0x20 DUP2 DUP4 SUB SUB DUP2 MSTORE SWAP1 PUSH1 0x40 MSTORE SWAP2 POP POP SWAP2 SWAP1 POP JUMP JUMPDEST PUSH1 0x0 DUP2 DUP1 MLOAD SWAP1 PUSH1 0x20 ADD KECCAK256 DUP4 DUP1 MLOAD SWAP1 PUSH1 0x20 ADD KECCAK256 EQ SWAP1 POP JUMPDEST SWAP3 SWAP2 POP POP JUMP JUMPDEST PUSH1 0x60 PUSH1 0x0 PUSH2 0x1327 DUP4 PUSH2 0x13AD JUMP JUMPDEST PUSH1 0x1 ADD SWAP1 POP PUSH1 0x0 DUP2 PUSH8 0xFFFFFFFFFFFFFFFF DUP2 GT ISZERO PUSH2 0x1347 JUMPI PUSH2 0x1347 PUSH2 0x14E5 JUMP JUMPDEST PUSH1 0x40 MLOAD SWAP1 DUP1 DUP3 MSTORE DUP1 PUSH1 0x1F ADD PUSH1 0x1F NOT AND PUSH1 0x20 ADD DUP3 ADD PUSH1 0x40 MSTORE DUP1 ISZERO PUSH2 0x1371 JUMPI PUSH1 0x20 DUP3 ADD DUP2 DUP1 CALLDATASIZE DUP4 CALLDATACOPY ADD SWAP1 POP JUMPDEST POP SWAP1 POP DUP2 DUP2 ADD PUSH1 0x20 ADD JUMPDEST PUSH1 0x0 NOT ADD PUSH16 0x181899199A1A9B1B9C1CB0B131B232B3 PUSH1 0x81 SHL PUSH1 0xA DUP7 MOD BYTE DUP2 MSTORE8 PUSH1 0xA DUP6 DIV SWAP5 POP DUP5 PUSH2 0x137B JUMPI POP SWAP4 SWAP3 POP POP POP JUMP JUMPDEST PUSH1 0x0 DUP1 PUSH19 0x184F03E93FF9F4DAA797ED6E38ED64BF6A1F01 PUSH1 0x40 SHL DUP4 LT PUSH2 0x13EC JUMPI PUSH19 0x184F03E93FF9F4DAA797ED6E38ED64BF6A1F01 PUSH1 0x40 SHL DUP4 DIV SWAP3 POP PUSH1 0x40 ADD JUMPDEST PUSH14 0x4EE2D6D415B85ACEF8100000000 DUP4 LT PUSH2 0x1418 JUMPI PUSH14 0x4EE2D6D415B85ACEF8100000000 DUP4 DIV SWAP3 POP PUSH1 0x20 ADD JUMPDEST PUSH7 0x2386F26FC10000 DUP4 LT PUSH2 0x1436 JUMPI PUSH7 0x2386F26FC10000 DUP4 DIV SWAP3 POP PUSH1 0x10 ADD JUMPDEST PUSH4 0x5F5E100 DUP4 LT PUSH2 0x144E JUMPI PUSH4 0x5F5E100 DUP4 DIV SWAP3 POP PUSH1 0x8 ADD JUMPDEST PUSH2 0x2710 DUP4 LT PUSH2 0x1462 JUMPI PUSH2 0x2710 DUP4 DIV SWAP3 POP PUSH1 0x4 ADD JUMPDEST PUSH1 0x64 DUP4 LT PUSH2 0x1474 JUMPI PUSH1 0x64 DUP4 DIV SWAP3 POP PUSH1 0x2 ADD JUMPDEST PUSH1 0xA DUP4 LT PUSH2 0x1314 JUMPI PUSH1 0x1 ADD SWAP3 SWAP2 POP POP JUMP JUMPDEST DUP3 DUP1 SLOAD DUP3 DUP3 SSTORE SWAP1 PUSH1 0x0 MSTORE PUSH1 0x20 PUSH1 0x0 KECCAK256 SWAP1 DUP2 ADD SWAP3 DUP3 ISZERO PUSH2 0x14C0 JUMPI SWAP2 PUSH1 0x20 MUL DUP3 ADD JUMPDEST DUP3 DUP2 GT ISZERO PUSH2 0x14C0 JUMPI DUP3 MLOAD DUP3 SSTORE SWAP2 PUSH1 0x20 ADD SWAP2 SWAP1 PUSH1 0x1 ADD SWAP1 PUSH2 0x14A5 JUMP JUMPDEST POP PUSH2 0x14CC SWAP3 SWAP2 POP PUSH2 0x14D0 JUMP JUMPDEST POP SWAP1 JUMP JUMPDEST JUMPDEST DUP1 DUP3 GT ISZERO PUSH2 0x14CC JUMPI PUSH1 0x0 DUP2 SSTORE PUSH1 0x1 ADD PUSH2 0x14D1 JUMP JUMPDEST PUSH4 0x4E487B71 PUSH1 0xE0 SHL PUSH1 0x0 MSTORE PUSH1 0x41 PUSH1 0x4 MSTORE PUSH1 0x24 PUSH1 0x0 REVERT JUMPDEST PUSH1 0x40 MLOAD PUSH1 0x1F DUP3 ADD PUSH1 0x1F NOT AND DUP2 ADD PUSH8 0xFFFFFFFFFFFFFFFF DUP2 GT DUP3 DUP3 LT OR ISZERO PUSH2 0x1524 JUMPI PUSH2 0x1524 PUSH2 0x14E5 JUMP JUMPDEST PUSH1 0x40 MSTORE SWAP2 SWAP1 POP JUMP JUMPDEST PUSH1 0x0 DUP3 PUSH1 0x1F DUP4 ADD SLT PUSH2 0x153D JUMPI PUSH1 0x0 DUP1 REVERT JUMPDEST DUP2 CALLDATALOAD PUSH8 0xFFFFFFFFFFFFFFFF DUP2 GT ISZERO PUSH2 0x1557 JUMPI PUSH2 0x1557 PUSH2 0x14E5 JUMP JUMPDEST PUSH2 0x156A PUSH1 0x1F DUP3 ADD PUSH1 0x1F NOT AND PUSH1 0x20 ADD PUSH2 0x14FB JUMP JUMPDEST DUP2 DUP2 MSTORE DUP5 PUSH1 0x20 DUP4 DUP7 ADD ADD GT ISZERO PUSH2 0x157F JUMPI PUSH1 0x0 DUP1 REVERT JUMPDEST DUP2 PUSH1 0x20 DUP6 ADD PUSH1 0x20 DUP4 ADD CALLDATACOPY PUSH1 0x0 SWAP2 DUP2 ADD PUSH1 0x20 ADD SWAP2 SWAP1 SWAP2 MSTORE SWAP4 SWAP3 POP POP POP JUMP JUMPDEST PUSH1 0x0 DUP1 PUSH1 0x40 DUP4 DUP6 SUB SLT ISZERO PUSH2 0x15AF JUMPI PUSH1 0x0 DUP1 REVERT JUMPDEST DUP3 CALLDATALOAD PUSH8 0xFFFFFFFFFFFFFFFF DUP1 DUP3 GT ISZERO PUSH2 0x15C7 JUMPI PUSH1 0x0 DUP1 REVERT JUMPDEST PUSH2 0x15D3 DUP7 DUP4 DUP8 ADD PUSH2 0x152C JUMP JUMPDEST SWAP4 POP PUSH1 0x20 DUP6 ADD CALLDATALOAD SWAP2 POP DUP1 DUP3 GT ISZERO PUSH2 0x15E9 JUMPI PUSH1 0x0 DUP1 REVERT JUMPDEST POP PUSH2 0x15F6 DUP6 DUP3 DUP7 ADD PUSH2 0x152C JUMP JUMPDEST SWAP2 POP POP SWAP3 POP SWAP3 SWAP1 POP JUMP JUMPDEST PUSH1 0x0 PUSH1 0x20 DUP3 DUP5 SUB SLT ISZERO PUSH2 0x1612 JUMPI PUSH1 0x0 DUP1 REVERT JUMPDEST DUP2 CALLDATALOAD PUSH8 0xFFFFFFFFFFFFFFFF DUP2 GT ISZERO PUSH2 0x1629 JUMPI PUSH1 0x0 DUP1 REVERT JUMPDEST PUSH2 0x1635 DUP5 DUP3 DUP6 ADD PUSH2 0x152C JUMP JUMPDEST SWAP5 SWAP4 POP POP POP POP JUMP JUMPDEST PUSH1 0x20 DUP1 DUP3 MSTORE DUP3 MLOAD DUP3 DUP3 ADD DUP2 SWAP1 MSTORE PUSH1 0x0 SWAP2 SWAP1 DUP5 DUP3 ADD SWAP1 PUSH1 0x40 DUP6 ADD SWAP1 DUP5 JUMPDEST DUP2 DUP2 LT ISZERO PUSH2 0x1675 JUMPI DUP4 MLOAD DUP4 MSTORE SWAP3 DUP5 ADD SWAP3 SWAP2 DUP5 ADD SWAP2 PUSH1 0x1 ADD PUSH2 0x1659 JUMP JUMPDEST POP SWAP1 SWAP7 SWAP6 POP POP POP POP POP POP JUMP JUMPDEST PUSH1 0x0 JUMPDEST DUP4 DUP2 LT ISZERO PUSH2 0x169C JUMPI DUP2 DUP2 ADD MLOAD DUP4 DUP3 ADD MSTORE PUSH1 0x20 ADD PUSH2 0x1684 JUMP JUMPDEST POP POP PUSH1 0x0 SWAP2 ADD MSTORE JUMP JUMPDEST PUSH1 0x0 DUP2 MLOAD DUP1 DUP5 MSTORE PUSH2 0x16BD DUP2 PUSH1 0x20 DUP7 ADD PUSH1 0x20 DUP7 ADD PUSH2 0x1681 JUMP JUMPDEST PUSH1 0x1F ADD PUSH1 0x1F NOT AND SWAP3 SWAP1 SWAP3 ADD PUSH1 0x20 ADD SWAP3 SWAP2 POP POP JUMP JUMPDEST PUSH1 0x80 DUP2 MSTORE PUSH1 0x0 PUSH2 0x16E4 PUSH1 0x80 DUP4 ADD DUP8 PUSH2 0x16A5 JUMP JUMPDEST PUSH1 0x20 DUP4 ADD SWAP6 SWAP1 SWAP6 MSTORE POP PUSH1 0x40 DUP2 ADD SWAP3 SWAP1 SWAP3 MSTORE ISZERO ISZERO PUSH1 0x60 SWAP1 SWAP2 ADD MSTORE SWAP2 SWAP1 POP JUMP JUMPDEST PUSH1 0x0 PUSH1 0x20 DUP3 DUP5 SUB SLT ISZERO PUSH2 0x1714 JUMPI PUSH1 0x0 DUP1 REVERT JUMPDEST POP CALLDATALOAD SWAP2 SWAP1 POP JUMP JUMPDEST PUSH1 0x20 DUP2 MSTORE PUSH1 0x0 PUSH2 0x172E PUSH1 0x20 DUP4 ADD DUP5 PUSH2 0x16A5 JUMP JUMPDEST SWAP4 SWAP3 POP POP POP JUMP JUMPDEST PUSH1 0x0 DUP1 PUSH1 0x0 DUP1 PUSH1 0x0 PUSH1 0xA0 DUP7 DUP9 SUB SLT ISZERO PUSH2 0x174D JUMPI PUSH1 0x0 DUP1 REVERT JUMPDEST DUP6 CALLDATALOAD PUSH8 0xFFFFFFFFFFFFFFFF DUP1 DUP3 GT ISZERO PUSH2 0x1765 JUMPI PUSH1 0x0 DUP1 REVERT JUMPDEST PUSH2 0x1771 DUP10 DUP4 DUP11 ADD PUSH2 0x152C JUMP JUMPDEST SWAP7 POP PUSH1 0x20 DUP9 ADD CALLDATALOAD SWAP2 POP DUP1 DUP3 GT ISZERO PUSH2 0x1787 JUMPI PUSH1 0x0 DUP1 REVERT JUMPDEST POP PUSH2 0x1794 DUP9 DUP3 DUP10 ADD PUSH2 0x152C JUMP JUMPDEST SWAP5 POP POP PUSH1 0x40 DUP7 ADD CALLDATALOAD SWAP3 POP PUSH1 0x60 DUP7 ADD CALLDATALOAD SWAP2 POP PUSH1 0x80 DUP7 ADD CALLDATALOAD DUP1 ISZERO ISZERO DUP2 EQ PUSH2 0x17B8 JUMPI PUSH1 0x0 DUP1 REVERT JUMPDEST DUP1 SWAP2 POP POP SWAP3 SWAP6 POP SWAP3 SWAP6 SWAP1 SWAP4 POP JUMP JUMPDEST PUSH1 0x0 DUP1 PUSH1 0x40 DUP4 DUP6 SUB SLT ISZERO PUSH2 0x17D9 JUMPI PUSH1 0x0 DUP1 REVERT JUMPDEST DUP3 CALLDATALOAD PUSH8 0xFFFFFFFFFFFFFFFF DUP1 DUP3 GT ISZERO PUSH2 0x17F1 JUMPI PUSH1 0x0 DUP1 REVERT JUMPDEST PUSH2 0x17FD DUP7 DUP4 DUP8 ADD PUSH2 0x152C JUMP JUMPDEST SWAP4 POP PUSH1 0x20 SWAP2 POP DUP2 DUP6 ADD CALLDATALOAD DUP2 DUP2 GT ISZERO PUSH2 0x1814 JUMPI PUSH1 0x0 DUP1 REVERT JUMPDEST DUP6 ADD PUSH1 0x1F DUP2 ADD DUP8 SGT PUSH2 0x1825 JUMPI PUSH1 0x0 DUP1 REVERT JUMPDEST DUP1 CALLDATALOAD DUP3 DUP2 GT ISZERO PUSH2 0x1837 JUMPI PUSH2 0x1837 PUSH2 0x14E5 JUMP JUMPDEST DUP1 PUSH1 0x5 SHL SWAP3 POP PUSH2 0x1848 DUP5 DUP5 ADD PUSH2 0x14FB JUMP JUMPDEST DUP2 DUP2 MSTORE SWAP3 DUP3 ADD DUP5 ADD SWAP3 DUP5 DUP2 ADD SWAP1 DUP10 DUP6 GT ISZERO PUSH2 0x1862 JUMPI PUSH1 0x0 DUP1 REVERT JUMPDEST SWAP3 DUP6 ADD SWAP3 JUMPDEST DUP5 DUP5 LT ISZERO PUSH2 0x1880 JUMPI DUP4 CALLDATALOAD DUP3 MSTORE SWAP3 DUP6 ADD SWAP3 SWAP1 DUP6 ADD SWAP1 PUSH2 0x1867 JUMP JUMPDEST DUP1 SWAP7 POP POP POP POP POP POP POP SWAP3 POP SWAP3 SWAP1 POP JUMP JUMPDEST PUSH1 0x0 PUSH1 0x20 DUP3 DUP5 SUB SLT ISZERO PUSH2 0x18A2 JUMPI PUSH1 0x0 DUP1 REVERT JUMPDEST DUP2 CALLDATALOAD PUSH1 0x1 PUSH1 0x1 PUSH1 0xA0 SHL SUB DUP2 AND DUP2 EQ PUSH2 0x172E JUMPI PUSH1 0x0 DUP1 REVERT JUMPDEST PUSH1 0x0 DUP3 MLOAD PUSH2 0x18CB DUP2 DUP5 PUSH1 0x20 DUP8 ADD PUSH2 0x1681 JUMP JUMPDEST SWAP2 SWAP1 SWAP2 ADD SWAP3 SWAP2 POP POP JUMP JUMPDEST PUSH1 0x20 DUP1 DUP3 MSTORE PUSH1 0x2C SWAP1 DUP3 ADD MSTORE PUSH32 0x454643426F6F737465723A20696E76616C6964206F7220696E61637469766520 PUSH1 0x40 DUP3 ADD MSTORE PUSH12 0x626F6F737465722074797065 PUSH1 0xA0 SHL PUSH1 0x60 DUP3 ADD MSTORE PUSH1 0x80 ADD SWAP1 JUMP JUMPDEST PUSH1 0x0 PUSH1 0x20 DUP3 DUP5 SUB SLT ISZERO PUSH2 0x1933 JUMPI PUSH1 0x0 DUP1 REVERT JUMPDEST POP MLOAD SWAP2 SWAP1 POP JUMP JUMPDEST PUSH1 0x40 DUP2 MSTORE PUSH1 0x0 PUSH2 0x194D PUSH1 0x40 DUP4 ADD DUP6 PUSH2 0x16A5 JUMP JUMPDEST SWAP1 POP DUP3 PUSH1 0x20 DUP4 ADD MSTORE SWAP4 SWAP3 POP POP POP JUMP JUMPDEST PUSH1 0x1 DUP2 DUP2 SHR SWAP1 DUP3 AND DUP1 PUSH2 0x1970 JUMPI PUSH1 0x7F DUP3 AND SWAP2 POP JUMPDEST PUSH1 0x20 DUP3 LT DUP2 SUB PUSH2 0x1990 JUMPI PUSH4 0x4E487B71 PUSH1 0xE0 SHL PUSH1 0x0 MSTORE PUSH1 0x22 PUSH1 0x4 MSTORE PUSH1 0x24 PUSH1 0x0 REVERT JUMPDEST POP SWAP2 SWAP1 POP JUMP JUMPDEST PUSH1 0x1F DUP3 GT ISZERO PUSH2 0x19E0 JUMPI PUSH1 0x0 DUP2 DUP2 MSTORE PUSH1 0x20 DUP2 KECCAK256 PUSH1 0x1F DUP6 ADD PUSH1 0x5 SHR DUP2 ADD PUSH1 0x20 DUP7 LT ISZERO PUSH2 0x19BD JUMPI POP DUP1 JUMPDEST PUSH1 0x1F DUP6 ADD PUSH1 0x5 SHR DUP3 ADD SWAP2 POP JUMPDEST DUP2 DUP2 LT ISZERO PUSH2 0x19DC JUMPI DUP3 DUP2 SSTORE PUSH1 0x1 ADD PUSH2 0x19C9 JUMP JUMPDEST POP POP POP JUMPDEST POP POP POP JUMP JUMPDEST DUP2 MLOAD PUSH8 0xFFFFFFFFFFFFFFFF DUP2 GT ISZERO PUSH2 0x19FF JUMPI PUSH2 0x19FF PUSH2 0x14E5 JUMP JUMPDEST PUSH2 0x1A13 DUP2 PUSH2 0x1A0D DUP5 SLOAD PUSH2 0x195C JUMP JUMPDEST DUP5 PUSH2 0x1996 JUMP JUMPDEST PUSH1 0x20 DUP1 PUSH1 0x1F DUP4 GT PUSH1 0x1 DUP2 EQ PUSH2 0x1A48 JUMPI PUSH1 0x0 DUP5 ISZERO PUSH2 0x1A30 JUMPI POP DUP6 DUP4 ADD MLOAD JUMPDEST PUSH1 0x0 NOT PUSH1 0x3 DUP7 SWAP1 SHL SHR NOT AND PUSH1 0x1 DUP6 SWAP1 SHL OR DUP6 SSTORE PUSH2 0x19DC JUMP JUMPDEST PUSH1 0x0 DUP6 DUP2 MSTORE PUSH1 0x20 DUP2 KECCAK256 PUSH1 0x1F NOT DUP7 AND SWAP2 JUMPDEST DUP3 DUP2 LT ISZERO PUSH2 0x1A77 JUMPI DUP9 DUP7 ADD MLOAD DUP3 SSTORE SWAP5 DUP5 ADD SWAP5 PUSH1 0x1 SWAP1 SWAP2 ADD SWAP1 DUP5 ADD PUSH2 0x1A58 JUMP JUMPDEST POP DUP6 DUP3 LT ISZERO PUSH2 0x1A95 JUMPI DUP8 DUP6 ADD MLOAD PUSH1 0x0 NOT PUSH1 0x3 DUP9 SWAP1 SHL PUSH1 0xF8 AND SHR NOT AND DUP2 SSTORE JUMPDEST POP POP POP POP POP PUSH1 0x1 SWAP1 DUP2 SHL ADD SWAP1 SSTORE POP JUMP JUMPDEST PUSH1 0x60 DUP2 MSTORE PUSH1 0x0 PUSH2 0x1AB8 PUSH1 0x60 DUP4 ADD DUP7 PUSH2 0x16A5 JUMP JUMPDEST PUSH1 0x20 DUP4 ADD SWAP5 SWAP1 SWAP5 MSTORE POP PUSH1 0x40 ADD MSTORE SWAP2 SWAP1 POP JUMP JUMPDEST PUSH4 0x4E487B71 PUSH1 0xE0 SHL PUSH1 0x0 MSTORE PUSH1 0x32 PUSH1 0x4 MSTORE PUSH1 0x24 PUSH1 0x0 REVERT JUMPDEST PUSH4 0x4E487B71 PUSH1 0xE0 SHL PUSH1 0x0 MSTORE PUSH1 0x11 PUSH1 0x4 MSTORE PUSH1 0x24 PUSH1 0x0 REVERT JUMPDEST DUP1 DUP3 ADD DUP1 DUP3 GT ISZERO PUSH2 0x1314 JUMPI PUSH2 0x1314 PUSH2 0x1AE0 JUMP JUMPDEST PUSH1 0x0 DUP2 SLOAD PUSH2 0x1B16 DUP2 PUSH2 0x195C JUMP JUMPDEST PUSH1 0x1 DUP3 DUP2 AND DUP1 ISZERO PUSH2 0x1B2E JUMPI PUSH1 0x1 DUP2 EQ PUSH2 0x1B43 JUMPI PUSH2 0x1B72 JUMP JUMPDEST PUSH1 0xFF NOT DUP5 AND DUP8 MSTORE DUP3 ISZERO ISZERO DUP4 MUL DUP8 ADD SWAP5 POP PUSH2 0x1B72 JUMP JUMPDEST DUP6 PUSH1 0x0 MSTORE PUSH1 0x20 DUP1 PUSH1 0x0 KECCAK256 PUSH1 0x0 JUMPDEST DUP6 DUP2 LT ISZERO PUSH2 0x1B69 JUMPI DUP2 SLOAD DUP11 DUP3 ADD MSTORE SWAP1 DUP5 ADD SWAP1 DUP3 ADD PUSH2 0x1B50 JUMP JUMPDEST POP POP POP DUP3 DUP8 ADD SWAP5 POP JUMPDEST POP POP POP POP SWAP3 SWAP2 POP POP JUMP JUMPDEST PUSH1 0x0 PUSH2 0x172E DUP3 DUP5 PUSH2 0x1B09 JUMP JUMPDEST PUSH1 0x0 PUSH1 0x1 DUP3 ADD PUSH2 0x1B9A JUMPI PUSH2 0x1B9A PUSH2 0x1AE0 JUMP JUMPDEST POP PUSH1 0x1 ADD SWAP1 JUMP JUMPDEST PUSH1 0x1 PUSH1 0x1 PUSH1 0xA0 SHL SUB DUP9 AND DUP2 MSTORE PUSH1 0xE0 PUSH1 0x20 DUP3 ADD DUP2 SWAP1 MSTORE PUSH1 0x0 SWAP1 PUSH2 0x1BC5 SWAP1 DUP4 ADD DUP10 PUSH2 0x16A5 JUMP JUMPDEST DUP3 DUP2 SUB PUSH1 0x40 DUP5 ADD MSTORE PUSH2 0x1BD7 DUP2 DUP10 PUSH2 0x16A5 JUMP JUMPDEST SWAP2 POP POP DUP6 PUSH1 0x60 DUP4 ADD MSTORE DUP5 PUSH1 0x80 DUP4 ADD MSTORE DUP4 PUSH1 0xA0 DUP4 ADD MSTORE DUP3 PUSH1 0xC0 DUP4 ADD MSTORE SWAP9 SWAP8 POP POP POP POP POP POP POP POP JUMP JUMPDEST PUSH4 0x4E487B71 PUSH1 0xE0 SHL PUSH1 0x0 MSTORE PUSH1 0x12 PUSH1 0x4 MSTORE PUSH1 0x24 PUSH1 0x0 REVERT JUMPDEST PUSH1 0x0 DUP3 PUSH2 0x1C23 JUMPI PUSH2 0x1C23 PUSH2 0x1BFE JUMP JUMPDEST POP MOD SWAP1 JUMP JUMPDEST DUP1 DUP3 MUL DUP2 ISZERO DUP3 DUP3 DIV DUP5 EQ OR PUSH2 0x1314 JUMPI PUSH2 0x1314 PUSH2 0x1AE0 JUMP JUMPDEST PUSH1 0x0 DUP3 PUSH2 0x1C4E JUMPI PUSH2 0x1C4E PUSH2 0x1BFE JUMP JUMPDEST POP DIV SWAP1 JUMP JUMPDEST PUSH1 0x0 PUSH2 0x1C5F DUP3 DUP7 PUSH2 0x1B09 JUMP JUMPDEST DUP5 MLOAD PUSH2 0x1C6F DUP2 DUP4 PUSH1 0x20 DUP10 ADD PUSH2 0x1681 JUMP JUMPDEST PUSH1 0x2F PUSH1 0xF8 SHL SWAP2 ADD SWAP1 DUP2 MSTORE DUP4 MLOAD PUSH2 0x1C8C DUP2 PUSH1 0x1 DUP5 ADD PUSH1 0x20 DUP9 ADD PUSH2 0x1681 JUMP JUMPDEST PUSH5 0x173539B7B7 PUSH1 0xD9 SHL PUSH1 0x1 SWAP3 SWAP1 SWAP2 ADD SWAP2 DUP3 ADD MSTORE PUSH1 0x6 ADD SWAP6 SWAP5 POP POP POP POP POP JUMP INVALID LOG2 PUSH5 0x6970667358 0x22 SLT KECCAK256 NUMBER 0xF6 POP PUSH2 0x3549 0x2C 0xBA PUSH10 0x7BFFD2F9DC794D86A37D PUSH8 0x2C46F250822B44D7 SWAP1 DUP12 0xE4 PUSH12 0x64736F6C6343000813003300 "},"methodIdentifiers":{"availableRarities(uint256)":"59116fb3","baseURI()":"6c0360eb","boosters(string)":"5780e31e","cardContract()":"693bd2d0","getBoosterCardCount(string)":"bec251a2","getBoosterPrice(string)":"471ce26c","getLastPurchasedCards()":"d8ced56a","owner()":"8da5cb5b","purchaseBooster(string)":"3a6d9ba6","rarityProbabilities(string,string)":"00e7df99","renounceOwnership()":"715018a6","setBaseURI(string)":"55f804b3","setCardContract(address)":"c030d8b8","setTokenContract(address)":"bbcd5bbe","tokenContract()":"55a373d6","transferOwnership(address)":"f2fde38b","updateBooster(string,string,uint256,uint256,bool)":"6e0bbe66","updateRarityProbabilities(string,uint256[])":"ac82151e"}}}}}