{
  "_format": "hh-sol-artifact-1",
  "contractName": "EFCBooster",
  "sourceName": "contracts/EFCBooster.sol",
  "abi": [
    {
      "inputs": [
        {
          "internalType": "address",
          "name": "_tokenContract",
          "type": "address"
        },
        {
          "internalType": "address",
          "name": "_cardContract",
          "type": "address"
        },
        {
          "internalType": "string",
          "name": "_baseURI",
          "type": "string"
        }
      ],
      "stateMutability": "nonpayable",
      "type": "constructor"
    },
    {
      "anonymous": false,
      "inputs": [
        {
          "indexed": false,
          "internalType": "string",
          "name": "newBaseURI",
          "type": "string"
        }
      ],
      "name": "BaseURIUpdated",
      "type": "event"
    },
    {
      "anonymous": false,
      "inputs": [
        {
          "indexed": true,
          "internalType": "address",
          "name": "buyer",
          "type": "address"
        },
        {
          "indexed": false,
          "internalType": "string",
          "name": "boosterType",
          "type": "string"
        },
        {
          "indexed": false,
          "internalType": "uint256",
          "name": "price",
          "type": "uint256"
        }
      ],
      "name": "BoosterPurchased",
      "type": "event"
    },
    {
      "anonymous": false,
      "inputs": [
        {
          "indexed": false,
          "internalType": "string",
          "name": "boosterType",
          "type": "string"
        },
        {
          "indexed": false,
          "internalType": "uint256",
          "name": "price",
          "type": "uint256"
        },
        {
          "indexed": false,
          "internalType": "uint256",
          "name": "cardCount",
          "type": "uint256"
        }
      ],
      "name": "BoosterUpdated",
      "type": "event"
    },
    {
      "anonymous": false,
      "inputs": [
        {
          "indexed": true,
          "internalType": "uint256",
          "name": "tokenId",
          "type": "uint256"
        },
        {
          "indexed": true,
          "internalType": "address",
          "name": "owner",
          "type": "address"
        },
        {
          "indexed": false,
          "internalType": "string",
          "name": "rarity",
          "type": "string"
        }
      ],
      "name": "CardGenerated",
      "type": "event"
    },
    {
      "anonymous": false,
      "inputs": [
        {
          "indexed": true,
          "internalType": "address",
          "name": "previousOwner",
          "type": "address"
        },
        {
          "indexed": true,
          "internalType": "address",
          "name": "newOwner",
          "type": "address"
        }
      ],
      "name": "OwnershipTransferred",
      "type": "event"
    },
    {
      "anonymous": false,
      "inputs": [
        {
          "indexed": false,
          "internalType": "string",
          "name": "boosterType",
          "type": "string"
        }
      ],
      "name": "RarityProbabilitiesUpdated",
      "type": "event"
    },
    {
      "inputs": [
        {
          "internalType": "uint256",
          "name": "",
          "type": "uint256"
        }
      ],
      "name": "availableRarities",
      "outputs": [
        {
          "internalType": "string",
          "name": "",
          "type": "string"
        }
      ],
      "stateMutability": "view",
      "type": "function"
    },
    {
      "inputs": [],
      "name": "baseURI",
      "outputs": [
        {
          "internalType": "string",
          "name": "",
          "type": "string"
        }
      ],
      "stateMutability": "view",
      "type": "function"
    },
    {
      "inputs": [
        {
          "internalType": "string",
          "name": "",
          "type": "string"
        }
      ],
      "name": "boosters",
      "outputs": [
        {
          "internalType": "string",
          "name": "name",
          "type": "string"
        },
        {
          "internalType": "uint256",
          "name": "price",
          "type": "uint256"
        },
        {
          "internalType": "uint256",
          "name": "cardCount",
          "type": "uint256"
        },
        {
          "internalType": "bool",
          "name": "isActive",
          "type": "bool"
        }
      ],
      "stateMutability": "view",
      "type": "function"
    },
    {
      "inputs": [],
      "name": "cardContract",
      "outputs": [
        {
          "internalType": "contract EFCCard",
          "name": "",
          "type": "address"
        }
      ],
      "stateMutability": "view",
      "type": "function"
    },
    {
      "inputs": [
        {
          "internalType": "string",
          "name": "boosterType",
          "type": "string"
        }
      ],
      "name": "getBoosterCardCount",
      "outputs": [
        {
          "internalType": "uint256",
          "name": "",
          "type": "uint256"
        }
      ],
      "stateMutability": "view",
      "type": "function"
    },
    {
      "inputs": [
        {
          "internalType": "string",
          "name": "boosterType",
          "type": "string"
        }
      ],
      "name": "getBoosterPrice",
      "outputs": [
        {
          "internalType": "uint256",
          "name": "",
          "type": "uint256"
        }
      ],
      "stateMutability": "view",
      "type": "function"
    },
    {
      "inputs": [],
      "name": "getLastPurchasedCards",
      "outputs": [
        {
          "internalType": "uint256[]",
          "name": "",
          "type": "uint256[]"
        }
      ],
      "stateMutability": "view",
      "type": "function"
    },
    {
      "inputs": [],
      "name": "owner",
      "outputs": [
        {
          "internalType": "address",
          "name": "",
          "type": "address"
        }
      ],
      "stateMutability": "view",
      "type": "function"
    },
    {
      "inputs": [
        {
          "internalType": "string",
          "name": "boosterType",
          "type": "string"
        }
      ],
      "name": "purchaseBooster",
      "outputs": [
        {
          "internalType": "uint256[]",
          "name": "",
          "type": "uint256[]"
        }
      ],
      "stateMutability": "nonpayable",
      "type": "function"
    },
    {
      "inputs": [
        {
          "internalType": "string",
          "name": "",
          "type": "string"
        },
        {
          "internalType": "string",
          "name": "",
          "type": "string"
        }
      ],
      "name": "rarityProbabilities",
      "outputs": [
        {
          "internalType": "uint256",
          "name": "",
          "type": "uint256"
        }
      ],
      "stateMutability": "view",
      "type": "function"
    },
    {
      "inputs": [],
      "name": "renounceOwnership",
      "outputs": [],
      "stateMutability": "nonpayable",
      "type": "function"
    },
    {
      "inputs": [
        {
          "internalType": "string",
          "name": "_baseURI",
          "type": "string"
        }
      ],
      "name": "setBaseURI",
      "outputs": [],
      "stateMutability": "nonpayable",
      "type": "function"
    },
    {
      "inputs": [
        {
          "internalType": "address",
          "name": "_cardContract",
          "type": "address"
        }
      ],
      "name": "setCardContract",
      "outputs": [],
      "stateMutability": "nonpayable",
      "type": "function"
    },
    {
      "inputs": [
        {
          "internalType": "address",
          "name": "_tokenContract",
          "type": "address"
        }
      ],
      "name": "setTokenContract",
      "outputs": [],
      "stateMutability": "nonpayable",
      "type": "function"
    },
    {
      "inputs": [],
      "name": "tokenContract",
      "outputs": [
        {
          "internalType": "contract EFCToken",
          "name": "",
          "type": "address"
        }
      ],
      "stateMutability": "view",
      "type": "function"
    },
    {
      "inputs": [
        {
          "internalType": "address",
          "name": "newOwner",
          "type": "address"
        }
      ],
      "name": "transferOwnership",
      "outputs": [],
      "stateMutability": "nonpayable",
      "type": "function"
    },
    {
      "inputs": [
        {
          "internalType": "string",
          "name": "boosterType",
          "type": "string"
        },
        {
          "internalType": "string",
          "name": "name",
          "type": "string"
        },
        {
          "internalType": "uint256",
          "name": "price",
          "type": "uint256"
        },
        {
          "internalType": "uint256",
          "name": "cardCount",
          "type": "uint256"
        },
        {
          "internalType": "bool",
          "name": "isActive",
          "type": "bool"
        }
      ],
      "name": "updateBooster",
      "outputs": [],
      "stateMutability": "nonpayable",
      "type": "function"
    },
    {
      "inputs": [
        {
          "internalType": "string",
          "name": "boosterType",
          "type": "string"
        },
        {
          "internalType": "uint256[]",
          "name": "probabilities",
          "type": "uint256[]"
        }
      ],
      "name": "updateRarityProbabilities",
      "outputs": [],
      "stateMutability": "nonpayable",
      "type": "function"
    }
  ],
  "bytecode": "0x60066101009081526531b7b6b6b7b760d11b6101205260809081526004610140818152637261726560e01b6101605260a052610180818152636570696360e01b6101a05260c05261020060405260096101c0908152686c6567656e6461727960b81b6101e05260e0526200007691600791620007d9565b503480156200008457600080fd5b506040516200282938038062002829833981016040819052620000a791620008e3565b620000b2336200010f565b600180546001600160a01b038086166001600160a01b03199283161790925560028054928516929091169190911790556006620000f0828262000a6c565b50620000fc336200010f565b620001066200015f565b50505062000b38565b600080546001600160a01b038381166001600160a01b0319831681178455604051919092169283917f8be0079c531659141344cd1fd0a4f28419497f9722a3daafe3b4186f6b6457e09190a35050565b6040805160c0810182526010608082019081526f109bdbdcdd195c8814dd185b99185c9960821b60a0830152815268056bc75e2d6310000060208201526005818301526001606082015290516531b7b6b6b7b760d11b815260039060060190815260405190819003602001902081518190620001dc908262000a6c565b506020820151600182015560408083015160028301556060909201516003909101805460ff1916911515919091179055516531b7b6b6b7b760d11b81526046906004906006019081526040519081900360200181206531b7b6b6b7b760d11b825290600601908152604051908190036020018120919091556531b7b6b6b7b760d11b8152601490600490600601908152604051908190036020018120637261726560e01b825290600401908152604051908190036020018120919091556531b7b6b6b7b760d11b8152600890600490600601908152604051908190036020018120636570696360e01b825290600401908152604051908190036020018120919091556531b7b6b6b7b760d11b8152600290600490600601908152604051908190036020018120686c6567656e6461727960b81b82529060090190815260408051602092819003830181209390935560c083018152600f608084019081526e426f6f73746572205072656d69756d60881b60a08501528352680d8d726b7177a80000918301919091526005828201526001606083015251637261726560e01b815260039060040190815260405190819003602001902081518190620003a1908262000a6c565b506020820151600182015560408083015160028301556060909201516003909101805460ff191691151591909117905551637261726560e01b815260379060049081019081526040519081900360200181206531b7b6b6b7b760d11b82529060060190815260405190819003602001812091909155637261726560e01b81526019906004908101908152604051908190036020018120637261726560e01b82529060040190815260405190819003602001812091909155637261726560e01b8152600f906004908101908152604051908190036020018120636570696360e01b82529060040190815260405190819003602001812091909155637261726560e01b81526005906004908101908152604051908190036020018120686c6567656e6461727960b81b82529060090190815260408051602092819003830181209390935560c0830181526010608084019081526f426f6f7374657220556c74696d61746560801b60a08501528352681b1ae4d6e2ef500000918301919091526005828201526001606083015251636570696360e01b8152600390600401908152604051908190036020019020815181906200055b908262000a6c565b5060208281015160018381019190915560408085015160028501556060948501516003948501805460ff19169115159190911790558051636570696360e01b8082526004808301819052835192839003602490810184206531b7b6b6b7b760d11b8552600685015284519384900360260184206028905582845283820182905284519384900381018420637261726560e01b855284830152845193849003810184206019908190558385528483018390528551948590038201852084865285840152855194859003820185205591835282810152825191829003018120686c6567656e6461727960b81b80835260098084019290925283519283900360299081018420600a905560c08401855260126080850190815271426f6f73746572204c6567656e646169726560701b60a08601528452683635c9adc5dea0000096840196909652600583850152968201939093528151958652918501939093529151928390030190912081518190620006d2908262000a6c565b506020820151600182015560408083015160028301556060909201516003909101805460ff19169115159190911790558051686c6567656e6461727960b81b80825260046009808401829052845193849003602990810185206531b7b6b6b7b760d11b8652600686015285519485900360260185206014905583855284820183905285519485900381018520637261726560e01b86528584015285519485900360249081018620601e905584865285830184905286519586900382018620636570696360e01b8752868501528651958690030185206023905583855284820192909252845193849003820184209284528301919091529151908190039091019020600f9055565b82805482825590600052602060002090810192821562000824579160200282015b8281111562000824578251829062000813908262000a6c565b5091602001919060010190620007fa565b506200083292915062000836565b5090565b80821115620008325760006200084d828262000857565b5060010162000836565b5080546200086590620009dd565b6000825580601f1062000876575050565b601f01602090049060005260206000209081019062000896919062000899565b50565b5b808211156200083257600081556001016200089a565b80516001600160a01b0381168114620008c857600080fd5b919050565b634e487b7160e01b600052604160045260246000fd5b600080600060608486031215620008f957600080fd5b6200090484620008b0565b9250602062000915818601620008b0565b60408601519093506001600160401b03808211156200093357600080fd5b818701915087601f8301126200094857600080fd5b8151818111156200095d576200095d620008cd565b604051601f8201601f19908116603f01168101908382118183101715620009885762000988620008cd565b816040528281528a86848701011115620009a157600080fd5b600093505b82841015620009c55784840186015181850187015292850192620009a6565b60008684830101528096505050505050509250925092565b600181811c90821680620009f257607f821691505b60208210810362000a1357634e487b7160e01b600052602260045260246000fd5b50919050565b601f82111562000a6757600081815260208120601f850160051c8101602086101562000a425750805b601f850160051c820191505b8181101562000a635782815560010162000a4e565b5050505b505050565b81516001600160401b0381111562000a885762000a88620008cd565b62000aa08162000a998454620009dd565b8462000a19565b602080601f83116001811462000ad8576000841562000abf5750858301515b600019600386901b1c1916600185901b17855562000a63565b600085815260208120601f198616915b8281101562000b095788860151825594840194600190910190840162000ae8565b508582101562000b285787850151600019600388901b60f8161c191681555b5050505050600190811b01905550565b611ce18062000b486000396000f3fe608060405234801561001057600080fd5b50600436106101155760003560e01c80636e0bbe66116100a2578063bbcd5bbe11610071578063bbcd5bbe14610285578063bec251a214610298578063c030d8b8146102ab578063d8ced56a146102be578063f2fde38b146102c657600080fd5b80636e0bbe6614610246578063715018a6146102595780638da5cb5b14610261578063ac82151e1461027257600080fd5b806355f804b3116100e957806355f804b3146101d35780635780e31e146101e857806359116fb31461020b578063693bd2d01461022b5780636c0360eb1461023e57600080fd5b8062e7df991461011a5780633a6d9ba614610175578063471ce26c1461019557806355a373d6146101a8575b600080fd5b61016261012836600461159c565b8151602081840181018051600482529282019482019490942091909352815180830184018051928152908401929093019190912091525481565b6040519081526020015b60405180910390f35b610188610183366004611600565b6102d9565b60405161016c919061163d565b6101626101a3366004611600565b61051e565b6001546101bb906001600160a01b031681565b6040516001600160a01b03909116815260200161016c565b6101e66101e1366004611600565b61058b565b005b6101fb6101f6366004611600565b6105da565b60405161016c94939291906116d1565b61021e610219366004611702565b61069a565b60405161016c919061171b565b6002546101bb906001600160a01b031681565b61021e610746565b6101e6610254366004611735565b610753565b6101e661081c565b6000546001600160a01b03166101bb565b6101e66102803660046117c6565b610830565b6101e6610293366004611890565b6109f2565b6101626102a6366004611600565b610a1c565b6101e66102b9366004611890565b610a89565b610188610ab3565b6101e66102d4366004611890565b610b14565b60606003826040516102eb91906118b9565b9081526040519081900360200190206003015460ff166103265760405162461bcd60e51b815260040161031d906118d5565b60405180910390fd5b600060038360405161033891906118b9565b9081526020016040518091039020600101549050600060038460405161035e91906118b9565b908152604051908190036020018120600201546001546370a0823160e01b835233600484015290925083916001600160a01b03909116906370a0823190602401602060405180830381865afa1580156103bb573d6000803e3d6000fd5b505050506040513d601f19601f820116820180604052508101906103df9190611921565b101561043c5760405162461bcd60e51b815260206004820152602660248201527f454643426f6f737465723a20696e73756666696369656e7420746f6b656e2062604482015265616c616e636560d01b606482015260840161031d565b60015460405163ecf7a44760e01b8152336004820152602481018490526001600160a01b039091169063ecf7a44790604401600060405180830381600087803b15801561048857600080fd5b505af115801561049c573d6000803e3d6000fd5b5050505060006104ad338684610b8d565b33600090815260056020908152604090912082519293506104d2929091840190611485565b50336001600160a01b03167fa11c5622469c7f89aaf630b359fe355fbb52d5f03d0362634b2823e6bb08534f868560405161050e92919061193a565b60405180910390a2949350505050565b600060038260405161053091906118b9565b9081526040519081900360200190206003015460ff166105625760405162461bcd60e51b815260040161031d906118d5565b60038260405161057291906118b9565b9081526020016040518091039020600101549050919050565b610593610d31565b600661059f82826119e5565b507f6741b2fc379fad678116fe3d4d4b9a1a184ab53ba36b86ad0fa66340b1ab41ad816040516105cf919061171b565b60405180910390a150565b80516020818301810180516003825292820191909301209152805481906106009061195c565b80601f016020809104026020016040519081016040528092919081815260200182805461062c9061195c565b80156106795780601f1061064e57610100808354040283529160200191610679565b820191906000526020600020905b81548152906001019060200180831161065c57829003601f168201915b50505050600183015460028401546003909401549293909290915060ff1684565b600781815481106106aa57600080fd5b9060005260206000200160009150905080546106c59061195c565b80601f01602080910402602001604051908101604052809291908181526020018280546106f19061195c565b801561073e5780601f106107135761010080835404028352916020019161073e565b820191906000526020600020905b81548152906001019060200180831161072157829003601f168201915b505050505081565b600680546106c59061195c565b61075b610d31565b604051806080016040528085815260200184815260200183815260200182151581525060038660405161078e91906118b9565b908152604051908190036020019020815181906107ab90826119e5565b506020820151600182015560408083015160028301556060909201516003909101805460ff1916911515919091179055517f5bd3e277c56e42f42264f4ac4bf6d38bbc2f7f65184813f39778254b85d01e909061080d90879086908690611aa5565b60405180910390a15050505050565b610824610d31565b61082e6000610d8b565b565b610838610d31565b60075481511461089b5760405162461bcd60e51b815260206004820152602860248201527f454643426f6f737465723a20696e76616c69642070726f626162696c697469656044820152670e640d8cadccee8d60c31b606482015260840161031d565b6000805b8251811015610953578281815181106108ba576108ba611aca565b6020026020010151826108cd9190611af6565b91508281815181106108e1576108e1611aca565b60200260200101516004856040516108f991906118b9565b90815260200160405180910390206007838154811061091a5761091a611aca565b906000526020600020016040516109319190611b7c565b908152604051908190036020019020558061094b81611b88565b91505061089f565b50806064146109b65760405162461bcd60e51b815260206004820152602960248201527f454643426f6f737465723a2070726f626162696c6974696573206d75737420736044820152680756d20746f203130360bc1b606482015260840161031d565b7fb72721a3687fa6e61c8aec9a151c178aa69ef5c315a77cbee2e153bb6c930632836040516109e5919061171b565b60405180910390a1505050565b6109fa610d31565b600180546001600160a01b0319166001600160a01b0392909216919091179055565b6000600382604051610a2e91906118b9565b9081526040519081900360200190206003015460ff16610a605760405162461bcd60e51b815260040161031d906118d5565b600382604051610a7091906118b9565b9081526020016040518091039020600201549050919050565b610a91610d31565b600280546001600160a01b0319166001600160a01b0392909216919091179055565b33600090815260056020908152604091829020805483518184028101840190945280845260609392830182828015610b0a57602002820191906000526020600020905b815481526020019060010190808311610af6575b5050505050905090565b610b1c610d31565b6001600160a01b038116610b815760405162461bcd60e51b815260206004820152602660248201527f4f776e61626c653a206e6577206f776e657220697320746865207a65726f206160448201526564647265737360d01b606482015260840161031d565b610b8a81610d8b565b50565b606060008267ffffffffffffffff811115610baa57610baa6114e5565b604051908082528060200260200182016040528015610bd3578160200160208202803683370190505b50905060005b83811015610d28576000610bec86610ddb565b90506000610bf982610f83565b90506000610c0683611277565b90506000600260009054906101000a90046001600160a01b03166001600160a01b031663de7bd8f78b8486600001518760200151886040015189606001518a608001516040518863ffffffff1660e01b8152600401610c6b9796959493929190611ba1565b6020604051808303816000875af1158015610c8a573d6000803e3d6000fd5b505050506040513d601f19601f82011682018060405250810190610cae9190611921565b905080868681518110610cc357610cc3611aca565b602002602001018181525050896001600160a01b0316817f69ce09a1b4f78ba0df8eb79eac9c07cbba3eaa23fb89b100848766b51efbc4e586604051610d09919061171b565b60405180910390a3505050508080610d2090611b88565b915050610bd9565b50949350505050565b6000546001600160a01b0316331461082e5760405162461bcd60e51b815260206004820181905260248201527f4f776e61626c653a2063616c6c6572206973206e6f7420746865206f776e6572604482015260640161031d565b600080546001600160a01b038381166001600160a01b0319831681178455604051919092169283917f8be0079c531659141344cd1fd0a4f28419497f9722a3daafe3b4186f6b6457e09190a35050565b606060006064424433604051602001610e1493929190928352602083019190915260601b6001600160601b031916604082015260540190565b6040516020818303038152906040528051906020012060001c610e379190611c14565b90506000805b600754811015610f5d57600060078281548110610e5c57610e5c611aca565b906000526020600020018054610e719061195c565b80601f0160208091040260200160405190810160405280929190818152602001828054610e9d9061195c565b8015610eea5780601f10610ebf57610100808354040283529160200191610eea565b820191906000526020600020905b815481529060010190602001808311610ecd57829003601f168201915b50505050509050600486604051610f0191906118b9565b908152602001604051809103902081604051610f1d91906118b9565b90815260200160405180910390205483610f379190611af6565b925082841015610f4a5795945050505050565b5080610f5581611b88565b915050610e3d565b505060408051808201909152600681526531b7b6b6b7b760d11b60208201529392505050565b610fb56040518060a0016040528060608152602001600081526020016000815260200160008152602001600081525090565b6000610fe283604051806040016040528060098152602001686c6567656e6461727960b81b8152506112fe565b15610fef57506003611059565b61101583604051806040016040528060048152602001636570696360e01b8152506112fe565b1561102257506002611059565b61104883604051806040016040528060048152602001637261726560e01b8152506112fe565b156110555750600f611059565b50600a5b6040516561747461636b60d01b60208201524260268201526001600160601b03193360601b166046820152600090601e90605a016040516020818303038152906040528051906020012060001c6110b09190611c14565b6110bb90600a611af6565b60405166646566656e736560c81b60208201524260278201526001600160601b03193360601b166047820152909150600090601e90605b016040516020818303038152906040528051906020012060001c6111169190611c14565b61112190600a611af6565b604051646d6167696360d81b60208201524260258201526001600160601b03193360601b166045820152909150600090601e906059016040516020818303038152906040528051906020012060001c61117a9190611c14565b61118590600a611af6565b604051641cdc19595960da1b60208201524260258201526001600160601b03193360601b166045820152909150600090601e906059016040516020818303038152906040528051906020012060001c6111de9190611c14565b6111e990600a611af6565b9050600a6111f78686611c28565b6112019190611c3f565b9350600a61120f8685611c28565b6112199190611c3f565b9250600a6112278684611c28565b6112319190611c3f565b9150600a61123f8683611c28565b6112499190611c3f565b6040805160a08101825298895260208901959095529387019290925260608601525060808401525090919050565b606060004244336040516020016112ae93929190928352602083019190915260601b6001600160601b031916604082015260540190565b6040516020818303038152906040528051906020012060001c90506006836112d58361131a565b6040516020016112e793929190611c53565b604051602081830303815290604052915050919050565b6000818051906020012083805190602001201490505b92915050565b60606000611327836113ad565b600101905060008167ffffffffffffffff811115611347576113476114e5565b6040519080825280601f01601f191660200182016040528015611371576020820181803683370190505b5090508181016020015b600019016f181899199a1a9b1b9c1cb0b131b232b360811b600a86061a8153600a850494508461137b57509392505050565b60008072184f03e93ff9f4daa797ed6e38ed64bf6a1f0160401b83106113ec5772184f03e93ff9f4daa797ed6e38ed64bf6a1f0160401b830492506040015b6d04ee2d6d415b85acef81000000008310611418576d04ee2d6d415b85acef8100000000830492506020015b662386f26fc10000831061143657662386f26fc10000830492506010015b6305f5e100831061144e576305f5e100830492506008015b612710831061146257612710830492506004015b60648310611474576064830492506002015b600a83106113145760010192915050565b8280548282559060005260206000209081019282156114c0579160200282015b828111156114c05782518255916020019190600101906114a5565b506114cc9291506114d0565b5090565b5b808211156114cc57600081556001016114d1565b634e487b7160e01b600052604160045260246000fd5b604051601f8201601f1916810167ffffffffffffffff81118282101715611524576115246114e5565b604052919050565b600082601f83011261153d57600080fd5b813567ffffffffffffffff811115611557576115576114e5565b61156a601f8201601f19166020016114fb565b81815284602083860101111561157f57600080fd5b816020850160208301376000918101602001919091529392505050565b600080604083850312156115af57600080fd5b823567ffffffffffffffff808211156115c757600080fd5b6115d38683870161152c565b935060208501359150808211156115e957600080fd5b506115f68582860161152c565b9150509250929050565b60006020828403121561161257600080fd5b813567ffffffffffffffff81111561162957600080fd5b6116358482850161152c565b949350505050565b6020808252825182820181905260009190848201906040850190845b8181101561167557835183529284019291840191600101611659565b50909695505050505050565b60005b8381101561169c578181015183820152602001611684565b50506000910152565b600081518084526116bd816020860160208601611681565b601f01601f19169290920160200192915050565b6080815260006116e460808301876116a5565b60208301959095525060408101929092521515606090910152919050565b60006020828403121561171457600080fd5b5035919050565b60208152600061172e60208301846116a5565b9392505050565b600080600080600060a0868803121561174d57600080fd5b853567ffffffffffffffff8082111561176557600080fd5b61177189838a0161152c565b9650602088013591508082111561178757600080fd5b506117948882890161152c565b9450506040860135925060608601359150608086013580151581146117b857600080fd5b809150509295509295909350565b600080604083850312156117d957600080fd5b823567ffffffffffffffff808211156117f157600080fd5b6117fd8683870161152c565b935060209150818501358181111561181457600080fd5b8501601f8101871361182557600080fd5b803582811115611837576118376114e5565b8060051b92506118488484016114fb565b818152928201840192848101908985111561186257600080fd5b928501925b8484101561188057833582529285019290850190611867565b8096505050505050509250929050565b6000602082840312156118a257600080fd5b81356001600160a01b038116811461172e57600080fd5b600082516118cb818460208701611681565b9190910192915050565b6020808252602c908201527f454643426f6f737465723a20696e76616c6964206f7220696e6163746976652060408201526b626f6f73746572207479706560a01b606082015260800190565b60006020828403121561193357600080fd5b5051919050565b60408152600061194d60408301856116a5565b90508260208301529392505050565b600181811c9082168061197057607f821691505b60208210810361199057634e487b7160e01b600052602260045260246000fd5b50919050565b601f8211156119e057600081815260208120601f850160051c810160208610156119bd5750805b601f850160051c820191505b818110156119dc578281556001016119c9565b5050505b505050565b815167ffffffffffffffff8111156119ff576119ff6114e5565b611a1381611a0d845461195c565b84611996565b602080601f831160018114611a485760008415611a305750858301515b600019600386901b1c1916600185901b1785556119dc565b600085815260208120601f198616915b82811015611a7757888601518255948401946001909101908401611a58565b5085821015611a955787850151600019600388901b60f8161c191681555b5050505050600190811b01905550565b606081526000611ab860608301866116a5565b60208301949094525060400152919050565b634e487b7160e01b600052603260045260246000fd5b634e487b7160e01b600052601160045260246000fd5b8082018082111561131457611314611ae0565b60008154611b168161195c565b60018281168015611b2e5760018114611b4357611b72565b60ff1984168752821515830287019450611b72565b8560005260208060002060005b85811015611b695781548a820152908401908201611b50565b50505082870194505b5050505092915050565b600061172e8284611b09565b600060018201611b9a57611b9a611ae0565b5060010190565b6001600160a01b038816815260e060208201819052600090611bc5908301896116a5565b8281036040840152611bd781896116a5565b9150508560608301528460808301528360a08301528260c083015298975050505050505050565b634e487b7160e01b600052601260045260246000fd5b600082611c2357611c23611bfe565b500690565b808202811582820484141761131457611314611ae0565b600082611c4e57611c4e611bfe565b500490565b6000611c5f8286611b09565b8451611c6f818360208901611681565b602f60f81b91019081528351611c8c816001840160208801611681565b64173539b7b760d91b600192909101918201526006019594505050505056fea264697066735822122043f6506135492cba697bffd2f9dc794d86a37d672c46f250822b44d7908be46b64736f6c63430008130033",
  "linkReferences": {},
  "deployedLinkReferences": {}
}