{
  "_format": "hh-sol-artifact-1",
  "contractName": "EFCCard",
  "sourceName": "contracts/EFCCard.sol",
  "abi": [
    {
      "inputs": [],
      "stateMutability": "nonpayable",
      "type": "constructor"
    },
    {
      "anonymous": false,
      "inputs": [
        {
          "indexed": true,
          "internalType": "address",
          "name": "owner",
          "type": "address"
        },
        {
          "indexed": true,
          "internalType": "address",
          "name": "approved",
          "type": "address"
        },
        {
          "indexed": true,
          "internalType": "uint256",
          "name": "tokenId",
          "type": "uint256"
        }
      ],
      "name": "Approval",
      "type": "event"
    },
    {
      "anonymous": false,
      "inputs": [
        {
          "indexed": true,
          "internalType": "address",
          "name": "owner",
          "type": "address"
        },
        {
          "indexed": true,
          "internalType": "address",
          "name": "operator",
          "type": "address"
        },
        {
          "indexed": false,
          "internalType": "bool",
          "name": "approved",
          "type": "bool"
        }
      ],
      "name": "ApprovalForAll",
      "type": "event"
    },
    {
      "anonymous": false,
      "inputs": [
        {
          "indexed": false,
          "internalType": "uint256",
          "name": "_fromTokenId",
          "type": "uint256"
        },
        {
          "indexed": false,
          "internalType": "uint256",
          "name": "_toTokenId",
          "type": "uint256"
        }
      ],
      "name": "BatchMetadataUpdate",
      "type": "event"
    },
    {
      "anonymous": false,
      "inputs": [
        {
          "indexed": true,
          "internalType": "address",
          "name": "previousAddress",
          "type": "address"
        },
        {
          "indexed": true,
          "internalType": "address",
          "name": "newAddress",
          "type": "address"
        }
      ],
      "name": "BoosterContractChanged",
      "type": "event"
    },
    {
      "anonymous": false,
      "inputs": [
        {
          "indexed": true,
          "internalType": "uint256",
          "name": "tokenId",
          "type": "uint256"
        },
        {
          "indexed": true,
          "internalType": "address",
          "name": "owner",
          "type": "address"
        },
        {
          "indexed": false,
          "internalType": "string",
          "name": "rarity",
          "type": "string"
        }
      ],
      "name": "CardCreated",
      "type": "event"
    },
    {
      "anonymous": false,
      "inputs": [
        {
          "indexed": false,
          "internalType": "uint256",
          "name": "_tokenId",
          "type": "uint256"
        }
      ],
      "name": "MetadataUpdate",
      "type": "event"
    },
    {
      "anonymous": false,
      "inputs": [
        {
          "indexed": true,
          "internalType": "address",
          "name": "previousOwner",
          "type": "address"
        },
        {
          "indexed": true,
          "internalType": "address",
          "name": "newOwner",
          "type": "address"
        }
      ],
      "name": "OwnershipTransferred",
      "type": "event"
    },
    {
      "anonymous": false,
      "inputs": [
        {
          "indexed": true,
          "internalType": "address",
          "name": "from",
          "type": "address"
        },
        {
          "indexed": true,
          "internalType": "address",
          "name": "to",
          "type": "address"
        },
        {
          "indexed": true,
          "internalType": "uint256",
          "name": "tokenId",
          "type": "uint256"
        }
      ],
      "name": "Transfer",
      "type": "event"
    },
    {
      "inputs": [
        {
          "internalType": "address",
          "name": "to",
          "type": "address"
        },
        {
          "internalType": "uint256",
          "name": "tokenId",
          "type": "uint256"
        }
      ],
      "name": "approve",
      "outputs": [],
      "stateMutability": "nonpayable",
      "type": "function"
    },
    {
      "inputs": [
        {
          "internalType": "address",
          "name": "owner",
          "type": "address"
        }
      ],
      "name": "balanceOf",
      "outputs": [
        {
          "internalType": "uint256",
          "name": "",
          "type": "uint256"
        }
      ],
      "stateMutability": "view",
      "type": "function"
    },
    {
      "inputs": [],
      "name": "boosterContract",
      "outputs": [
        {
          "internalType": "address",
          "name": "",
          "type": "address"
        }
      ],
      "stateMutability": "view",
      "type": "function"
    },
    {
      "inputs": [
        {
          "internalType": "uint256",
          "name": "tokenId",
          "type": "uint256"
        }
      ],
      "name": "getApproved",
      "outputs": [
        {
          "internalType": "address",
          "name": "",
          "type": "address"
        }
      ],
      "stateMutability": "view",
      "type": "function"
    },
    {
      "inputs": [
        {
          "internalType": "uint256",
          "name": "tokenId",
          "type": "uint256"
        }
      ],
      "name": "getCardAttributes",
      "outputs": [
        {
          "components": [
            {
              "internalType": "string",
              "name": "rarity",
              "type": "string"
            },
            {
              "internalType": "uint256",
              "name": "attack",
              "type": "uint256"
            },
            {
              "internalType": "uint256",
              "name": "defense",
              "type": "uint256"
            },
            {
              "internalType": "uint256",
              "name": "magic",
              "type": "uint256"
            },
            {
              "internalType": "uint256",
              "name": "speed",
              "type": "uint256"
            }
          ],
          "internalType": "struct EFCCard.CardAttributes",
          "name": "",
          "type": "tuple"
        }
      ],
      "stateMutability": "view",
      "type": "function"
    },
    {
      "inputs": [
        {
          "internalType": "address",
          "name": "owner",
          "type": "address"
        }
      ],
      "name": "getCardsOfOwner",
      "outputs": [
        {
          "internalType": "uint256[]",
          "name": "",
          "type": "uint256[]"
        }
      ],
      "stateMutability": "view",
      "type": "function"
    },
    {
      "inputs": [
        {
          "internalType": "address",
          "name": "owner",
          "type": "address"
        },
        {
          "internalType": "string",
          "name": "rarity",
          "type": "string"
        }
      ],
      "name": "hasCardWithRarity",
      "outputs": [
        {
          "internalType": "bool",
          "name": "",
          "type": "bool"
        }
      ],
      "stateMutability": "view",
      "type": "function"
    },
    {
      "inputs": [
        {
          "internalType": "address",
          "name": "owner",
          "type": "address"
        },
        {
          "internalType": "address",
          "name": "operator",
          "type": "address"
        }
      ],
      "name": "isApprovedForAll",
      "outputs": [
        {
          "internalType": "bool",
          "name": "",
          "type": "bool"
        }
      ],
      "stateMutability": "view",
      "type": "function"
    },
    {
      "inputs": [
        {
          "internalType": "address",
          "name": "to",
          "type": "address"
        },
        {
          "internalType": "string",
          "name": "uri",
          "type": "string"
        },
        {
          "internalType": "string",
          "name": "rarity",
          "type": "string"
        },
        {
          "internalType": "uint256",
          "name": "attack",
          "type": "uint256"
        },
        {
          "internalType": "uint256",
          "name": "defense",
          "type": "uint256"
        },
        {
          "internalType": "uint256",
          "name": "magic",
          "type": "uint256"
        },
        {
          "internalType": "uint256",
          "name": "speed",
          "type": "uint256"
        }
      ],
      "name": "mintCard",
      "outputs": [
        {
          "internalType": "uint256",
          "name": "",
          "type": "uint256"
        }
      ],
      "stateMutability": "nonpayable",
      "type": "function"
    },
    {
      "inputs": [],
      "name": "name",
      "outputs": [
        {
          "internalType": "string",
          "name": "",
          "type": "string"
        }
      ],
      "stateMutability": "view",
      "type": "function"
    },
    {
      "inputs": [],
      "name": "owner",
      "outputs": [
        {
          "internalType": "address",
          "name": "",
          "type": "address"
        }
      ],
      "stateMutability": "view",
      "type": "function"
    },
    {
      "inputs": [
        {
          "internalType": "uint256",
          "name": "tokenId",
          "type": "uint256"
        }
      ],
      "name": "ownerOf",
      "outputs": [
        {
          "internalType": "address",
          "name": "",
          "type": "address"
        }
      ],
      "stateMutability": "view",
      "type": "function"
    },
    {
      "inputs": [],
      "name": "renounceOwnership",
      "outputs": [],
      "stateMutability": "nonpayable",
      "type": "function"
    },
    {
      "inputs": [
        {
          "internalType": "address",
          "name": "from",
          "type": "address"
        },
        {
          "internalType": "address",
          "name": "to",
          "type": "address"
        },
        {
          "internalType": "uint256",
          "name": "tokenId",
          "type": "uint256"
        }
      ],
      "name": "safeTransferFrom",
      "outputs": [],
      "stateMutability": "nonpayable",
      "type": "function"
    },
    {
      "inputs": [
        {
          "internalType": "address",
          "name": "from",
          "type": "address"
        },
        {
          "internalType": "address",
          "name": "to",
          "type": "address"
        },
        {
          "internalType": "uint256",
          "name": "tokenId",
          "type": "uint256"
        },
        {
          "internalType": "bytes",
          "name": "data",
          "type": "bytes"
        }
      ],
      "name": "safeTransferFrom",
      "outputs": [],
      "stateMutability": "nonpayable",
      "type": "function"
    },
    {
      "inputs": [
        {
          "internalType": "address",
          "name": "operator",
          "type": "address"
        },
        {
          "internalType": "bool",
          "name": "approved",
          "type": "bool"
        }
      ],
      "name": "setApprovalForAll",
      "outputs": [],
      "stateMutability": "nonpayable",
      "type": "function"
    },
    {
      "inputs": [
        {
          "internalType": "address",
          "name": "_boosterContract",
          "type": "address"
        }
      ],
      "name": "setBoosterContract",
      "outputs": [],
      "stateMutability": "nonpayable",
      "type": "function"
    },
    {
      "inputs": [
        {
          "internalType": "bytes4",
          "name": "interfaceId",
          "type": "bytes4"
        }
      ],
      "name": "supportsInterface",
      "outputs": [
        {
          "internalType": "bool",
          "name": "",
          "type": "bool"
        }
      ],
      "stateMutability": "view",
      "type": "function"
    },
    {
      "inputs": [],
      "name": "symbol",
      "outputs": [
        {
          "internalType": "string",
          "name": "",
          "type": "string"
        }
      ],
      "stateMutability": "view",
      "type": "function"
    },
    {
      "inputs": [
        {
          "internalType": "uint256",
          "name": "index",
          "type": "uint256"
        }
      ],
      "name": "tokenByIndex",
      "outputs": [
        {
          "internalType": "uint256",
          "name": "",
          "type": "uint256"
        }
      ],
      "stateMutability": "view",
      "type": "function"
    },
    {
      "inputs": [
        {
          "internalType": "address",
          "name": "owner",
          "type": "address"
        },
        {
          "internalType": "uint256",
          "name": "index",
          "type": "uint256"
        }
      ],
      "name": "tokenOfOwnerByIndex",
      "outputs": [
        {
          "internalType": "uint256",
          "name": "",
          "type": "uint256"
        }
      ],
      "stateMutability": "view",
      "type": "function"
    },
    {
      "inputs": [
        {
          "internalType": "uint256",
          "name": "tokenId",
          "type": "uint256"
        }
      ],
      "name": "tokenURI",
      "outputs": [
        {
          "internalType": "string",
          "name": "",
          "type": "string"
        }
      ],
      "stateMutability": "view",
      "type": "function"
    },
    {
      "inputs": [],
      "name": "totalSupply",
      "outputs": [
        {
          "internalType": "uint256",
          "name": "",
          "type": "uint256"
        }
      ],
      "stateMutability": "view",
      "type": "function"
    },
    {
      "inputs": [
        {
          "internalType": "address",
          "name": "from",
          "type": "address"
        },
        {
          "internalType": "address",
          "name": "to",
          "type": "address"
        },
        {
          "internalType": "uint256",
          "name": "tokenId",
          "type": "uint256"
        }
      ],
      "name": "transferFrom",
      "outputs": [],
      "stateMutability": "nonpayable",
      "type": "function"
    },
    {
      "inputs": [
        {
          "internalType": "address",
          "name": "newOwner",
          "type": "address"
        }
      ],
      "name": "transferOwnership",
      "outputs": [],
      "stateMutability": "nonpayable",
      "type": "function"
    }
  ],
  "bytecode": "0x60806040523480156200001157600080fd5b506040518060400160405280601981526020017f4570696346616374696f6e436f6d6d756e697479204361726400000000000000815250604051806040016040528060048152602001634546434360e01b8152508160009081620000769190620001bd565b506001620000858282620001bd565b505050620000a26200009c620000c260201b60201c565b620000c6565b620000b1600c80546001019055565b620000bc33620000c6565b62000289565b3390565b600b80546001600160a01b038381166001600160a01b0319831681179093556040519116919082907f8be0079c531659141344cd1fd0a4f28419497f9722a3daafe3b4186f6b6457e090600090a35050565b634e487b7160e01b600052604160045260246000fd5b600181811c908216806200014357607f821691505b6020821081036200016457634e487b7160e01b600052602260045260246000fd5b50919050565b601f821115620001b857600081815260208120601f850160051c81016020861015620001935750805b601f850160051c820191505b81811015620001b4578281556001016200019f565b5050505b505050565b81516001600160401b03811115620001d957620001d962000118565b620001f181620001ea84546200012e565b846200016a565b602080601f831160018114620002295760008415620002105750858301515b600019600386901b1c1916600185901b178555620001b4565b600085815260208120601f198616915b828110156200025a5788860151825594840194600190910190840162000239565b5085821015620002795787850151600019600388901b60f8161c191681555b5050505050600190811b01905550565b6123e980620002996000396000f3fe608060405234801561001057600080fd5b50600436106101735760003560e01c806370a08231116100de578063a22cb46511610097578063d5aaa5b011610071578063d5aaa5b01461032c578063de7bd8f71461034c578063e985e9c51461035f578063f2fde38b1461039b57600080fd5b8063a22cb465146102f3578063b88d4fde14610306578063c87b56dd1461031957600080fd5b806370a082311461028c578063715018a61461029f5780637a834d24146102a75780638da5cb5b146102c757806395d89b41146102d857806397ce0a27146102e057600080fd5b806327f7be991161013057806327f7be991461021a5780632f745c591461022d57806342842e0e146102405780634f6ccce7146102535780636352211e1461026657806368aa37a61461027957600080fd5b806301ffc9a71461017857806306fdde03146101a0578063081812fc146101b5578063095ea7b3146101e057806318160ddd146101f557806323b872dd14610207575b600080fd5b61018b610186366004611bd2565b6103ae565b60405190151581526020015b60405180910390f35b6101a86103bf565b6040516101979190611c3f565b6101c86101c3366004611c52565b610451565b6040516001600160a01b039091168152602001610197565b6101f36101ee366004611c87565b610478565b005b6009545b604051908152602001610197565b6101f3610215366004611cb1565b610592565b600d546101c8906001600160a01b031681565b6101f961023b366004611c87565b6105c3565b6101f361024e366004611cb1565b610659565b6101f9610261366004611c52565b610674565b6101c8610274366004611c52565b610707565b61018b610287366004611d99565b610767565b6101f961029a366004611de7565b6107f0565b6101f3610876565b6102ba6102b5366004611de7565b61088a565b6040516101979190611e02565b600b546001600160a01b03166101c8565b6101a861092c565b6101f36102ee366004611de7565b61093b565b6101f3610301366004611e46565b61099f565b6101f3610314366004611e82565b6109ae565b6101a8610327366004611c52565b6109e6565b61033f61033a366004611c52565b6109f1565b6040516101979190611efe565b6101f961035a366004611f4e565b610b6c565b61018b61036d366004611fe7565b6001600160a01b03918216600090815260056020908152604080832093909416825291909152205460ff1690565b6101f36103a9366004611de7565b610cd6565b60006103b982610d4f565b92915050565b6060600080546103ce9061201a565b80601f01602080910402602001604051908101604052809291908181526020018280546103fa9061201a565b80156104475780601f1061041c57610100808354040283529160200191610447565b820191906000526020600020905b81548152906001019060200180831161042a57829003601f168201915b5050505050905090565b600061045c82610d74565b506000908152600460205260409020546001600160a01b031690565b600061048382610707565b9050806001600160a01b0316836001600160a01b0316036104f55760405162461bcd60e51b815260206004820152602160248201527f4552433732313a20617070726f76616c20746f2063757272656e74206f776e656044820152603960f91b60648201526084015b60405180910390fd5b336001600160a01b03821614806105115750610511813361036d565b6105835760405162461bcd60e51b815260206004820152603d60248201527f4552433732313a20617070726f76652063616c6c6572206973206e6f7420746f60448201527f6b656e206f776e6572206f7220617070726f76656420666f7220616c6c00000060648201526084016104ec565b61058d8383610dd3565b505050565b61059c3382610e41565b6105b85760405162461bcd60e51b81526004016104ec90612054565b61058d838383610ec0565b60006105ce836107f0565b82106106305760405162461bcd60e51b815260206004820152602b60248201527f455243373231456e756d657261626c653a206f776e657220696e646578206f7560448201526a74206f6620626f756e647360a81b60648201526084016104ec565b506001600160a01b03919091166000908152600760209081526040808320938352929052205490565b61058d838383604051806020016040528060008152506109ae565b600061067f60095490565b82106106e25760405162461bcd60e51b815260206004820152602c60248201527f455243373231456e756d657261626c653a20676c6f62616c20696e646578206f60448201526b7574206f6620626f756e647360a01b60648201526084016104ec565b600982815481106106f5576106f56120a1565b90600052602060002001549050919050565b6000818152600260205260408120546001600160a01b0316806103b95760405162461bcd60e51b8152602060048201526018602482015277115490cdcc8c4e881a5b9d985b1a59081d1bdad95b88125160421b60448201526064016104ec565b600080610773846107f0565b905060005b818110156107e557600061078c86836105c3565b90508480519060200120600e60008381526020019081526020016000206000016040516107b991906120b7565b6040518091039020036107d257600193505050506103b9565b50806107dd81612143565b915050610778565b506000949350505050565b60006001600160a01b03821661085a5760405162461bcd60e51b815260206004820152602960248201527f4552433732313a2061646472657373207a65726f206973206e6f7420612076616044820152683634b21037bbb732b960b91b60648201526084016104ec565b506001600160a01b031660009081526003602052604090205490565b61087e611031565b610888600061108b565b565b60606000610897836107f0565b905060008167ffffffffffffffff8111156108b4576108b4611ced565b6040519080825280602002602001820160405280156108dd578160200160208202803683370190505b50905060005b82811015610924576108f585826105c3565b828281518110610907576109076120a1565b60209081029190910101528061091c81612143565b9150506108e3565b509392505050565b6060600180546103ce9061201a565b610943611031565b600d546040516001600160a01b038084169216907f06858e8a4a6abed3c79929710bd1bcd31a15eb27361caaa227fe3bc27103647490600090a3600d80546001600160a01b0319166001600160a01b0392909216919091179055565b6109aa3383836110dd565b5050565b6109b83383610e41565b6109d45760405162461bcd60e51b81526004016104ec90612054565b6109e0848484846111ab565b50505050565b60606103b9826111de565b610a236040518060a0016040528060608152602001600081526020016000815260200160008152602001600081525090565b6000828152600260205260409020546001600160a01b0316610a935760405162461bcd60e51b8152602060048201526024808201527f454643436172643a20717565727920666f72206e6f6e6578697374656e74207460448201526337b5b2b760e11b60648201526084016104ec565b6000828152600e602052604090819020815160a08101909252805482908290610abb9061201a565b80601f0160208091040260200160405190810160405280929190818152602001828054610ae79061201a565b8015610b345780601f10610b0957610100808354040283529160200191610b34565b820191906000526020600020905b815481529060010190602001808311610b1757829003601f168201915b505050505081526020016001820154815260200160028201548152602001600382015481526020016004820154815250509050919050565b600d546000906001600160a01b0316331480610b925750600b546001600160a01b031633145b610be85760405162461bcd60e51b815260206004820152602160248201527f454643436172643a2063616c6c6572206973206e6f7420617574686f72697a656044820152601960fa1b60648201526084016104ec565b6000610bf3600c5490565b9050610c03600c80546001019055565b610c0d89826112e6565b610c178189611300565b6040805160a081018252888152602080820189905281830188905260608201879052608082018690526000848152600e9091529190912081518190610c5c90826121aa565b5060208201518160010155604082015181600201556060820151816003015560808201518160040155905050886001600160a01b0316817ffcd0d359bb85c2ff52e7de66cd26166aa6a364815c81ca47220ffdac9223038289604051610cc29190611c3f565b60405180910390a398975050505050505050565b610cde611031565b6001600160a01b038116610d435760405162461bcd60e51b815260206004820152602660248201527f4f776e61626c653a206e6577206f776e657220697320746865207a65726f206160448201526564647265737360d01b60648201526084016104ec565b610d4c8161108b565b50565b60006001600160e01b0319821663780e9d6360e01b14806103b957506103b9826113cb565b6000818152600260205260409020546001600160a01b0316610d4c5760405162461bcd60e51b8152602060048201526018602482015277115490cdcc8c4e881a5b9d985b1a59081d1bdad95b88125160421b60448201526064016104ec565b600081815260046020526040902080546001600160a01b0319166001600160a01b0384169081179091558190610e0882610707565b6001600160a01b03167f8c5be1e5ebec7d5bd14f71427d1e84f3dd0314c0f7b2291e5b200ac8c7c3b92560405160405180910390a45050565b600080610e4d83610707565b9050806001600160a01b0316846001600160a01b03161480610e9457506001600160a01b0380821660009081526005602090815260408083209388168352929052205460ff165b80610eb85750836001600160a01b0316610ead84610451565b6001600160a01b0316145b949350505050565b826001600160a01b0316610ed382610707565b6001600160a01b031614610ef95760405162461bcd60e51b81526004016104ec9061226a565b6001600160a01b038216610f5b5760405162461bcd60e51b8152602060048201526024808201527f4552433732313a207472616e7366657220746f20746865207a65726f206164646044820152637265737360e01b60648201526084016104ec565b610f6883838360016113f0565b826001600160a01b0316610f7b82610707565b6001600160a01b031614610fa15760405162461bcd60e51b81526004016104ec9061226a565b600081815260046020908152604080832080546001600160a01b03199081169091556001600160a01b0387811680865260038552838620805460001901905590871680865283862080546001019055868652600290945282852080549092168417909155905184937fddf252ad1be2c89b69c2b068fc378daa952ba7f163c4a11628f55a4df523b3ef91a4505050565b600b546001600160a01b031633146108885760405162461bcd60e51b815260206004820181905260248201527f4f776e61626c653a2063616c6c6572206973206e6f7420746865206f776e657260448201526064016104ec565b600b80546001600160a01b038381166001600160a01b0319831681179093556040519116919082907f8be0079c531659141344cd1fd0a4f28419497f9722a3daafe3b4186f6b6457e090600090a35050565b816001600160a01b0316836001600160a01b03160361113e5760405162461bcd60e51b815260206004820152601960248201527f4552433732313a20617070726f766520746f2063616c6c65720000000000000060448201526064016104ec565b6001600160a01b03838116600081815260056020908152604080832094871680845294825291829020805460ff191686151590811790915591519182527f17307eab39ab6107e8899845ad3d59bd9653f200f220920489ca2b5937696c31910160405180910390a3505050565b6111b6848484610ec0565b6111c2848484846113fc565b6109e05760405162461bcd60e51b81526004016104ec906122af565b60606111e982610d74565b600082815260066020526040812080546112029061201a565b80601f016020809104026020016040519081016040528092919081815260200182805461122e9061201a565b801561127b5780601f106112505761010080835404028352916020019161127b565b820191906000526020600020905b81548152906001019060200180831161125e57829003601f168201915b50505050509050600061129960408051602081019091526000815290565b905080516000036112ab575092915050565b8151156112dd5780826040516020016112c5929190612301565b60405160208183030381529060405292505050919050565b610eb8846114fd565b6109aa828260405180602001604052806000815250611571565b6000828152600260205260409020546001600160a01b031661137b5760405162461bcd60e51b815260206004820152602e60248201527f45524337323155524953746f726167653a2055524920736574206f66206e6f6e60448201526d32bc34b9ba32b73a103a37b5b2b760911b60648201526084016104ec565b600082815260066020526040902061139382826121aa565b506040518281527ff8e1a15aba9398e019f0b49df1a4fde98ee17ae345cb5f6b5e2c27f5033e8ce79060200160405180910390a15050565b60006001600160e01b03198216632483248360e11b14806103b957506103b9826115a4565b6109e0848484846115f4565b60006001600160a01b0384163b156114f257604051630a85bd0160e11b81526001600160a01b0385169063150b7a0290611440903390899088908890600401612330565b6020604051808303816000875af192505050801561147b575060408051601f3d908101601f191682019092526114789181019061236d565b60015b6114d8573d8080156114a9576040519150601f19603f3d011682016040523d82523d6000602084013e6114ae565b606091505b5080516000036114d05760405162461bcd60e51b81526004016104ec906122af565b805181602001fd5b6001600160e01b031916630a85bd0160e11b149050610eb8565b506001949350505050565b606061150882610d74565b600061151f60408051602081019091526000815290565b9050600081511161153f576040518060200160405280600081525061156a565b8061154984611728565b60405160200161155a929190612301565b6040516020818303038152906040525b9392505050565b61157b83836117bb565b61158860008484846113fc565b61058d5760405162461bcd60e51b81526004016104ec906122af565b60006001600160e01b031982166380ac58cd60e01b14806115d557506001600160e01b03198216635b5e139f60e01b145b806103b957506301ffc9a760e01b6001600160e01b03198316146103b9565b60018111156116635760405162461bcd60e51b815260206004820152603560248201527f455243373231456e756d657261626c653a20636f6e7365637574697665207472604482015274185b9cd9995c9cc81b9bdd081cdd5c1c1bdc9d1959605a1b60648201526084016104ec565b816001600160a01b0385166116bf576116ba81600980546000838152600a60205260408120829055600182018355919091527f6e1540171b6c0c960b71a7020d9f60077f6af931a8bbf590da0223dacf75c7af0155565b6116e2565b836001600160a01b0316856001600160a01b0316146116e2576116e28582611954565b6001600160a01b0384166116fe576116f9816119f1565b611721565b846001600160a01b0316846001600160a01b031614611721576117218482611aa0565b5050505050565b6060600061173583611ae4565b600101905060008167ffffffffffffffff81111561175557611755611ced565b6040519080825280601f01601f19166020018201604052801561177f576020820181803683370190505b5090508181016020015b600019016f181899199a1a9b1b9c1cb0b131b232b360811b600a86061a8153600a850494508461178957509392505050565b6001600160a01b0382166118115760405162461bcd60e51b815260206004820181905260248201527f4552433732313a206d696e7420746f20746865207a65726f206164647265737360448201526064016104ec565b6000818152600260205260409020546001600160a01b0316156118765760405162461bcd60e51b815260206004820152601c60248201527f4552433732313a20746f6b656e20616c7265616479206d696e7465640000000060448201526064016104ec565b6118846000838360016113f0565b6000818152600260205260409020546001600160a01b0316156118e95760405162461bcd60e51b815260206004820152601c60248201527f4552433732313a20746f6b656e20616c7265616479206d696e7465640000000060448201526064016104ec565b6001600160a01b038216600081815260036020908152604080832080546001019055848352600290915280822080546001600160a01b0319168417905551839291907fddf252ad1be2c89b69c2b068fc378daa952ba7f163c4a11628f55a4df523b3ef908290a45050565b60006001611961846107f0565b61196b919061238a565b6000838152600860205260409020549091508082146119be576001600160a01b03841660009081526007602090815260408083208584528252808320548484528184208190558352600890915290208190555b5060009182526008602090815260408084208490556001600160a01b039094168352600781528383209183525290812055565b600954600090611a039060019061238a565b6000838152600a602052604081205460098054939450909284908110611a2b57611a2b6120a1565b906000526020600020015490508060098381548110611a4c57611a4c6120a1565b6000918252602080832090910192909255828152600a90915260408082208490558582528120556009805480611a8457611a8461239d565b6001900381819060005260206000200160009055905550505050565b6000611aab836107f0565b6001600160a01b039093166000908152600760209081526040808320868452825280832085905593825260089052919091209190915550565b60008072184f03e93ff9f4daa797ed6e38ed64bf6a1f0160401b8310611b235772184f03e93ff9f4daa797ed6e38ed64bf6a1f0160401b830492506040015b6d04ee2d6d415b85acef81000000008310611b4f576d04ee2d6d415b85acef8100000000830492506020015b662386f26fc100008310611b6d57662386f26fc10000830492506010015b6305f5e1008310611b85576305f5e100830492506008015b6127108310611b9957612710830492506004015b60648310611bab576064830492506002015b600a83106103b95760010192915050565b6001600160e01b031981168114610d4c57600080fd5b600060208284031215611be457600080fd5b813561156a81611bbc565b60005b83811015611c0a578181015183820152602001611bf2565b50506000910152565b60008151808452611c2b816020860160208601611bef565b601f01601f19169290920160200192915050565b60208152600061156a6020830184611c13565b600060208284031215611c6457600080fd5b5035919050565b80356001600160a01b0381168114611c8257600080fd5b919050565b60008060408385031215611c9a57600080fd5b611ca383611c6b565b946020939093013593505050565b600080600060608486031215611cc657600080fd5b611ccf84611c6b565b9250611cdd60208501611c6b565b9150604084013590509250925092565b634e487b7160e01b600052604160045260246000fd5b600067ffffffffffffffff80841115611d1e57611d1e611ced565b604051601f8501601f19908116603f01168101908282118183101715611d4657611d46611ced565b81604052809350858152868686011115611d5f57600080fd5b858560208301376000602087830101525050509392505050565b600082601f830112611d8a57600080fd5b61156a83833560208501611d03565b60008060408385031215611dac57600080fd5b611db583611c6b565b9150602083013567ffffffffffffffff811115611dd157600080fd5b611ddd85828601611d79565b9150509250929050565b600060208284031215611df957600080fd5b61156a82611c6b565b6020808252825182820181905260009190848201906040850190845b81811015611e3a57835183529284019291840191600101611e1e565b50909695505050505050565b60008060408385031215611e5957600080fd5b611e6283611c6b565b915060208301358015158114611e7757600080fd5b809150509250929050565b60008060008060808587031215611e9857600080fd5b611ea185611c6b565b9350611eaf60208601611c6b565b925060408501359150606085013567ffffffffffffffff811115611ed257600080fd5b8501601f81018713611ee357600080fd5b611ef287823560208401611d03565b91505092959194509250565b602081526000825160a06020840152611f1a60c0840182611c13565b9050602084015160408401526040840151606084015260608401516080840152608084015160a08401528091505092915050565b600080600080600080600060e0888a031215611f6957600080fd5b611f7288611c6b565b9650602088013567ffffffffffffffff80821115611f8f57600080fd5b611f9b8b838c01611d79565b975060408a0135915080821115611fb157600080fd5b50611fbe8a828b01611d79565b979a96995096976060810135975060808101359660a0820135965060c090910135945092505050565b60008060408385031215611ffa57600080fd5b61200383611c6b565b915061201160208401611c6b565b90509250929050565b600181811c9082168061202e57607f821691505b60208210810361204e57634e487b7160e01b600052602260045260246000fd5b50919050565b6020808252602d908201527f4552433732313a2063616c6c6572206973206e6f7420746f6b656e206f776e6560408201526c1c881bdc88185c1c1c9bdd9959609a1b606082015260800190565b634e487b7160e01b600052603260045260246000fd5b60008083546120c58161201a565b600182811680156120dd57600181146120f257612121565b60ff1984168752821515830287019450612121565b8760005260208060002060005b858110156121185781548a8201529084019082016120ff565b50505082870194505b50929695505050505050565b634e487b7160e01b600052601160045260246000fd5b6000600182016121555761215561212d565b5060010190565b601f82111561058d57600081815260208120601f850160051c810160208610156121835750805b601f850160051c820191505b818110156121a25782815560010161218f565b505050505050565b815167ffffffffffffffff8111156121c4576121c4611ced565b6121d8816121d2845461201a565b8461215c565b602080601f83116001811461220d57600084156121f55750858301515b600019600386901b1c1916600185901b1785556121a2565b600085815260208120601f198616915b8281101561223c5788860151825594840194600190910190840161221d565b508582101561225a5787850151600019600388901b60f8161c191681555b5050505050600190811b01905550565b60208082526025908201527f4552433732313a207472616e736665722066726f6d20696e636f72726563742060408201526437bbb732b960d91b606082015260800190565b60208082526032908201527f4552433732313a207472616e7366657220746f206e6f6e20455243373231526560408201527131b2b4bb32b91034b6b83632b6b2b73a32b960711b606082015260800190565b60008351612313818460208801611bef565b835190830190612327818360208801611bef565b01949350505050565b6001600160a01b038581168252841660208201526040810183905260806060820181905260009061236390830184611c13565b9695505050505050565b60006020828403121561237f57600080fd5b815161156a81611bbc565b818103818111156103b9576103b961212d565b634e487b7160e01b600052603160045260246000fdfea2646970667358221220bedde77b2a99c42a417fd03186bdecfb7b98ce1d20570510e7ec67d7cfb1dd0f64736f6c63430008130033",
  "linkReferences": {},
  "deployedLinkReferences": {}
}